{
	"contracts/Bank.sol": {
		"Bank": {
			"abi": [
				{
					"inputs": [],
					"name": "MAX_WITHDRAWAL",
					"outputs": [
						{
							"internalType": "uint256",
							"name": "",
							"type": "uint256"
						}
					],
					"stateMutability": "view",
					"type": "function"
				},
				{
					"inputs": [],
					"name": "MIN_DEPOSIT",
					"outputs": [
						{
							"internalType": "uint256",
							"name": "",
							"type": "uint256"
						}
					],
					"stateMutability": "view",
					"type": "function"
				},
				{
					"inputs": [],
					"name": "_deposit",
					"outputs": [],
					"stateMutability": "payable",
					"type": "function"
				},
				{
					"inputs": [
						{
							"internalType": "uint256",
							"name": "amount",
							"type": "uint256"
						}
					],
					"name": "deposit",
					"outputs": [],
					"stateMutability": "nonpayable",
					"type": "function"
				},
				{
					"inputs": [
						{
							"internalType": "address",
							"name": "_user",
							"type": "address"
						}
					],
					"name": "getUserProfile",
					"outputs": [
						{
							"internalType": "string",
							"name": "",
							"type": "string"
						},
						{
							"internalType": "address",
							"name": "",
							"type": "address"
						},
						{
							"internalType": "uint256",
							"name": "",
							"type": "uint256"
						}
					],
					"stateMutability": "view",
					"type": "function"
				},
				{
					"inputs": [
						{
							"internalType": "string",
							"name": "_name",
							"type": "string"
						}
					],
					"name": "setUserProfile",
					"outputs": [],
					"stateMutability": "nonpayable",
					"type": "function"
				},
				{
					"inputs": [
						{
							"internalType": "address",
							"name": "",
							"type": "address"
						}
					],
					"name": "userProfiles",
					"outputs": [
						{
							"internalType": "string",
							"name": "name",
							"type": "string"
						},
						{
							"internalType": "address",
							"name": "userAddress",
							"type": "address"
						},
						{
							"internalType": "uint256",
							"name": "balance",
							"type": "uint256"
						}
					],
					"stateMutability": "view",
					"type": "function"
				},
				{
					"inputs": [
						{
							"internalType": "uint256",
							"name": "_amount",
							"type": "uint256"
						}
					],
					"name": "withdraw",
					"outputs": [],
					"stateMutability": "nonpayable",
					"type": "function"
				}
			],
			"devdoc": {
				"kind": "dev",
				"methods": {},
				"version": 1
			},
			"evm": {
				"assembly": "    /* \"contracts/Bank.sol\":61:1988  contract Bank {... */\n  mstore(0x40, 0x80)\n  callvalue\n  dup1\n  iszero\n  tag_1\n  jumpi\n  0x00\n  dup1\n  revert\ntag_1:\n  pop\n  dataSize(sub_0)\n  dup1\n  dataOffset(sub_0)\n  0x00\n  codecopy\n  0x00\n  return\nstop\n\nsub_0: assembly {\n        /* \"contracts/Bank.sol\":61:1988  contract Bank {... */\n      mstore(0x40, 0x80)\n      jumpi(tag_1, lt(calldatasize, 0x04))\n      shr(0xe0, calldataload(0x00))\n      dup1\n      0x987ee156\n      gt\n      tag_10\n      jumpi\n      dup1\n      0x987ee156\n      eq\n      tag_6\n      jumpi\n      dup1\n      0xabb721ce\n      eq\n      tag_7\n      jumpi\n      dup1\n      0xb6b55f25\n      eq\n      tag_8\n      jumpi\n      dup1\n      0xe1e158a5\n      eq\n      tag_9\n      jumpi\n      jump(tag_1)\n    tag_10:\n      dup1\n      0x2e1a7d4d\n      eq\n      tag_2\n      jumpi\n      dup1\n      0x332d56d7\n      eq\n      tag_3\n      jumpi\n      dup1\n      0x6401c30c\n      eq\n      tag_4\n      jumpi\n      dup1\n      0x97ec642c\n      eq\n      tag_5\n      jumpi\n    tag_1:\n      0x00\n      dup1\n      revert\n        /* \"contracts/Bank.sol\":1373:1706  function withdraw(uint256 _amount) public {... */\n    tag_2:\n      callvalue\n      dup1\n      iszero\n      tag_11\n      jumpi\n      0x00\n      dup1\n      revert\n    tag_11:\n      pop\n      tag_12\n      0x04\n      dup1\n      calldatasize\n      sub\n      dup2\n      add\n      swap1\n      tag_13\n      swap2\n      swap1\n      tag_14\n      jump\t// in\n    tag_13:\n      tag_15\n      jump\t// in\n    tag_12:\n      stop\n        /* \"contracts/Bank.sol\":349:401  mapping (address => UserProfile) public userProfiles */\n    tag_3:\n      callvalue\n      dup1\n      iszero\n      tag_16\n      jumpi\n      0x00\n      dup1\n      revert\n    tag_16:\n      pop\n      tag_17\n      0x04\n      dup1\n      calldatasize\n      sub\n      dup2\n      add\n      swap1\n      tag_18\n      swap2\n      swap1\n      tag_19\n      jump\t// in\n    tag_18:\n      tag_20\n      jump\t// in\n    tag_17:\n      mload(0x40)\n      tag_21\n      swap4\n      swap3\n      swap2\n      swap1\n      tag_22\n      jump\t// in\n    tag_21:\n      mload(0x40)\n      dup1\n      swap2\n      sub\n      swap1\n      return\n        /* \"contracts/Bank.sol\":669:837  function setUserProfile(string memory _name) public {... */\n    tag_4:\n      callvalue\n      dup1\n      iszero\n      tag_23\n      jumpi\n      0x00\n      dup1\n      revert\n    tag_23:\n      pop\n      tag_24\n      0x04\n      dup1\n      calldatasize\n      sub\n      dup2\n      add\n      swap1\n      tag_25\n      swap2\n      swap1\n      tag_26\n      jump\t// in\n    tag_25:\n      tag_27\n      jump\t// in\n    tag_24:\n      stop\n        /* \"contracts/Bank.sol\":558:606  uint256 public constant MAX_WITHDRAWAL = 5 ether */\n    tag_5:\n      callvalue\n      dup1\n      iszero\n      tag_28\n      jumpi\n      0x00\n      dup1\n      revert\n    tag_28:\n      pop\n      tag_29\n      tag_30\n      jump\t// in\n    tag_29:\n      mload(0x40)\n      tag_31\n      swap2\n      swap1\n      tag_32\n      jump\t// in\n    tag_31:\n      mload(0x40)\n      dup1\n      swap2\n      sub\n      swap1\n      return\n        /* \"contracts/Bank.sol\":1767:1985  function getUserProfile(address _user) public view returns (string memory, address, uint256) {... */\n    tag_6:\n      callvalue\n      dup1\n      iszero\n      tag_33\n      jumpi\n      0x00\n      dup1\n      revert\n    tag_33:\n      pop\n      tag_34\n      0x04\n      dup1\n      calldatasize\n      sub\n      dup2\n      add\n      swap1\n      tag_35\n      swap2\n      swap1\n      tag_19\n      jump\t// in\n    tag_35:\n      tag_36\n      jump\t// in\n    tag_34:\n      mload(0x40)\n      tag_37\n      swap4\n      swap3\n      swap2\n      swap1\n      tag_22\n      jump\t// in\n    tag_37:\n      mload(0x40)\n      dup1\n      swap2\n      sub\n      swap1\n      return\n        /* \"contracts/Bank.sol\":1127:1302  function _deposit() public payable {... */\n    tag_7:\n      tag_38\n      tag_39\n      jump\t// in\n    tag_38:\n      stop\n        /* \"contracts/Bank.sol\":886:1060  function deposit(uint256 amount) public {... */\n    tag_8:\n      callvalue\n      dup1\n      iszero\n      tag_40\n      jumpi\n      0x00\n      dup1\n      revert\n    tag_40:\n      pop\n      tag_41\n      0x04\n      dup1\n      calldatasize\n      sub\n      dup2\n      add\n      swap1\n      tag_42\n      swap2\n      swap1\n      tag_14\n      jump\t// in\n    tag_42:\n      tag_43\n      jump\t// in\n    tag_41:\n      stop\n        /* \"contracts/Bank.sol\":456:501  uint256 public constant MIN_DEPOSIT = 1 ether */\n    tag_9:\n      callvalue\n      dup1\n      iszero\n      tag_44\n      jumpi\n      0x00\n      dup1\n      revert\n    tag_44:\n      pop\n      tag_45\n      tag_46\n      jump\t// in\n    tag_45:\n      mload(0x40)\n      tag_47\n      swap2\n      swap1\n      tag_32\n      jump\t// in\n    tag_47:\n      mload(0x40)\n      dup1\n      swap2\n      sub\n      swap1\n      return\n        /* \"contracts/Bank.sol\":1373:1706  function withdraw(uint256 _amount) public {... */\n    tag_15:\n        /* \"contracts/Bank.sol\":599:606  5 ether */\n      0x4563918244f40000\n        /* \"contracts/Bank.sol\":1434:1441  _amount */\n      dup2\n        /* \"contracts/Bank.sol\":1434:1459  _amount <= MAX_WITHDRAWAL */\n      gt\n      iszero\n        /* \"contracts/Bank.sol\":1426:1508  require(_amount <= MAX_WITHDRAWAL, \"Withdrawal amount exceeds the maximum limit.\") */\n      tag_49\n      jumpi\n      mload(0x40)\n      0x08c379a000000000000000000000000000000000000000000000000000000000\n      dup2\n      mstore\n      0x04\n      add\n      tag_50\n      swap1\n      tag_51\n      jump\t// in\n    tag_50:\n      mload(0x40)\n      dup1\n      swap2\n      sub\n      swap1\n      revert\n    tag_49:\n        /* \"contracts/Bank.sol\":1563:1570  _amount */\n      dup1\n        /* \"contracts/Bank.sol\":1527:1539  userProfiles */\n      0x00\n        /* \"contracts/Bank.sol\":1527:1551  userProfiles[msg.sender] */\n      dup1\n        /* \"contracts/Bank.sol\":1540:1550  msg.sender */\n      caller\n        /* \"contracts/Bank.sol\":1527:1551  userProfiles[msg.sender] */\n      0xffffffffffffffffffffffffffffffffffffffff\n      and\n      0xffffffffffffffffffffffffffffffffffffffff\n      and\n      dup2\n      mstore\n      0x20\n      add\n      swap1\n      dup2\n      mstore\n      0x20\n      add\n      0x00\n      keccak256\n        /* \"contracts/Bank.sol\":1527:1559  userProfiles[msg.sender].balance */\n      0x02\n      add\n      sload\n        /* \"contracts/Bank.sol\":1527:1570  userProfiles[msg.sender].balance >= _amount */\n      lt\n      iszero\n        /* \"contracts/Bank.sol\":1519:1596  require(userProfiles[msg.sender].balance >= _amount, \"Insufficient balance.\") */\n      tag_52\n      jumpi\n      mload(0x40)\n      0x08c379a000000000000000000000000000000000000000000000000000000000\n      dup2\n      mstore\n      0x04\n      add\n      tag_53\n      swap1\n      tag_54\n      jump\t// in\n    tag_53:\n      mload(0x40)\n      dup1\n      swap2\n      sub\n      swap1\n      revert\n    tag_52:\n        /* \"contracts/Bank.sol\":1643:1650  _amount */\n      dup1\n        /* \"contracts/Bank.sol\":1607:1619  userProfiles */\n      0x00\n        /* \"contracts/Bank.sol\":1607:1631  userProfiles[msg.sender] */\n      dup1\n        /* \"contracts/Bank.sol\":1620:1630  msg.sender */\n      caller\n        /* \"contracts/Bank.sol\":1607:1631  userProfiles[msg.sender] */\n      0xffffffffffffffffffffffffffffffffffffffff\n      and\n      0xffffffffffffffffffffffffffffffffffffffff\n      and\n      dup2\n      mstore\n      0x20\n      add\n      swap1\n      dup2\n      mstore\n      0x20\n      add\n      0x00\n      keccak256\n        /* \"contracts/Bank.sol\":1607:1639  userProfiles[msg.sender].balance */\n      0x02\n      add\n      0x00\n        /* \"contracts/Bank.sol\":1607:1650  userProfiles[msg.sender].balance -= _amount */\n      dup3\n      dup3\n      sload\n      tag_55\n      swap2\n      swap1\n      tag_56\n      jump\t// in\n    tag_55:\n      swap3\n      pop\n      pop\n      dup2\n      swap1\n      sstore\n      pop\n        /* \"contracts/Bank.sol\":1669:1679  msg.sender */\n      caller\n        /* \"contracts/Bank.sol\":1661:1689  payable(msg.sender).transfer */\n      0xffffffffffffffffffffffffffffffffffffffff\n      and\n        /* \"contracts/Bank.sol\":1661:1698  payable(msg.sender).transfer(_amount) */\n      0x08fc\n        /* \"contracts/Bank.sol\":1690:1697  _amount */\n      dup3\n        /* \"contracts/Bank.sol\":1661:1698  payable(msg.sender).transfer(_amount) */\n      swap1\n      dup2\n      iszero\n      mul\n      swap1\n      mload(0x40)\n      0x00\n      mload(0x40)\n      dup1\n      dup4\n      sub\n      dup2\n      dup6\n      dup9\n      dup9\n      call\n      swap4\n      pop\n      pop\n      pop\n      pop\n      iszero\n      dup1\n      iszero\n      tag_58\n      jumpi\n      returndatasize\n      0x00\n      dup1\n      returndatacopy\n      revert(0x00, returndatasize)\n    tag_58:\n      pop\n        /* \"contracts/Bank.sol\":1373:1706  function withdraw(uint256 _amount) public {... */\n      pop\n      jump\t// out\n        /* \"contracts/Bank.sol\":349:401  mapping (address => UserProfile) public userProfiles */\n    tag_20:\n      mstore(0x20, 0x00)\n      dup1\n      0x00\n      mstore\n      keccak256(0x00, 0x40)\n      0x00\n      swap2\n      pop\n      swap1\n      pop\n      dup1\n      0x00\n      add\n      dup1\n      sload\n      tag_59\n      swap1\n      tag_60\n      jump\t// in\n    tag_59:\n      dup1\n      0x1f\n      add\n      0x20\n      dup1\n      swap2\n      div\n      mul\n      0x20\n      add\n      mload(0x40)\n      swap1\n      dup2\n      add\n      0x40\n      mstore\n      dup1\n      swap3\n      swap2\n      swap1\n      dup2\n      dup2\n      mstore\n      0x20\n      add\n      dup3\n      dup1\n      sload\n      tag_61\n      swap1\n      tag_60\n      jump\t// in\n    tag_61:\n      dup1\n      iszero\n      tag_62\n      jumpi\n      dup1\n      0x1f\n      lt\n      tag_63\n      jumpi\n      0x0100\n      dup1\n      dup4\n      sload\n      div\n      mul\n      dup4\n      mstore\n      swap2\n      0x20\n      add\n      swap2\n      jump(tag_62)\n    tag_63:\n      dup3\n      add\n      swap2\n      swap1\n      0x00\n      mstore\n      keccak256(0x00, 0x20)\n      swap1\n    tag_64:\n      dup2\n      sload\n      dup2\n      mstore\n      swap1\n      0x01\n      add\n      swap1\n      0x20\n      add\n      dup1\n      dup4\n      gt\n      tag_64\n      jumpi\n      dup3\n      swap1\n      sub\n      0x1f\n      and\n      dup3\n      add\n      swap2\n    tag_62:\n      pop\n      pop\n      pop\n      pop\n      pop\n      swap1\n      dup1\n      0x01\n      add\n      0x00\n      swap1\n      sload\n      swap1\n      0x0100\n      exp\n      swap1\n      div\n      0xffffffffffffffffffffffffffffffffffffffff\n      and\n      swap1\n      dup1\n      0x02\n      add\n      sload\n      swap1\n      pop\n      dup4\n      jump\t// out\n        /* \"contracts/Bank.sol\":669:837  function setUserProfile(string memory _name) public {... */\n    tag_27:\n        /* \"contracts/Bank.sol\":764:769  _name */\n      dup1\n        /* \"contracts/Bank.sol\":732:744  userProfiles */\n      0x00\n        /* \"contracts/Bank.sol\":732:756  userProfiles[msg.sender] */\n      dup1\n        /* \"contracts/Bank.sol\":745:755  msg.sender */\n      caller\n        /* \"contracts/Bank.sol\":732:756  userProfiles[msg.sender] */\n      0xffffffffffffffffffffffffffffffffffffffff\n      and\n      0xffffffffffffffffffffffffffffffffffffffff\n      and\n      dup2\n      mstore\n      0x20\n      add\n      swap1\n      dup2\n      mstore\n      0x20\n      add\n      0x00\n      keccak256\n        /* \"contracts/Bank.sol\":732:761  userProfiles[msg.sender].name */\n      0x00\n      add\n        /* \"contracts/Bank.sol\":732:769  userProfiles[msg.sender].name = _name */\n      swap1\n      dup2\n      tag_66\n      swap2\n      swap1\n      tag_67\n      jump\t// in\n    tag_66:\n      pop\n        /* \"contracts/Bank.sol\":819:829  msg.sender */\n      caller\n        /* \"contracts/Bank.sol\":780:792  userProfiles */\n      0x00\n        /* \"contracts/Bank.sol\":780:804  userProfiles[msg.sender] */\n      dup1\n        /* \"contracts/Bank.sol\":793:803  msg.sender */\n      caller\n        /* \"contracts/Bank.sol\":780:804  userProfiles[msg.sender] */\n      0xffffffffffffffffffffffffffffffffffffffff\n      and\n      0xffffffffffffffffffffffffffffffffffffffff\n      and\n      dup2\n      mstore\n      0x20\n      add\n      swap1\n      dup2\n      mstore\n      0x20\n      add\n      0x00\n      keccak256\n        /* \"contracts/Bank.sol\":780:816  userProfiles[msg.sender].userAddress */\n      0x01\n      add\n      0x00\n        /* \"contracts/Bank.sol\":780:829  userProfiles[msg.sender].userAddress = msg.sender */\n      0x0100\n      exp\n      dup2\n      sload\n      dup2\n      0xffffffffffffffffffffffffffffffffffffffff\n      mul\n      not\n      and\n      swap1\n      dup4\n      0xffffffffffffffffffffffffffffffffffffffff\n      and\n      mul\n      or\n      swap1\n      sstore\n      pop\n        /* \"contracts/Bank.sol\":669:837  function setUserProfile(string memory _name) public {... */\n      pop\n      jump\t// out\n        /* \"contracts/Bank.sol\":558:606  uint256 public constant MAX_WITHDRAWAL = 5 ether */\n    tag_30:\n        /* \"contracts/Bank.sol\":599:606  5 ether */\n      0x4563918244f40000\n        /* \"contracts/Bank.sol\":558:606  uint256 public constant MAX_WITHDRAWAL = 5 ether */\n      dup2\n      jump\t// out\n        /* \"contracts/Bank.sol\":1767:1985  function getUserProfile(address _user) public view returns (string memory, address, uint256) {... */\n    tag_36:\n        /* \"contracts/Bank.sol\":1827:1840  string memory */\n      0x60\n        /* \"contracts/Bank.sol\":1842:1849  address */\n      0x00\n        /* \"contracts/Bank.sol\":1851:1858  uint256 */\n      dup1\n        /* \"contracts/Bank.sol\":1871:1894  UserProfile memory user */\n      0x00\n        /* \"contracts/Bank.sol\":1897:1909  userProfiles */\n      dup1\n        /* \"contracts/Bank.sol\":1897:1916  userProfiles[_user] */\n      0x00\n        /* \"contracts/Bank.sol\":1910:1915  _user */\n      dup7\n        /* \"contracts/Bank.sol\":1897:1916  userProfiles[_user] */\n      0xffffffffffffffffffffffffffffffffffffffff\n      and\n      0xffffffffffffffffffffffffffffffffffffffff\n      and\n      dup2\n      mstore\n      0x20\n      add\n      swap1\n      dup2\n      mstore\n      0x20\n      add\n      0x00\n      keccak256\n        /* \"contracts/Bank.sol\":1871:1916  UserProfile memory user = userProfiles[_user] */\n      mload(0x40)\n      dup1\n      0x60\n      add\n      0x40\n      mstore\n      swap1\n      dup2\n      0x00\n      dup3\n      add\n      dup1\n      sload\n      tag_69\n      swap1\n      tag_60\n      jump\t// in\n    tag_69:\n      dup1\n      0x1f\n      add\n      0x20\n      dup1\n      swap2\n      div\n      mul\n      0x20\n      add\n      mload(0x40)\n      swap1\n      dup2\n      add\n      0x40\n      mstore\n      dup1\n      swap3\n      swap2\n      swap1\n      dup2\n      dup2\n      mstore\n      0x20\n      add\n      dup3\n      dup1\n      sload\n      tag_70\n      swap1\n      tag_60\n      jump\t// in\n    tag_70:\n      dup1\n      iszero\n      tag_71\n      jumpi\n      dup1\n      0x1f\n      lt\n      tag_72\n      jumpi\n      0x0100\n      dup1\n      dup4\n      sload\n      div\n      mul\n      dup4\n      mstore\n      swap2\n      0x20\n      add\n      swap2\n      jump(tag_71)\n    tag_72:\n      dup3\n      add\n      swap2\n      swap1\n      0x00\n      mstore\n      keccak256(0x00, 0x20)\n      swap1\n    tag_73:\n      dup2\n      sload\n      dup2\n      mstore\n      swap1\n      0x01\n      add\n      swap1\n      0x20\n      add\n      dup1\n      dup4\n      gt\n      tag_73\n      jumpi\n      dup3\n      swap1\n      sub\n      0x1f\n      and\n      dup3\n      add\n      swap2\n    tag_71:\n      pop\n      pop\n      pop\n      pop\n      pop\n      dup2\n      mstore\n      0x20\n      add\n      0x01\n      dup3\n      add\n      0x00\n      swap1\n      sload\n      swap1\n      0x0100\n      exp\n      swap1\n      div\n      0xffffffffffffffffffffffffffffffffffffffff\n      and\n      0xffffffffffffffffffffffffffffffffffffffff\n      and\n      0xffffffffffffffffffffffffffffffffffffffff\n      and\n      dup2\n      mstore\n      0x20\n      add\n      0x02\n      dup3\n      add\n      sload\n      dup2\n      mstore\n      pop\n      pop\n      swap1\n      pop\n        /* \"contracts/Bank.sol\":1935:1939  user */\n      dup1\n        /* \"contracts/Bank.sol\":1935:1944  user.name */\n      0x00\n      add\n      mload\n        /* \"contracts/Bank.sol\":1946:1950  user */\n      dup2\n        /* \"contracts/Bank.sol\":1946:1962  user.userAddress */\n      0x20\n      add\n      mload\n        /* \"contracts/Bank.sol\":1964:1968  user */\n      dup3\n        /* \"contracts/Bank.sol\":1964:1976  user.balance */\n      0x40\n      add\n      mload\n        /* \"contracts/Bank.sol\":1927:1977  return (user.name, user.userAddress, user.balance) */\n      swap4\n      pop\n      swap4\n      pop\n      swap4\n      pop\n      pop\n        /* \"contracts/Bank.sol\":1767:1985  function getUserProfile(address _user) public view returns (string memory, address, uint256) {... */\n      swap2\n      swap4\n      swap1\n      swap3\n      pop\n      jump\t// out\n        /* \"contracts/Bank.sol\":1127:1302  function _deposit() public payable {... */\n    tag_39:\n        /* \"contracts/Bank.sol\":494:501  1 ether */\n      0x0de0b6b3a7640000\n        /* \"contracts/Bank.sol\":1181:1190  msg.value */\n      callvalue\n        /* \"contracts/Bank.sol\":1181:1205  msg.value >= MIN_DEPOSIT */\n      lt\n      iszero\n        /* \"contracts/Bank.sol\":1173:1238  require(msg.value >= MIN_DEPOSIT, \"Deposit amount is too small.\") */\n      tag_75\n      jumpi\n      mload(0x40)\n      0x08c379a000000000000000000000000000000000000000000000000000000000\n      dup2\n      mstore\n      0x04\n      add\n      tag_76\n      swap1\n      tag_77\n      jump\t// in\n    tag_76:\n      mload(0x40)\n      dup1\n      swap2\n      sub\n      swap1\n      revert\n    tag_75:\n        /* \"contracts/Bank.sol\":1285:1294  msg.value */\n      callvalue\n        /* \"contracts/Bank.sol\":1249:1261  userProfiles */\n      0x00\n        /* \"contracts/Bank.sol\":1249:1273  userProfiles[msg.sender] */\n      dup1\n        /* \"contracts/Bank.sol\":1262:1272  msg.sender */\n      caller\n        /* \"contracts/Bank.sol\":1249:1273  userProfiles[msg.sender] */\n      0xffffffffffffffffffffffffffffffffffffffff\n      and\n      0xffffffffffffffffffffffffffffffffffffffff\n      and\n      dup2\n      mstore\n      0x20\n      add\n      swap1\n      dup2\n      mstore\n      0x20\n      add\n      0x00\n      keccak256\n        /* \"contracts/Bank.sol\":1249:1281  userProfiles[msg.sender].balance */\n      0x02\n      add\n      0x00\n        /* \"contracts/Bank.sol\":1249:1294  userProfiles[msg.sender].balance += msg.value */\n      dup3\n      dup3\n      sload\n      tag_78\n      swap2\n      swap1\n      tag_79\n      jump\t// in\n    tag_78:\n      swap3\n      pop\n      pop\n      dup2\n      swap1\n      sstore\n      pop\n        /* \"contracts/Bank.sol\":1127:1302  function _deposit() public payable {... */\n      jump\t// out\n        /* \"contracts/Bank.sol\":886:1060  function deposit(uint256 amount) public {... */\n    tag_43:\n        /* \"contracts/Bank.sol\":494:501  1 ether */\n      0x0de0b6b3a7640000\n        /* \"contracts/Bank.sol\":945:951  amount */\n      dup2\n        /* \"contracts/Bank.sol\":945:966  amount >= MIN_DEPOSIT */\n      lt\n      iszero\n        /* \"contracts/Bank.sol\":937:999  require(amount >= MIN_DEPOSIT, \"Deposit amount is too small.\") */\n      tag_81\n      jumpi\n      mload(0x40)\n      0x08c379a000000000000000000000000000000000000000000000000000000000\n      dup2\n      mstore\n      0x04\n      add\n      tag_82\n      swap1\n      tag_77\n      jump\t// in\n    tag_82:\n      mload(0x40)\n      dup1\n      swap2\n      sub\n      swap1\n      revert\n    tag_81:\n        /* \"contracts/Bank.sol\":1046:1052  amount */\n      dup1\n        /* \"contracts/Bank.sol\":1010:1022  userProfiles */\n      0x00\n        /* \"contracts/Bank.sol\":1010:1034  userProfiles[msg.sender] */\n      dup1\n        /* \"contracts/Bank.sol\":1023:1033  msg.sender */\n      caller\n        /* \"contracts/Bank.sol\":1010:1034  userProfiles[msg.sender] */\n      0xffffffffffffffffffffffffffffffffffffffff\n      and\n      0xffffffffffffffffffffffffffffffffffffffff\n      and\n      dup2\n      mstore\n      0x20\n      add\n      swap1\n      dup2\n      mstore\n      0x20\n      add\n      0x00\n      keccak256\n        /* \"contracts/Bank.sol\":1010:1042  userProfiles[msg.sender].balance */\n      0x02\n      add\n      0x00\n        /* \"contracts/Bank.sol\":1010:1052  userProfiles[msg.sender].balance += amount */\n      dup3\n      dup3\n      sload\n      tag_83\n      swap2\n      swap1\n      tag_79\n      jump\t// in\n    tag_83:\n      swap3\n      pop\n      pop\n      dup2\n      swap1\n      sstore\n      pop\n        /* \"contracts/Bank.sol\":886:1060  function deposit(uint256 amount) public {... */\n      pop\n      jump\t// out\n        /* \"contracts/Bank.sol\":456:501  uint256 public constant MIN_DEPOSIT = 1 ether */\n    tag_46:\n        /* \"contracts/Bank.sol\":494:501  1 ether */\n      0x0de0b6b3a7640000\n        /* \"contracts/Bank.sol\":456:501  uint256 public constant MIN_DEPOSIT = 1 ether */\n      dup2\n      jump\t// out\n        /* \"#utility.yul\":7:82   */\n    tag_84:\n        /* \"#utility.yul\":40:46   */\n      0x00\n        /* \"#utility.yul\":73:75   */\n      0x40\n        /* \"#utility.yul\":67:76   */\n      mload\n        /* \"#utility.yul\":57:76   */\n      swap1\n      pop\n        /* \"#utility.yul\":7:82   */\n      swap1\n      jump\t// out\n        /* \"#utility.yul\":88:205   */\n    tag_85:\n        /* \"#utility.yul\":197:198   */\n      0x00\n        /* \"#utility.yul\":194:195   */\n      dup1\n        /* \"#utility.yul\":187:199   */\n      revert\n        /* \"#utility.yul\":211:328   */\n    tag_86:\n        /* \"#utility.yul\":320:321   */\n      0x00\n        /* \"#utility.yul\":317:318   */\n      dup1\n        /* \"#utility.yul\":310:322   */\n      revert\n        /* \"#utility.yul\":334:411   */\n    tag_87:\n        /* \"#utility.yul\":371:378   */\n      0x00\n        /* \"#utility.yul\":400:405   */\n      dup2\n        /* \"#utility.yul\":389:405   */\n      swap1\n      pop\n        /* \"#utility.yul\":334:411   */\n      swap2\n      swap1\n      pop\n      jump\t// out\n        /* \"#utility.yul\":417:539   */\n    tag_88:\n        /* \"#utility.yul\":490:514   */\n      tag_139\n        /* \"#utility.yul\":508:513   */\n      dup2\n        /* \"#utility.yul\":490:514   */\n      tag_87\n      jump\t// in\n    tag_139:\n        /* \"#utility.yul\":483:488   */\n      dup2\n        /* \"#utility.yul\":480:515   */\n      eq\n        /* \"#utility.yul\":470:533   */\n      tag_140\n      jumpi\n        /* \"#utility.yul\":529:530   */\n      0x00\n        /* \"#utility.yul\":526:527   */\n      dup1\n        /* \"#utility.yul\":519:531   */\n      revert\n        /* \"#utility.yul\":470:533   */\n    tag_140:\n        /* \"#utility.yul\":417:539   */\n      pop\n      jump\t// out\n        /* \"#utility.yul\":545:684   */\n    tag_89:\n        /* \"#utility.yul\":591:596   */\n      0x00\n        /* \"#utility.yul\":629:635   */\n      dup2\n        /* \"#utility.yul\":616:636   */\n      calldataload\n        /* \"#utility.yul\":607:636   */\n      swap1\n      pop\n        /* \"#utility.yul\":645:678   */\n      tag_142\n        /* \"#utility.yul\":672:677   */\n      dup2\n        /* \"#utility.yul\":645:678   */\n      tag_88\n      jump\t// in\n    tag_142:\n        /* \"#utility.yul\":545:684   */\n      swap3\n      swap2\n      pop\n      pop\n      jump\t// out\n        /* \"#utility.yul\":690:1019   */\n    tag_14:\n        /* \"#utility.yul\":749:755   */\n      0x00\n        /* \"#utility.yul\":798:800   */\n      0x20\n        /* \"#utility.yul\":786:795   */\n      dup3\n        /* \"#utility.yul\":777:784   */\n      dup5\n        /* \"#utility.yul\":773:796   */\n      sub\n        /* \"#utility.yul\":769:801   */\n      slt\n        /* \"#utility.yul\":766:885   */\n      iszero\n      tag_144\n      jumpi\n        /* \"#utility.yul\":804:883   */\n      tag_145\n      tag_85\n      jump\t// in\n    tag_145:\n        /* \"#utility.yul\":766:885   */\n    tag_144:\n        /* \"#utility.yul\":924:925   */\n      0x00\n        /* \"#utility.yul\":949:1002   */\n      tag_146\n        /* \"#utility.yul\":994:1001   */\n      dup5\n        /* \"#utility.yul\":985:991   */\n      dup3\n        /* \"#utility.yul\":974:983   */\n      dup6\n        /* \"#utility.yul\":970:992   */\n      add\n        /* \"#utility.yul\":949:1002   */\n      tag_89\n      jump\t// in\n    tag_146:\n        /* \"#utility.yul\":939:1002   */\n      swap2\n      pop\n        /* \"#utility.yul\":895:1012   */\n      pop\n        /* \"#utility.yul\":690:1019   */\n      swap3\n      swap2\n      pop\n      pop\n      jump\t// out\n        /* \"#utility.yul\":1025:1151   */\n    tag_90:\n        /* \"#utility.yul\":1062:1069   */\n      0x00\n        /* \"#utility.yul\":1102:1144   */\n      0xffffffffffffffffffffffffffffffffffffffff\n        /* \"#utility.yul\":1095:1100   */\n      dup3\n        /* \"#utility.yul\":1091:1145   */\n      and\n        /* \"#utility.yul\":1080:1145   */\n      swap1\n      pop\n        /* \"#utility.yul\":1025:1151   */\n      swap2\n      swap1\n      pop\n      jump\t// out\n        /* \"#utility.yul\":1157:1253   */\n    tag_91:\n        /* \"#utility.yul\":1194:1201   */\n      0x00\n        /* \"#utility.yul\":1223:1247   */\n      tag_149\n        /* \"#utility.yul\":1241:1246   */\n      dup3\n        /* \"#utility.yul\":1223:1247   */\n      tag_90\n      jump\t// in\n    tag_149:\n        /* \"#utility.yul\":1212:1247   */\n      swap1\n      pop\n        /* \"#utility.yul\":1157:1253   */\n      swap2\n      swap1\n      pop\n      jump\t// out\n        /* \"#utility.yul\":1259:1381   */\n    tag_92:\n        /* \"#utility.yul\":1332:1356   */\n      tag_151\n        /* \"#utility.yul\":1350:1355   */\n      dup2\n        /* \"#utility.yul\":1332:1356   */\n      tag_91\n      jump\t// in\n    tag_151:\n        /* \"#utility.yul\":1325:1330   */\n      dup2\n        /* \"#utility.yul\":1322:1357   */\n      eq\n        /* \"#utility.yul\":1312:1375   */\n      tag_152\n      jumpi\n        /* \"#utility.yul\":1371:1372   */\n      0x00\n        /* \"#utility.yul\":1368:1369   */\n      dup1\n        /* \"#utility.yul\":1361:1373   */\n      revert\n        /* \"#utility.yul\":1312:1375   */\n    tag_152:\n        /* \"#utility.yul\":1259:1381   */\n      pop\n      jump\t// out\n        /* \"#utility.yul\":1387:1526   */\n    tag_93:\n        /* \"#utility.yul\":1433:1438   */\n      0x00\n        /* \"#utility.yul\":1471:1477   */\n      dup2\n        /* \"#utility.yul\":1458:1478   */\n      calldataload\n        /* \"#utility.yul\":1449:1478   */\n      swap1\n      pop\n        /* \"#utility.yul\":1487:1520   */\n      tag_154\n        /* \"#utility.yul\":1514:1519   */\n      dup2\n        /* \"#utility.yul\":1487:1520   */\n      tag_92\n      jump\t// in\n    tag_154:\n        /* \"#utility.yul\":1387:1526   */\n      swap3\n      swap2\n      pop\n      pop\n      jump\t// out\n        /* \"#utility.yul\":1532:1861   */\n    tag_19:\n        /* \"#utility.yul\":1591:1597   */\n      0x00\n        /* \"#utility.yul\":1640:1642   */\n      0x20\n        /* \"#utility.yul\":1628:1637   */\n      dup3\n        /* \"#utility.yul\":1619:1626   */\n      dup5\n        /* \"#utility.yul\":1615:1638   */\n      sub\n        /* \"#utility.yul\":1611:1643   */\n      slt\n        /* \"#utility.yul\":1608:1727   */\n      iszero\n      tag_156\n      jumpi\n        /* \"#utility.yul\":1646:1725   */\n      tag_157\n      tag_85\n      jump\t// in\n    tag_157:\n        /* \"#utility.yul\":1608:1727   */\n    tag_156:\n        /* \"#utility.yul\":1766:1767   */\n      0x00\n        /* \"#utility.yul\":1791:1844   */\n      tag_158\n        /* \"#utility.yul\":1836:1843   */\n      dup5\n        /* \"#utility.yul\":1827:1833   */\n      dup3\n        /* \"#utility.yul\":1816:1825   */\n      dup6\n        /* \"#utility.yul\":1812:1834   */\n      add\n        /* \"#utility.yul\":1791:1844   */\n      tag_93\n      jump\t// in\n    tag_158:\n        /* \"#utility.yul\":1781:1844   */\n      swap2\n      pop\n        /* \"#utility.yul\":1737:1854   */\n      pop\n        /* \"#utility.yul\":1532:1861   */\n      swap3\n      swap2\n      pop\n      pop\n      jump\t// out\n        /* \"#utility.yul\":1867:1966   */\n    tag_94:\n        /* \"#utility.yul\":1919:1925   */\n      0x00\n        /* \"#utility.yul\":1953:1958   */\n      dup2\n        /* \"#utility.yul\":1947:1959   */\n      mload\n        /* \"#utility.yul\":1937:1959   */\n      swap1\n      pop\n        /* \"#utility.yul\":1867:1966   */\n      swap2\n      swap1\n      pop\n      jump\t// out\n        /* \"#utility.yul\":1972:2141   */\n    tag_95:\n        /* \"#utility.yul\":2056:2067   */\n      0x00\n        /* \"#utility.yul\":2090:2096   */\n      dup3\n        /* \"#utility.yul\":2085:2088   */\n      dup3\n        /* \"#utility.yul\":2078:2097   */\n      mstore\n        /* \"#utility.yul\":2130:2134   */\n      0x20\n        /* \"#utility.yul\":2125:2128   */\n      dup3\n        /* \"#utility.yul\":2121:2135   */\n      add\n        /* \"#utility.yul\":2106:2135   */\n      swap1\n      pop\n        /* \"#utility.yul\":1972:2141   */\n      swap3\n      swap2\n      pop\n      pop\n      jump\t// out\n        /* \"#utility.yul\":2147:2286   */\n    tag_96:\n        /* \"#utility.yul\":2236:2242   */\n      dup3\n        /* \"#utility.yul\":2231:2234   */\n      dup2\n        /* \"#utility.yul\":2226:2229   */\n      dup4\n        /* \"#utility.yul\":2220:2243   */\n      mcopy\n        /* \"#utility.yul\":2277:2278   */\n      0x00\n        /* \"#utility.yul\":2268:2274   */\n      dup4\n        /* \"#utility.yul\":2263:2266   */\n      dup4\n        /* \"#utility.yul\":2259:2275   */\n      add\n        /* \"#utility.yul\":2252:2279   */\n      mstore\n        /* \"#utility.yul\":2147:2286   */\n      pop\n      pop\n      pop\n      jump\t// out\n        /* \"#utility.yul\":2292:2394   */\n    tag_97:\n        /* \"#utility.yul\":2333:2339   */\n      0x00\n        /* \"#utility.yul\":2384:2386   */\n      0x1f\n        /* \"#utility.yul\":2380:2387   */\n      not\n        /* \"#utility.yul\":2375:2377   */\n      0x1f\n        /* \"#utility.yul\":2368:2373   */\n      dup4\n        /* \"#utility.yul\":2364:2378   */\n      add\n        /* \"#utility.yul\":2360:2388   */\n      and\n        /* \"#utility.yul\":2350:2388   */\n      swap1\n      pop\n        /* \"#utility.yul\":2292:2394   */\n      swap2\n      swap1\n      pop\n      jump\t// out\n        /* \"#utility.yul\":2400:2777   */\n    tag_98:\n        /* \"#utility.yul\":2488:2491   */\n      0x00\n        /* \"#utility.yul\":2516:2555   */\n      tag_164\n        /* \"#utility.yul\":2549:2554   */\n      dup3\n        /* \"#utility.yul\":2516:2555   */\n      tag_94\n      jump\t// in\n    tag_164:\n        /* \"#utility.yul\":2571:2642   */\n      tag_165\n        /* \"#utility.yul\":2635:2641   */\n      dup2\n        /* \"#utility.yul\":2630:2633   */\n      dup6\n        /* \"#utility.yul\":2571:2642   */\n      tag_95\n      jump\t// in\n    tag_165:\n        /* \"#utility.yul\":2564:2642   */\n      swap4\n      pop\n        /* \"#utility.yul\":2651:2716   */\n      tag_166\n        /* \"#utility.yul\":2709:2715   */\n      dup2\n        /* \"#utility.yul\":2704:2707   */\n      dup6\n        /* \"#utility.yul\":2697:2701   */\n      0x20\n        /* \"#utility.yul\":2690:2695   */\n      dup7\n        /* \"#utility.yul\":2686:2702   */\n      add\n        /* \"#utility.yul\":2651:2716   */\n      tag_96\n      jump\t// in\n    tag_166:\n        /* \"#utility.yul\":2741:2770   */\n      tag_167\n        /* \"#utility.yul\":2763:2769   */\n      dup2\n        /* \"#utility.yul\":2741:2770   */\n      tag_97\n      jump\t// in\n    tag_167:\n        /* \"#utility.yul\":2736:2739   */\n      dup5\n        /* \"#utility.yul\":2732:2771   */\n      add\n        /* \"#utility.yul\":2725:2771   */\n      swap2\n      pop\n        /* \"#utility.yul\":2492:2777   */\n      pop\n        /* \"#utility.yul\":2400:2777   */\n      swap3\n      swap2\n      pop\n      pop\n      jump\t// out\n        /* \"#utility.yul\":2783:2901   */\n    tag_99:\n        /* \"#utility.yul\":2870:2894   */\n      tag_169\n        /* \"#utility.yul\":2888:2893   */\n      dup2\n        /* \"#utility.yul\":2870:2894   */\n      tag_91\n      jump\t// in\n    tag_169:\n        /* \"#utility.yul\":2865:2868   */\n      dup3\n        /* \"#utility.yul\":2858:2895   */\n      mstore\n        /* \"#utility.yul\":2783:2901   */\n      pop\n      pop\n      jump\t// out\n        /* \"#utility.yul\":2907:3025   */\n    tag_100:\n        /* \"#utility.yul\":2994:3018   */\n      tag_171\n        /* \"#utility.yul\":3012:3017   */\n      dup2\n        /* \"#utility.yul\":2994:3018   */\n      tag_87\n      jump\t// in\n    tag_171:\n        /* \"#utility.yul\":2989:2992   */\n      dup3\n        /* \"#utility.yul\":2982:3019   */\n      mstore\n        /* \"#utility.yul\":2907:3025   */\n      pop\n      pop\n      jump\t// out\n        /* \"#utility.yul\":3031:3564   */\n    tag_22:\n        /* \"#utility.yul\":3200:3204   */\n      0x00\n        /* \"#utility.yul\":3238:3240   */\n      0x60\n        /* \"#utility.yul\":3227:3236   */\n      dup3\n        /* \"#utility.yul\":3223:3241   */\n      add\n        /* \"#utility.yul\":3215:3241   */\n      swap1\n      pop\n        /* \"#utility.yul\":3287:3296   */\n      dup2\n        /* \"#utility.yul\":3281:3285   */\n      dup2\n        /* \"#utility.yul\":3277:3297   */\n      sub\n        /* \"#utility.yul\":3273:3274   */\n      0x00\n        /* \"#utility.yul\":3262:3271   */\n      dup4\n        /* \"#utility.yul\":3258:3275   */\n      add\n        /* \"#utility.yul\":3251:3298   */\n      mstore\n        /* \"#utility.yul\":3315:3393   */\n      tag_173\n        /* \"#utility.yul\":3388:3392   */\n      dup2\n        /* \"#utility.yul\":3379:3385   */\n      dup7\n        /* \"#utility.yul\":3315:3393   */\n      tag_98\n      jump\t// in\n    tag_173:\n        /* \"#utility.yul\":3307:3393   */\n      swap1\n      pop\n        /* \"#utility.yul\":3403:3475   */\n      tag_174\n        /* \"#utility.yul\":3471:3473   */\n      0x20\n        /* \"#utility.yul\":3460:3469   */\n      dup4\n        /* \"#utility.yul\":3456:3474   */\n      add\n        /* \"#utility.yul\":3447:3453   */\n      dup6\n        /* \"#utility.yul\":3403:3475   */\n      tag_99\n      jump\t// in\n    tag_174:\n        /* \"#utility.yul\":3485:3557   */\n      tag_175\n        /* \"#utility.yul\":3553:3555   */\n      0x40\n        /* \"#utility.yul\":3542:3551   */\n      dup4\n        /* \"#utility.yul\":3538:3556   */\n      add\n        /* \"#utility.yul\":3529:3535   */\n      dup5\n        /* \"#utility.yul\":3485:3557   */\n      tag_100\n      jump\t// in\n    tag_175:\n        /* \"#utility.yul\":3031:3564   */\n      swap5\n      swap4\n      pop\n      pop\n      pop\n      pop\n      jump\t// out\n        /* \"#utility.yul\":3570:3687   */\n    tag_101:\n        /* \"#utility.yul\":3679:3680   */\n      0x00\n        /* \"#utility.yul\":3676:3677   */\n      dup1\n        /* \"#utility.yul\":3669:3681   */\n      revert\n        /* \"#utility.yul\":3693:3810   */\n    tag_102:\n        /* \"#utility.yul\":3802:3803   */\n      0x00\n        /* \"#utility.yul\":3799:3800   */\n      dup1\n        /* \"#utility.yul\":3792:3804   */\n      revert\n        /* \"#utility.yul\":3816:3996   */\n    tag_103:\n        /* \"#utility.yul\":3864:3941   */\n      0x4e487b7100000000000000000000000000000000000000000000000000000000\n        /* \"#utility.yul\":3861:3862   */\n      0x00\n        /* \"#utility.yul\":3854:3942   */\n      mstore\n        /* \"#utility.yul\":3961:3965   */\n      0x41\n        /* \"#utility.yul\":3958:3959   */\n      0x04\n        /* \"#utility.yul\":3951:3966   */\n      mstore\n        /* \"#utility.yul\":3985:3989   */\n      0x24\n        /* \"#utility.yul\":3982:3983   */\n      0x00\n        /* \"#utility.yul\":3975:3990   */\n      revert\n        /* \"#utility.yul\":4002:4283   */\n    tag_104:\n        /* \"#utility.yul\":4085:4112   */\n      tag_180\n        /* \"#utility.yul\":4107:4111   */\n      dup3\n        /* \"#utility.yul\":4085:4112   */\n      tag_97\n      jump\t// in\n    tag_180:\n        /* \"#utility.yul\":4077:4083   */\n      dup2\n        /* \"#utility.yul\":4073:4113   */\n      add\n        /* \"#utility.yul\":4215:4221   */\n      dup2\n        /* \"#utility.yul\":4203:4213   */\n      dup2\n        /* \"#utility.yul\":4200:4222   */\n      lt\n        /* \"#utility.yul\":4179:4197   */\n      0xffffffffffffffff\n        /* \"#utility.yul\":4167:4177   */\n      dup3\n        /* \"#utility.yul\":4164:4198   */\n      gt\n        /* \"#utility.yul\":4161:4223   */\n      or\n        /* \"#utility.yul\":4158:4246   */\n      iszero\n      tag_181\n      jumpi\n        /* \"#utility.yul\":4226:4244   */\n      tag_182\n      tag_103\n      jump\t// in\n    tag_182:\n        /* \"#utility.yul\":4158:4246   */\n    tag_181:\n        /* \"#utility.yul\":4266:4276   */\n      dup1\n        /* \"#utility.yul\":4262:4264   */\n      0x40\n        /* \"#utility.yul\":4255:4277   */\n      mstore\n        /* \"#utility.yul\":4045:4283   */\n      pop\n        /* \"#utility.yul\":4002:4283   */\n      pop\n      pop\n      jump\t// out\n        /* \"#utility.yul\":4289:4418   */\n    tag_105:\n        /* \"#utility.yul\":4323:4329   */\n      0x00\n        /* \"#utility.yul\":4350:4370   */\n      tag_184\n      tag_84\n      jump\t// in\n    tag_184:\n        /* \"#utility.yul\":4340:4370   */\n      swap1\n      pop\n        /* \"#utility.yul\":4379:4412   */\n      tag_185\n        /* \"#utility.yul\":4407:4411   */\n      dup3\n        /* \"#utility.yul\":4399:4405   */\n      dup3\n        /* \"#utility.yul\":4379:4412   */\n      tag_104\n      jump\t// in\n    tag_185:\n        /* \"#utility.yul\":4289:4418   */\n      swap2\n      swap1\n      pop\n      jump\t// out\n        /* \"#utility.yul\":4424:4732   */\n    tag_106:\n        /* \"#utility.yul\":4486:4490   */\n      0x00\n        /* \"#utility.yul\":4576:4594   */\n      0xffffffffffffffff\n        /* \"#utility.yul\":4568:4574   */\n      dup3\n        /* \"#utility.yul\":4565:4595   */\n      gt\n        /* \"#utility.yul\":4562:4618   */\n      iszero\n      tag_187\n      jumpi\n        /* \"#utility.yul\":4598:4616   */\n      tag_188\n      tag_103\n      jump\t// in\n    tag_188:\n        /* \"#utility.yul\":4562:4618   */\n    tag_187:\n        /* \"#utility.yul\":4636:4665   */\n      tag_189\n        /* \"#utility.yul\":4658:4664   */\n      dup3\n        /* \"#utility.yul\":4636:4665   */\n      tag_97\n      jump\t// in\n    tag_189:\n        /* \"#utility.yul\":4628:4665   */\n      swap1\n      pop\n        /* \"#utility.yul\":4720:4724   */\n      0x20\n        /* \"#utility.yul\":4714:4718   */\n      dup2\n        /* \"#utility.yul\":4710:4725   */\n      add\n        /* \"#utility.yul\":4702:4725   */\n      swap1\n      pop\n        /* \"#utility.yul\":4424:4732   */\n      swap2\n      swap1\n      pop\n      jump\t// out\n        /* \"#utility.yul\":4738:4886   */\n    tag_107:\n        /* \"#utility.yul\":4836:4842   */\n      dup3\n        /* \"#utility.yul\":4831:4834   */\n      dup2\n        /* \"#utility.yul\":4826:4829   */\n      dup4\n        /* \"#utility.yul\":4813:4843   */\n      calldatacopy\n        /* \"#utility.yul\":4877:4878   */\n      0x00\n        /* \"#utility.yul\":4868:4874   */\n      dup4\n        /* \"#utility.yul\":4863:4866   */\n      dup4\n        /* \"#utility.yul\":4859:4875   */\n      add\n        /* \"#utility.yul\":4852:4879   */\n      mstore\n        /* \"#utility.yul\":4738:4886   */\n      pop\n      pop\n      pop\n      jump\t// out\n        /* \"#utility.yul\":4892:5317   */\n    tag_108:\n        /* \"#utility.yul\":4970:4975   */\n      0x00\n        /* \"#utility.yul\":4995:5061   */\n      tag_192\n        /* \"#utility.yul\":5011:5060   */\n      tag_193\n        /* \"#utility.yul\":5053:5059   */\n      dup5\n        /* \"#utility.yul\":5011:5060   */\n      tag_106\n      jump\t// in\n    tag_193:\n        /* \"#utility.yul\":4995:5061   */\n      tag_105\n      jump\t// in\n    tag_192:\n        /* \"#utility.yul\":4986:5061   */\n      swap1\n      pop\n        /* \"#utility.yul\":5084:5090   */\n      dup3\n        /* \"#utility.yul\":5077:5082   */\n      dup2\n        /* \"#utility.yul\":5070:5091   */\n      mstore\n        /* \"#utility.yul\":5122:5126   */\n      0x20\n        /* \"#utility.yul\":5115:5120   */\n      dup2\n        /* \"#utility.yul\":5111:5127   */\n      add\n        /* \"#utility.yul\":5160:5163   */\n      dup5\n        /* \"#utility.yul\":5151:5157   */\n      dup5\n        /* \"#utility.yul\":5146:5149   */\n      dup5\n        /* \"#utility.yul\":5142:5158   */\n      add\n        /* \"#utility.yul\":5139:5164   */\n      gt\n        /* \"#utility.yul\":5136:5248   */\n      iszero\n      tag_194\n      jumpi\n        /* \"#utility.yul\":5167:5246   */\n      tag_195\n      tag_102\n      jump\t// in\n    tag_195:\n        /* \"#utility.yul\":5136:5248   */\n    tag_194:\n        /* \"#utility.yul\":5257:5311   */\n      tag_196\n        /* \"#utility.yul\":5304:5310   */\n      dup5\n        /* \"#utility.yul\":5299:5302   */\n      dup3\n        /* \"#utility.yul\":5294:5297   */\n      dup6\n        /* \"#utility.yul\":5257:5311   */\n      tag_107\n      jump\t// in\n    tag_196:\n        /* \"#utility.yul\":4976:5317   */\n      pop\n        /* \"#utility.yul\":4892:5317   */\n      swap4\n      swap3\n      pop\n      pop\n      pop\n      jump\t// out\n        /* \"#utility.yul\":5337:5677   */\n    tag_109:\n        /* \"#utility.yul\":5393:5398   */\n      0x00\n        /* \"#utility.yul\":5442:5445   */\n      dup3\n        /* \"#utility.yul\":5435:5439   */\n      0x1f\n        /* \"#utility.yul\":5427:5433   */\n      dup4\n        /* \"#utility.yul\":5423:5440   */\n      add\n        /* \"#utility.yul\":5419:5446   */\n      slt\n        /* \"#utility.yul\":5409:5531   */\n      tag_198\n      jumpi\n        /* \"#utility.yul\":5450:5529   */\n      tag_199\n      tag_101\n      jump\t// in\n    tag_199:\n        /* \"#utility.yul\":5409:5531   */\n    tag_198:\n        /* \"#utility.yul\":5567:5573   */\n      dup2\n        /* \"#utility.yul\":5554:5574   */\n      calldataload\n        /* \"#utility.yul\":5592:5671   */\n      tag_200\n        /* \"#utility.yul\":5667:5670   */\n      dup5\n        /* \"#utility.yul\":5659:5665   */\n      dup3\n        /* \"#utility.yul\":5652:5656   */\n      0x20\n        /* \"#utility.yul\":5644:5650   */\n      dup7\n        /* \"#utility.yul\":5640:5657   */\n      add\n        /* \"#utility.yul\":5592:5671   */\n      tag_108\n      jump\t// in\n    tag_200:\n        /* \"#utility.yul\":5583:5671   */\n      swap2\n      pop\n        /* \"#utility.yul\":5399:5677   */\n      pop\n        /* \"#utility.yul\":5337:5677   */\n      swap3\n      swap2\n      pop\n      pop\n      jump\t// out\n        /* \"#utility.yul\":5683:6192   */\n    tag_26:\n        /* \"#utility.yul\":5752:5758   */\n      0x00\n        /* \"#utility.yul\":5801:5803   */\n      0x20\n        /* \"#utility.yul\":5789:5798   */\n      dup3\n        /* \"#utility.yul\":5780:5787   */\n      dup5\n        /* \"#utility.yul\":5776:5799   */\n      sub\n        /* \"#utility.yul\":5772:5804   */\n      slt\n        /* \"#utility.yul\":5769:5888   */\n      iszero\n      tag_202\n      jumpi\n        /* \"#utility.yul\":5807:5886   */\n      tag_203\n      tag_85\n      jump\t// in\n    tag_203:\n        /* \"#utility.yul\":5769:5888   */\n    tag_202:\n        /* \"#utility.yul\":5955:5956   */\n      0x00\n        /* \"#utility.yul\":5944:5953   */\n      dup3\n        /* \"#utility.yul\":5940:5957   */\n      add\n        /* \"#utility.yul\":5927:5958   */\n      calldataload\n        /* \"#utility.yul\":5985:6003   */\n      0xffffffffffffffff\n        /* \"#utility.yul\":5977:5983   */\n      dup2\n        /* \"#utility.yul\":5974:6004   */\n      gt\n        /* \"#utility.yul\":5971:6088   */\n      iszero\n      tag_204\n      jumpi\n        /* \"#utility.yul\":6007:6086   */\n      tag_205\n      tag_86\n      jump\t// in\n    tag_205:\n        /* \"#utility.yul\":5971:6088   */\n    tag_204:\n        /* \"#utility.yul\":6112:6175   */\n      tag_206\n        /* \"#utility.yul\":6167:6174   */\n      dup5\n        /* \"#utility.yul\":6158:6164   */\n      dup3\n        /* \"#utility.yul\":6147:6156   */\n      dup6\n        /* \"#utility.yul\":6143:6165   */\n      add\n        /* \"#utility.yul\":6112:6175   */\n      tag_109\n      jump\t// in\n    tag_206:\n        /* \"#utility.yul\":6102:6175   */\n      swap2\n      pop\n        /* \"#utility.yul\":5898:6185   */\n      pop\n        /* \"#utility.yul\":5683:6192   */\n      swap3\n      swap2\n      pop\n      pop\n      jump\t// out\n        /* \"#utility.yul\":6198:6420   */\n    tag_32:\n        /* \"#utility.yul\":6291:6295   */\n      0x00\n        /* \"#utility.yul\":6329:6331   */\n      0x20\n        /* \"#utility.yul\":6318:6327   */\n      dup3\n        /* \"#utility.yul\":6314:6332   */\n      add\n        /* \"#utility.yul\":6306:6332   */\n      swap1\n      pop\n        /* \"#utility.yul\":6342:6413   */\n      tag_208\n        /* \"#utility.yul\":6410:6411   */\n      0x00\n        /* \"#utility.yul\":6399:6408   */\n      dup4\n        /* \"#utility.yul\":6395:6412   */\n      add\n        /* \"#utility.yul\":6386:6392   */\n      dup5\n        /* \"#utility.yul\":6342:6413   */\n      tag_100\n      jump\t// in\n    tag_208:\n        /* \"#utility.yul\":6198:6420   */\n      swap3\n      swap2\n      pop\n      pop\n      jump\t// out\n        /* \"#utility.yul\":6426:6657   */\n    tag_110:\n        /* \"#utility.yul\":6566:6600   */\n      0x5769746864726177616c20616d6f756e74206578636565647320746865206d61\n        /* \"#utility.yul\":6562:6563   */\n      0x00\n        /* \"#utility.yul\":6554:6560   */\n      dup3\n        /* \"#utility.yul\":6550:6564   */\n      add\n        /* \"#utility.yul\":6543:6601   */\n      mstore\n        /* \"#utility.yul\":6635:6649   */\n      0x78696d756d206c696d69742e0000000000000000000000000000000000000000\n        /* \"#utility.yul\":6630:6632   */\n      0x20\n        /* \"#utility.yul\":6622:6628   */\n      dup3\n        /* \"#utility.yul\":6618:6633   */\n      add\n        /* \"#utility.yul\":6611:6650   */\n      mstore\n        /* \"#utility.yul\":6426:6657   */\n      pop\n      jump\t// out\n        /* \"#utility.yul\":6663:7029   */\n    tag_111:\n        /* \"#utility.yul\":6805:6808   */\n      0x00\n        /* \"#utility.yul\":6826:6893   */\n      tag_211\n        /* \"#utility.yul\":6890:6892   */\n      0x2c\n        /* \"#utility.yul\":6885:6888   */\n      dup4\n        /* \"#utility.yul\":6826:6893   */\n      tag_95\n      jump\t// in\n    tag_211:\n        /* \"#utility.yul\":6819:6893   */\n      swap2\n      pop\n        /* \"#utility.yul\":6902:6995   */\n      tag_212\n        /* \"#utility.yul\":6991:6994   */\n      dup3\n        /* \"#utility.yul\":6902:6995   */\n      tag_110\n      jump\t// in\n    tag_212:\n        /* \"#utility.yul\":7020:7022   */\n      0x40\n        /* \"#utility.yul\":7015:7018   */\n      dup3\n        /* \"#utility.yul\":7011:7023   */\n      add\n        /* \"#utility.yul\":7004:7023   */\n      swap1\n      pop\n        /* \"#utility.yul\":6663:7029   */\n      swap2\n      swap1\n      pop\n      jump\t// out\n        /* \"#utility.yul\":7035:7454   */\n    tag_51:\n        /* \"#utility.yul\":7201:7205   */\n      0x00\n        /* \"#utility.yul\":7239:7241   */\n      0x20\n        /* \"#utility.yul\":7228:7237   */\n      dup3\n        /* \"#utility.yul\":7224:7242   */\n      add\n        /* \"#utility.yul\":7216:7242   */\n      swap1\n      pop\n        /* \"#utility.yul\":7288:7297   */\n      dup2\n        /* \"#utility.yul\":7282:7286   */\n      dup2\n        /* \"#utility.yul\":7278:7298   */\n      sub\n        /* \"#utility.yul\":7274:7275   */\n      0x00\n        /* \"#utility.yul\":7263:7272   */\n      dup4\n        /* \"#utility.yul\":7259:7276   */\n      add\n        /* \"#utility.yul\":7252:7299   */\n      mstore\n        /* \"#utility.yul\":7316:7447   */\n      tag_214\n        /* \"#utility.yul\":7442:7446   */\n      dup2\n        /* \"#utility.yul\":7316:7447   */\n      tag_111\n      jump\t// in\n    tag_214:\n        /* \"#utility.yul\":7308:7447   */\n      swap1\n      pop\n        /* \"#utility.yul\":7035:7454   */\n      swap2\n      swap1\n      pop\n      jump\t// out\n        /* \"#utility.yul\":7460:7631   */\n    tag_112:\n        /* \"#utility.yul\":7600:7623   */\n      0x496e73756666696369656e742062616c616e63652e0000000000000000000000\n        /* \"#utility.yul\":7596:7597   */\n      0x00\n        /* \"#utility.yul\":7588:7594   */\n      dup3\n        /* \"#utility.yul\":7584:7598   */\n      add\n        /* \"#utility.yul\":7577:7624   */\n      mstore\n        /* \"#utility.yul\":7460:7631   */\n      pop\n      jump\t// out\n        /* \"#utility.yul\":7637:8003   */\n    tag_113:\n        /* \"#utility.yul\":7779:7782   */\n      0x00\n        /* \"#utility.yul\":7800:7867   */\n      tag_217\n        /* \"#utility.yul\":7864:7866   */\n      0x15\n        /* \"#utility.yul\":7859:7862   */\n      dup4\n        /* \"#utility.yul\":7800:7867   */\n      tag_95\n      jump\t// in\n    tag_217:\n        /* \"#utility.yul\":7793:7867   */\n      swap2\n      pop\n        /* \"#utility.yul\":7876:7969   */\n      tag_218\n        /* \"#utility.yul\":7965:7968   */\n      dup3\n        /* \"#utility.yul\":7876:7969   */\n      tag_112\n      jump\t// in\n    tag_218:\n        /* \"#utility.yul\":7994:7996   */\n      0x20\n        /* \"#utility.yul\":7989:7992   */\n      dup3\n        /* \"#utility.yul\":7985:7997   */\n      add\n        /* \"#utility.yul\":7978:7997   */\n      swap1\n      pop\n        /* \"#utility.yul\":7637:8003   */\n      swap2\n      swap1\n      pop\n      jump\t// out\n        /* \"#utility.yul\":8009:8428   */\n    tag_54:\n        /* \"#utility.yul\":8175:8179   */\n      0x00\n        /* \"#utility.yul\":8213:8215   */\n      0x20\n        /* \"#utility.yul\":8202:8211   */\n      dup3\n        /* \"#utility.yul\":8198:8216   */\n      add\n        /* \"#utility.yul\":8190:8216   */\n      swap1\n      pop\n        /* \"#utility.yul\":8262:8271   */\n      dup2\n        /* \"#utility.yul\":8256:8260   */\n      dup2\n        /* \"#utility.yul\":8252:8272   */\n      sub\n        /* \"#utility.yul\":8248:8249   */\n      0x00\n        /* \"#utility.yul\":8237:8246   */\n      dup4\n        /* \"#utility.yul\":8233:8250   */\n      add\n        /* \"#utility.yul\":8226:8273   */\n      mstore\n        /* \"#utility.yul\":8290:8421   */\n      tag_220\n        /* \"#utility.yul\":8416:8420   */\n      dup2\n        /* \"#utility.yul\":8290:8421   */\n      tag_113\n      jump\t// in\n    tag_220:\n        /* \"#utility.yul\":8282:8421   */\n      swap1\n      pop\n        /* \"#utility.yul\":8009:8428   */\n      swap2\n      swap1\n      pop\n      jump\t// out\n        /* \"#utility.yul\":8434:8614   */\n    tag_114:\n        /* \"#utility.yul\":8482:8559   */\n      0x4e487b7100000000000000000000000000000000000000000000000000000000\n        /* \"#utility.yul\":8479:8480   */\n      0x00\n        /* \"#utility.yul\":8472:8560   */\n      mstore\n        /* \"#utility.yul\":8579:8583   */\n      0x11\n        /* \"#utility.yul\":8576:8577   */\n      0x04\n        /* \"#utility.yul\":8569:8584   */\n      mstore\n        /* \"#utility.yul\":8603:8607   */\n      0x24\n        /* \"#utility.yul\":8600:8601   */\n      0x00\n        /* \"#utility.yul\":8593:8608   */\n      revert\n        /* \"#utility.yul\":8620:8814   */\n    tag_56:\n        /* \"#utility.yul\":8660:8664   */\n      0x00\n        /* \"#utility.yul\":8680:8700   */\n      tag_223\n        /* \"#utility.yul\":8698:8699   */\n      dup3\n        /* \"#utility.yul\":8680:8700   */\n      tag_87\n      jump\t// in\n    tag_223:\n        /* \"#utility.yul\":8675:8700   */\n      swap2\n      pop\n        /* \"#utility.yul\":8714:8734   */\n      tag_224\n        /* \"#utility.yul\":8732:8733   */\n      dup4\n        /* \"#utility.yul\":8714:8734   */\n      tag_87\n      jump\t// in\n    tag_224:\n        /* \"#utility.yul\":8709:8734   */\n      swap3\n      pop\n        /* \"#utility.yul\":8758:8759   */\n      dup3\n        /* \"#utility.yul\":8755:8756   */\n      dup3\n        /* \"#utility.yul\":8751:8760   */\n      sub\n        /* \"#utility.yul\":8743:8760   */\n      swap1\n      pop\n        /* \"#utility.yul\":8782:8783   */\n      dup2\n        /* \"#utility.yul\":8776:8780   */\n      dup2\n        /* \"#utility.yul\":8773:8784   */\n      gt\n        /* \"#utility.yul\":8770:8807   */\n      iszero\n      tag_225\n      jumpi\n        /* \"#utility.yul\":8787:8805   */\n      tag_226\n      tag_114\n      jump\t// in\n    tag_226:\n        /* \"#utility.yul\":8770:8807   */\n    tag_225:\n        /* \"#utility.yul\":8620:8814   */\n      swap3\n      swap2\n      pop\n      pop\n      jump\t// out\n        /* \"#utility.yul\":8820:9000   */\n    tag_115:\n        /* \"#utility.yul\":8868:8945   */\n      0x4e487b7100000000000000000000000000000000000000000000000000000000\n        /* \"#utility.yul\":8865:8866   */\n      0x00\n        /* \"#utility.yul\":8858:8946   */\n      mstore\n        /* \"#utility.yul\":8965:8969   */\n      0x22\n        /* \"#utility.yul\":8962:8963   */\n      0x04\n        /* \"#utility.yul\":8955:8970   */\n      mstore\n        /* \"#utility.yul\":8989:8993   */\n      0x24\n        /* \"#utility.yul\":8986:8987   */\n      0x00\n        /* \"#utility.yul\":8979:8994   */\n      revert\n        /* \"#utility.yul\":9006:9326   */\n    tag_60:\n        /* \"#utility.yul\":9050:9056   */\n      0x00\n        /* \"#utility.yul\":9087:9088   */\n      0x02\n        /* \"#utility.yul\":9081:9085   */\n      dup3\n        /* \"#utility.yul\":9077:9089   */\n      div\n        /* \"#utility.yul\":9067:9089   */\n      swap1\n      pop\n        /* \"#utility.yul\":9134:9135   */\n      0x01\n        /* \"#utility.yul\":9128:9132   */\n      dup3\n        /* \"#utility.yul\":9124:9136   */\n      and\n        /* \"#utility.yul\":9155:9173   */\n      dup1\n        /* \"#utility.yul\":9145:9226   */\n      tag_229\n      jumpi\n        /* \"#utility.yul\":9211:9215   */\n      0x7f\n        /* \"#utility.yul\":9203:9209   */\n      dup3\n        /* \"#utility.yul\":9199:9216   */\n      and\n        /* \"#utility.yul\":9189:9216   */\n      swap2\n      pop\n        /* \"#utility.yul\":9145:9226   */\n    tag_229:\n        /* \"#utility.yul\":9273:9275   */\n      0x20\n        /* \"#utility.yul\":9265:9271   */\n      dup3\n        /* \"#utility.yul\":9262:9276   */\n      lt\n        /* \"#utility.yul\":9242:9260   */\n      dup2\n        /* \"#utility.yul\":9239:9277   */\n      sub\n        /* \"#utility.yul\":9236:9320   */\n      tag_230\n      jumpi\n        /* \"#utility.yul\":9292:9310   */\n      tag_231\n      tag_115\n      jump\t// in\n    tag_231:\n        /* \"#utility.yul\":9236:9320   */\n    tag_230:\n        /* \"#utility.yul\":9057:9326   */\n      pop\n        /* \"#utility.yul\":9006:9326   */\n      swap2\n      swap1\n      pop\n      jump\t// out\n        /* \"#utility.yul\":9332:9473   */\n    tag_116:\n        /* \"#utility.yul\":9381:9385   */\n      0x00\n        /* \"#utility.yul\":9404:9407   */\n      dup2\n        /* \"#utility.yul\":9396:9407   */\n      swap1\n      pop\n        /* \"#utility.yul\":9427:9430   */\n      dup2\n        /* \"#utility.yul\":9424:9425   */\n      0x00\n        /* \"#utility.yul\":9417:9431   */\n      mstore\n        /* \"#utility.yul\":9461:9465   */\n      0x20\n        /* \"#utility.yul\":9458:9459   */\n      0x00\n        /* \"#utility.yul\":9448:9466   */\n      keccak256\n        /* \"#utility.yul\":9440:9466   */\n      swap1\n      pop\n        /* \"#utility.yul\":9332:9473   */\n      swap2\n      swap1\n      pop\n      jump\t// out\n        /* \"#utility.yul\":9479:9572   */\n    tag_117:\n        /* \"#utility.yul\":9516:9522   */\n      0x00\n        /* \"#utility.yul\":9563:9565   */\n      0x20\n        /* \"#utility.yul\":9558:9560   */\n      0x1f\n        /* \"#utility.yul\":9551:9556   */\n      dup4\n        /* \"#utility.yul\":9547:9561   */\n      add\n        /* \"#utility.yul\":9543:9566   */\n      div\n        /* \"#utility.yul\":9533:9566   */\n      swap1\n      pop\n        /* \"#utility.yul\":9479:9572   */\n      swap2\n      swap1\n      pop\n      jump\t// out\n        /* \"#utility.yul\":9578:9685   */\n    tag_118:\n        /* \"#utility.yul\":9622:9630   */\n      0x00\n        /* \"#utility.yul\":9672:9677   */\n      dup3\n        /* \"#utility.yul\":9666:9670   */\n      dup3\n        /* \"#utility.yul\":9662:9678   */\n      shl\n        /* \"#utility.yul\":9641:9678   */\n      swap1\n      pop\n        /* \"#utility.yul\":9578:9685   */\n      swap3\n      swap2\n      pop\n      pop\n      jump\t// out\n        /* \"#utility.yul\":9691:10084   */\n    tag_119:\n        /* \"#utility.yul\":9760:9766   */\n      0x00\n        /* \"#utility.yul\":9810:9811   */\n      0x08\n        /* \"#utility.yul\":9798:9808   */\n      dup4\n        /* \"#utility.yul\":9794:9812   */\n      mul\n        /* \"#utility.yul\":9833:9930   */\n      tag_236\n        /* \"#utility.yul\":9863:9929   */\n      0xffffffffffffffffffffffffffffffffffffffffffffffffffffffffffffffff\n        /* \"#utility.yul\":9852:9861   */\n      dup3\n        /* \"#utility.yul\":9833:9930   */\n      tag_118\n      jump\t// in\n    tag_236:\n        /* \"#utility.yul\":9951:9990   */\n      tag_237\n        /* \"#utility.yul\":9981:9989   */\n      dup7\n        /* \"#utility.yul\":9970:9979   */\n      dup4\n        /* \"#utility.yul\":9951:9990   */\n      tag_118\n      jump\t// in\n    tag_237:\n        /* \"#utility.yul\":9939:9990   */\n      swap6\n      pop\n        /* \"#utility.yul\":10023:10027   */\n      dup1\n        /* \"#utility.yul\":10019:10028   */\n      not\n        /* \"#utility.yul\":10012:10017   */\n      dup5\n        /* \"#utility.yul\":10008:10029   */\n      and\n        /* \"#utility.yul\":9999:10029   */\n      swap4\n      pop\n        /* \"#utility.yul\":10072:10076   */\n      dup1\n        /* \"#utility.yul\":10062:10070   */\n      dup7\n        /* \"#utility.yul\":10058:10077   */\n      and\n        /* \"#utility.yul\":10051:10056   */\n      dup5\n        /* \"#utility.yul\":10048:10078   */\n      or\n        /* \"#utility.yul\":10038:10078   */\n      swap3\n      pop\n        /* \"#utility.yul\":9767:10084   */\n      pop\n      pop\n        /* \"#utility.yul\":9691:10084   */\n      swap4\n      swap3\n      pop\n      pop\n      pop\n      jump\t// out\n        /* \"#utility.yul\":10090:10150   */\n    tag_120:\n        /* \"#utility.yul\":10118:10121   */\n      0x00\n        /* \"#utility.yul\":10139:10144   */\n      dup2\n        /* \"#utility.yul\":10132:10144   */\n      swap1\n      pop\n        /* \"#utility.yul\":10090:10150   */\n      swap2\n      swap1\n      pop\n      jump\t// out\n        /* \"#utility.yul\":10156:10298   */\n    tag_121:\n        /* \"#utility.yul\":10206:10215   */\n      0x00\n        /* \"#utility.yul\":10239:10292   */\n      tag_240\n        /* \"#utility.yul\":10257:10291   */\n      tag_241\n        /* \"#utility.yul\":10266:10290   */\n      tag_242\n        /* \"#utility.yul\":10284:10289   */\n      dup5\n        /* \"#utility.yul\":10266:10290   */\n      tag_87\n      jump\t// in\n    tag_242:\n        /* \"#utility.yul\":10257:10291   */\n      tag_120\n      jump\t// in\n    tag_241:\n        /* \"#utility.yul\":10239:10292   */\n      tag_87\n      jump\t// in\n    tag_240:\n        /* \"#utility.yul\":10226:10292   */\n      swap1\n      pop\n        /* \"#utility.yul\":10156:10298   */\n      swap2\n      swap1\n      pop\n      jump\t// out\n        /* \"#utility.yul\":10304:10379   */\n    tag_122:\n        /* \"#utility.yul\":10347:10350   */\n      0x00\n        /* \"#utility.yul\":10368:10373   */\n      dup2\n        /* \"#utility.yul\":10361:10373   */\n      swap1\n      pop\n        /* \"#utility.yul\":10304:10379   */\n      swap2\n      swap1\n      pop\n      jump\t// out\n        /* \"#utility.yul\":10385:10654   */\n    tag_123:\n        /* \"#utility.yul\":10495:10534   */\n      tag_245\n        /* \"#utility.yul\":10526:10533   */\n      dup4\n        /* \"#utility.yul\":10495:10534   */\n      tag_121\n      jump\t// in\n    tag_245:\n        /* \"#utility.yul\":10556:10647   */\n      tag_246\n        /* \"#utility.yul\":10605:10646   */\n      tag_247\n        /* \"#utility.yul\":10629:10645   */\n      dup3\n        /* \"#utility.yul\":10605:10646   */\n      tag_122\n      jump\t// in\n    tag_247:\n        /* \"#utility.yul\":10597:10603   */\n      dup5\n        /* \"#utility.yul\":10590:10594   */\n      dup5\n        /* \"#utility.yul\":10584:10595   */\n      sload\n        /* \"#utility.yul\":10556:10647   */\n      tag_119\n      jump\t// in\n    tag_246:\n        /* \"#utility.yul\":10550:10554   */\n      dup3\n        /* \"#utility.yul\":10543:10648   */\n      sstore\n        /* \"#utility.yul\":10461:10654   */\n      pop\n        /* \"#utility.yul\":10385:10654   */\n      pop\n      pop\n      pop\n      jump\t// out\n        /* \"#utility.yul\":10660:10733   */\n    tag_124:\n        /* \"#utility.yul\":10705:10708   */\n      0x00\n        /* \"#utility.yul\":10660:10733   */\n      swap1\n      jump\t// out\n        /* \"#utility.yul\":10739:10928   */\n    tag_125:\n        /* \"#utility.yul\":10816:10848   */\n      tag_250\n      tag_124\n      jump\t// in\n    tag_250:\n        /* \"#utility.yul\":10857:10922   */\n      tag_251\n        /* \"#utility.yul\":10915:10921   */\n      dup2\n        /* \"#utility.yul\":10907:10913   */\n      dup5\n        /* \"#utility.yul\":10901:10905   */\n      dup5\n        /* \"#utility.yul\":10857:10922   */\n      tag_123\n      jump\t// in\n    tag_251:\n        /* \"#utility.yul\":10792:10928   */\n      pop\n        /* \"#utility.yul\":10739:10928   */\n      pop\n      pop\n      jump\t// out\n        /* \"#utility.yul\":10934:11120   */\n    tag_126:\n        /* \"#utility.yul\":10994:11114   */\n    tag_253:\n        /* \"#utility.yul\":11011:11014   */\n      dup2\n        /* \"#utility.yul\":11004:11009   */\n      dup2\n        /* \"#utility.yul\":11001:11015   */\n      lt\n        /* \"#utility.yul\":10994:11114   */\n      iszero\n      tag_255\n      jumpi\n        /* \"#utility.yul\":11065:11104   */\n      tag_256\n        /* \"#utility.yul\":11102:11103   */\n      0x00\n        /* \"#utility.yul\":11095:11100   */\n      dup3\n        /* \"#utility.yul\":11065:11104   */\n      tag_125\n      jump\t// in\n    tag_256:\n        /* \"#utility.yul\":11038:11039   */\n      0x01\n        /* \"#utility.yul\":11031:11036   */\n      dup2\n        /* \"#utility.yul\":11027:11040   */\n      add\n        /* \"#utility.yul\":11018:11040   */\n      swap1\n      pop\n        /* \"#utility.yul\":10994:11114   */\n      jump(tag_253)\n    tag_255:\n        /* \"#utility.yul\":10934:11120   */\n      pop\n      pop\n      jump\t// out\n        /* \"#utility.yul\":11126:11669   */\n    tag_127:\n        /* \"#utility.yul\":11227:11229   */\n      0x1f\n        /* \"#utility.yul\":11222:11225   */\n      dup3\n        /* \"#utility.yul\":11219:11230   */\n      gt\n        /* \"#utility.yul\":11216:11662   */\n      iszero\n      tag_258\n      jumpi\n        /* \"#utility.yul\":11261:11299   */\n      tag_259\n        /* \"#utility.yul\":11293:11298   */\n      dup2\n        /* \"#utility.yul\":11261:11299   */\n      tag_116\n      jump\t// in\n    tag_259:\n        /* \"#utility.yul\":11345:11374   */\n      tag_260\n        /* \"#utility.yul\":11363:11373   */\n      dup5\n        /* \"#utility.yul\":11345:11374   */\n      tag_117\n      jump\t// in\n    tag_260:\n        /* \"#utility.yul\":11335:11343   */\n      dup2\n        /* \"#utility.yul\":11331:11375   */\n      add\n        /* \"#utility.yul\":11528:11530   */\n      0x20\n        /* \"#utility.yul\":11516:11526   */\n      dup6\n        /* \"#utility.yul\":11513:11531   */\n      lt\n        /* \"#utility.yul\":11510:11559   */\n      iszero\n      tag_261\n      jumpi\n        /* \"#utility.yul\":11549:11557   */\n      dup2\n        /* \"#utility.yul\":11534:11557   */\n      swap1\n      pop\n        /* \"#utility.yul\":11510:11559   */\n    tag_261:\n        /* \"#utility.yul\":11572:11652   */\n      tag_262\n        /* \"#utility.yul\":11628:11650   */\n      tag_263\n        /* \"#utility.yul\":11646:11649   */\n      dup6\n        /* \"#utility.yul\":11628:11650   */\n      tag_117\n      jump\t// in\n    tag_263:\n        /* \"#utility.yul\":11618:11626   */\n      dup4\n        /* \"#utility.yul\":11614:11651   */\n      add\n        /* \"#utility.yul\":11601:11612   */\n      dup3\n        /* \"#utility.yul\":11572:11652   */\n      tag_126\n      jump\t// in\n    tag_262:\n        /* \"#utility.yul\":11231:11662   */\n      pop\n      pop\n        /* \"#utility.yul\":11216:11662   */\n    tag_258:\n        /* \"#utility.yul\":11126:11669   */\n      pop\n      pop\n      pop\n      jump\t// out\n        /* \"#utility.yul\":11675:11792   */\n    tag_128:\n        /* \"#utility.yul\":11729:11737   */\n      0x00\n        /* \"#utility.yul\":11779:11784   */\n      dup3\n        /* \"#utility.yul\":11773:11777   */\n      dup3\n        /* \"#utility.yul\":11769:11785   */\n      shr\n        /* \"#utility.yul\":11748:11785   */\n      swap1\n      pop\n        /* \"#utility.yul\":11675:11792   */\n      swap3\n      swap2\n      pop\n      pop\n      jump\t// out\n        /* \"#utility.yul\":11798:11967   */\n    tag_129:\n        /* \"#utility.yul\":11842:11848   */\n      0x00\n        /* \"#utility.yul\":11875:11926   */\n      tag_266\n        /* \"#utility.yul\":11923:11924   */\n      0x00\n        /* \"#utility.yul\":11919:11925   */\n      not\n        /* \"#utility.yul\":11911:11916   */\n      dup5\n        /* \"#utility.yul\":11908:11909   */\n      0x08\n        /* \"#utility.yul\":11904:11917   */\n      mul\n        /* \"#utility.yul\":11875:11926   */\n      tag_128\n      jump\t// in\n    tag_266:\n        /* \"#utility.yul\":11871:11927   */\n      not\n        /* \"#utility.yul\":11956:11960   */\n      dup1\n        /* \"#utility.yul\":11950:11954   */\n      dup4\n        /* \"#utility.yul\":11946:11961   */\n      and\n        /* \"#utility.yul\":11936:11961   */\n      swap2\n      pop\n        /* \"#utility.yul\":11849:11967   */\n      pop\n        /* \"#utility.yul\":11798:11967   */\n      swap3\n      swap2\n      pop\n      pop\n      jump\t// out\n        /* \"#utility.yul\":11972:12267   */\n    tag_130:\n        /* \"#utility.yul\":12048:12052   */\n      0x00\n        /* \"#utility.yul\":12194:12223   */\n      tag_268\n        /* \"#utility.yul\":12219:12222   */\n      dup4\n        /* \"#utility.yul\":12213:12217   */\n      dup4\n        /* \"#utility.yul\":12194:12223   */\n      tag_129\n      jump\t// in\n    tag_268:\n        /* \"#utility.yul\":12186:12223   */\n      swap2\n      pop\n        /* \"#utility.yul\":12256:12259   */\n      dup3\n        /* \"#utility.yul\":12253:12254   */\n      0x02\n        /* \"#utility.yul\":12249:12260   */\n      mul\n        /* \"#utility.yul\":12243:12247   */\n      dup3\n        /* \"#utility.yul\":12240:12261   */\n      or\n        /* \"#utility.yul\":12232:12261   */\n      swap1\n      pop\n        /* \"#utility.yul\":11972:12267   */\n      swap3\n      swap2\n      pop\n      pop\n      jump\t// out\n        /* \"#utility.yul\":12272:13667   */\n    tag_67:\n        /* \"#utility.yul\":12389:12426   */\n      tag_270\n        /* \"#utility.yul\":12422:12425   */\n      dup3\n        /* \"#utility.yul\":12389:12426   */\n      tag_94\n      jump\t// in\n    tag_270:\n        /* \"#utility.yul\":12491:12509   */\n      0xffffffffffffffff\n        /* \"#utility.yul\":12483:12489   */\n      dup2\n        /* \"#utility.yul\":12480:12510   */\n      gt\n        /* \"#utility.yul\":12477:12533   */\n      iszero\n      tag_271\n      jumpi\n        /* \"#utility.yul\":12513:12531   */\n      tag_272\n      tag_103\n      jump\t// in\n    tag_272:\n        /* \"#utility.yul\":12477:12533   */\n    tag_271:\n        /* \"#utility.yul\":12557:12595   */\n      tag_273\n        /* \"#utility.yul\":12589:12593   */\n      dup3\n        /* \"#utility.yul\":12583:12594   */\n      sload\n        /* \"#utility.yul\":12557:12595   */\n      tag_60\n      jump\t// in\n    tag_273:\n        /* \"#utility.yul\":12642:12709   */\n      tag_274\n        /* \"#utility.yul\":12702:12708   */\n      dup3\n        /* \"#utility.yul\":12694:12700   */\n      dup3\n        /* \"#utility.yul\":12688:12692   */\n      dup6\n        /* \"#utility.yul\":12642:12709   */\n      tag_127\n      jump\t// in\n    tag_274:\n        /* \"#utility.yul\":12736:12737   */\n      0x00\n        /* \"#utility.yul\":12760:12764   */\n      0x20\n        /* \"#utility.yul\":12747:12764   */\n      swap1\n      pop\n        /* \"#utility.yul\":12792:12794   */\n      0x1f\n        /* \"#utility.yul\":12784:12790   */\n      dup4\n        /* \"#utility.yul\":12781:12795   */\n      gt\n        /* \"#utility.yul\":12809:12810   */\n      0x01\n        /* \"#utility.yul\":12804:13422   */\n      dup2\n      eq\n      tag_276\n      jumpi\n        /* \"#utility.yul\":13466:13467   */\n      0x00\n        /* \"#utility.yul\":13483:13489   */\n      dup5\n        /* \"#utility.yul\":13480:13557   */\n      iszero\n      tag_277\n      jumpi\n        /* \"#utility.yul\":13532:13541   */\n      dup3\n        /* \"#utility.yul\":13527:13530   */\n      dup8\n        /* \"#utility.yul\":13523:13542   */\n      add\n        /* \"#utility.yul\":13517:13543   */\n      mload\n        /* \"#utility.yul\":13508:13543   */\n      swap1\n      pop\n        /* \"#utility.yul\":13480:13557   */\n    tag_277:\n        /* \"#utility.yul\":13583:13650   */\n      tag_278\n        /* \"#utility.yul\":13643:13649   */\n      dup6\n        /* \"#utility.yul\":13636:13641   */\n      dup3\n        /* \"#utility.yul\":13583:13650   */\n      tag_130\n      jump\t// in\n    tag_278:\n        /* \"#utility.yul\":13577:13581   */\n      dup7\n        /* \"#utility.yul\":13570:13651   */\n      sstore\n        /* \"#utility.yul\":13439:13661   */\n      pop\n        /* \"#utility.yul\":12774:13661   */\n      jump(tag_275)\n        /* \"#utility.yul\":12804:13422   */\n    tag_276:\n        /* \"#utility.yul\":12856:12860   */\n      0x1f\n        /* \"#utility.yul\":12852:12861   */\n      not\n        /* \"#utility.yul\":12844:12850   */\n      dup5\n        /* \"#utility.yul\":12840:12862   */\n      and\n        /* \"#utility.yul\":12890:12927   */\n      tag_279\n        /* \"#utility.yul\":12922:12926   */\n      dup7\n        /* \"#utility.yul\":12890:12927   */\n      tag_116\n      jump\t// in\n    tag_279:\n        /* \"#utility.yul\":12949:12950   */\n      0x00\n        /* \"#utility.yul\":12963:13171   */\n    tag_280:\n        /* \"#utility.yul\":12977:12984   */\n      dup3\n        /* \"#utility.yul\":12974:12975   */\n      dup2\n        /* \"#utility.yul\":12971:12985   */\n      lt\n        /* \"#utility.yul\":12963:13171   */\n      iszero\n      tag_282\n      jumpi\n        /* \"#utility.yul\":13056:13065   */\n      dup5\n        /* \"#utility.yul\":13051:13054   */\n      dup10\n        /* \"#utility.yul\":13047:13066   */\n      add\n        /* \"#utility.yul\":13041:13067   */\n      mload\n        /* \"#utility.yul\":13033:13039   */\n      dup3\n        /* \"#utility.yul\":13026:13068   */\n      sstore\n        /* \"#utility.yul\":13107:13108   */\n      0x01\n        /* \"#utility.yul\":13099:13105   */\n      dup3\n        /* \"#utility.yul\":13095:13109   */\n      add\n        /* \"#utility.yul\":13085:13109   */\n      swap2\n      pop\n        /* \"#utility.yul\":13154:13156   */\n      0x20\n        /* \"#utility.yul\":13143:13152   */\n      dup6\n        /* \"#utility.yul\":13139:13157   */\n      add\n        /* \"#utility.yul\":13126:13157   */\n      swap5\n      pop\n        /* \"#utility.yul\":13000:13004   */\n      0x20\n        /* \"#utility.yul\":12997:12998   */\n      dup2\n        /* \"#utility.yul\":12993:13005   */\n      add\n        /* \"#utility.yul\":12988:13005   */\n      swap1\n      pop\n        /* \"#utility.yul\":12963:13171   */\n      jump(tag_280)\n    tag_282:\n        /* \"#utility.yul\":13199:13205   */\n      dup7\n        /* \"#utility.yul\":13190:13197   */\n      dup4\n        /* \"#utility.yul\":13187:13206   */\n      lt\n        /* \"#utility.yul\":13184:13363   */\n      iszero\n      tag_283\n      jumpi\n        /* \"#utility.yul\":13257:13266   */\n      dup5\n        /* \"#utility.yul\":13252:13255   */\n      dup10\n        /* \"#utility.yul\":13248:13267   */\n      add\n        /* \"#utility.yul\":13242:13268   */\n      mload\n        /* \"#utility.yul\":13300:13348   */\n      tag_284\n        /* \"#utility.yul\":13342:13346   */\n      0x1f\n        /* \"#utility.yul\":13334:13340   */\n      dup10\n        /* \"#utility.yul\":13330:13347   */\n      and\n        /* \"#utility.yul\":13319:13328   */\n      dup3\n        /* \"#utility.yul\":13300:13348   */\n      tag_129\n      jump\t// in\n    tag_284:\n        /* \"#utility.yul\":13292:13298   */\n      dup4\n        /* \"#utility.yul\":13285:13349   */\n      sstore\n        /* \"#utility.yul\":13207:13363   */\n      pop\n        /* \"#utility.yul\":13184:13363   */\n    tag_283:\n        /* \"#utility.yul\":13409:13410   */\n      0x01\n        /* \"#utility.yul\":13405:13406   */\n      0x02\n        /* \"#utility.yul\":13397:13403   */\n      dup9\n        /* \"#utility.yul\":13393:13407   */\n      mul\n        /* \"#utility.yul\":13389:13411   */\n      add\n        /* \"#utility.yul\":13383:13387   */\n      dup9\n        /* \"#utility.yul\":13376:13412   */\n      sstore\n        /* \"#utility.yul\":12811:13422   */\n      pop\n      pop\n      pop\n        /* \"#utility.yul\":12774:13661   */\n    tag_275:\n      pop\n        /* \"#utility.yul\":12364:13667   */\n      pop\n      pop\n      pop\n        /* \"#utility.yul\":12272:13667   */\n      pop\n      pop\n      jump\t// out\n        /* \"#utility.yul\":13673:13851   */\n    tag_131:\n        /* \"#utility.yul\":13813:13843   */\n      0x4465706f73697420616d6f756e7420697320746f6f20736d616c6c2e00000000\n        /* \"#utility.yul\":13809:13810   */\n      0x00\n        /* \"#utility.yul\":13801:13807   */\n      dup3\n        /* \"#utility.yul\":13797:13811   */\n      add\n        /* \"#utility.yul\":13790:13844   */\n      mstore\n        /* \"#utility.yul\":13673:13851   */\n      pop\n      jump\t// out\n        /* \"#utility.yul\":13857:14223   */\n    tag_132:\n        /* \"#utility.yul\":13999:14002   */\n      0x00\n        /* \"#utility.yul\":14020:14087   */\n      tag_287\n        /* \"#utility.yul\":14084:14086   */\n      0x1c\n        /* \"#utility.yul\":14079:14082   */\n      dup4\n        /* \"#utility.yul\":14020:14087   */\n      tag_95\n      jump\t// in\n    tag_287:\n        /* \"#utility.yul\":14013:14087   */\n      swap2\n      pop\n        /* \"#utility.yul\":14096:14189   */\n      tag_288\n        /* \"#utility.yul\":14185:14188   */\n      dup3\n        /* \"#utility.yul\":14096:14189   */\n      tag_131\n      jump\t// in\n    tag_288:\n        /* \"#utility.yul\":14214:14216   */\n      0x20\n        /* \"#utility.yul\":14209:14212   */\n      dup3\n        /* \"#utility.yul\":14205:14217   */\n      add\n        /* \"#utility.yul\":14198:14217   */\n      swap1\n      pop\n        /* \"#utility.yul\":13857:14223   */\n      swap2\n      swap1\n      pop\n      jump\t// out\n        /* \"#utility.yul\":14229:14648   */\n    tag_77:\n        /* \"#utility.yul\":14395:14399   */\n      0x00\n        /* \"#utility.yul\":14433:14435   */\n      0x20\n        /* \"#utility.yul\":14422:14431   */\n      dup3\n        /* \"#utility.yul\":14418:14436   */\n      add\n        /* \"#utility.yul\":14410:14436   */\n      swap1\n      pop\n        /* \"#utility.yul\":14482:14491   */\n      dup2\n        /* \"#utility.yul\":14476:14480   */\n      dup2\n        /* \"#utility.yul\":14472:14492   */\n      sub\n        /* \"#utility.yul\":14468:14469   */\n      0x00\n        /* \"#utility.yul\":14457:14466   */\n      dup4\n        /* \"#utility.yul\":14453:14470   */\n      add\n        /* \"#utility.yul\":14446:14493   */\n      mstore\n        /* \"#utility.yul\":14510:14641   */\n      tag_290\n        /* \"#utility.yul\":14636:14640   */\n      dup2\n        /* \"#utility.yul\":14510:14641   */\n      tag_132\n      jump\t// in\n    tag_290:\n        /* \"#utility.yul\":14502:14641   */\n      swap1\n      pop\n        /* \"#utility.yul\":14229:14648   */\n      swap2\n      swap1\n      pop\n      jump\t// out\n        /* \"#utility.yul\":14654:14845   */\n    tag_79:\n        /* \"#utility.yul\":14694:14697   */\n      0x00\n        /* \"#utility.yul\":14713:14733   */\n      tag_292\n        /* \"#utility.yul\":14731:14732   */\n      dup3\n        /* \"#utility.yul\":14713:14733   */\n      tag_87\n      jump\t// in\n    tag_292:\n        /* \"#utility.yul\":14708:14733   */\n      swap2\n      pop\n        /* \"#utility.yul\":14747:14767   */\n      tag_293\n        /* \"#utility.yul\":14765:14766   */\n      dup4\n        /* \"#utility.yul\":14747:14767   */\n      tag_87\n      jump\t// in\n    tag_293:\n        /* \"#utility.yul\":14742:14767   */\n      swap3\n      pop\n        /* \"#utility.yul\":14790:14791   */\n      dup3\n        /* \"#utility.yul\":14787:14788   */\n      dup3\n        /* \"#utility.yul\":14783:14792   */\n      add\n        /* \"#utility.yul\":14776:14792   */\n      swap1\n      pop\n        /* \"#utility.yul\":14811:14814   */\n      dup1\n        /* \"#utility.yul\":14808:14809   */\n      dup3\n        /* \"#utility.yul\":14805:14815   */\n      gt\n        /* \"#utility.yul\":14802:14838   */\n      iszero\n      tag_294\n      jumpi\n        /* \"#utility.yul\":14818:14836   */\n      tag_295\n      tag_114\n      jump\t// in\n    tag_295:\n        /* \"#utility.yul\":14802:14838   */\n    tag_294:\n        /* \"#utility.yul\":14654:14845   */\n      swap3\n      swap2\n      pop\n      pop\n      jump\t// out\n\n    auxdata: 0xa2646970667358221220611372cb3ac0d6cc58cbae0280525ae153c6d29d90a2788819bb0d16cd2a1fa564736f6c634300081a0033\n}\n",
				"bytecode": {
					"linkReferences": {},
					"object": "6080604052348015600e575f80fd5b50610fbe8061001c5f395ff3fe60806040526004361061007a575f3560e01c8063987ee1561161004d578063987ee15614610136578063abb721ce14610174578063b6b55f251461017e578063e1e158a5146101a65761007a565b80632e1a7d4d1461007e578063332d56d7146100a65780636401c30c146100e457806397ec642c1461010c575b5f80fd5b348015610089575f80fd5b506100a4600480360381019061009f91906107c8565b6101d0565b005b3480156100b1575f80fd5b506100cc60048036038101906100c7919061084d565b610339565b6040516100db93929190610906565b60405180910390f35b3480156100ef575f80fd5b5061010a60048036038101906101059190610a6e565b610403565b005b348015610117575f80fd5b506101206104cf565b60405161012d9190610ab5565b60405180910390f35b348015610141575f80fd5b5061015c6004803603810190610157919061084d565b6104db565b60405161016b93929190610906565b60405180910390f35b61017c610633565b005b348015610189575f80fd5b506101a4600480360381019061019f91906107c8565b6106d5565b005b3480156101b1575f80fd5b506101ba610778565b6040516101c79190610ab5565b60405180910390f35b674563918244f4000081111561021b576040517f08c379a000000000000000000000000000000000000000000000000000000000815260040161021290610b3e565b60405180910390fd5b805f803373ffffffffffffffffffffffffffffffffffffffff1673ffffffffffffffffffffffffffffffffffffffff1681526020019081526020015f2060020154101561029d576040517f08c379a000000000000000000000000000000000000000000000000000000000815260040161029490610ba6565b60405180910390fd5b805f803373ffffffffffffffffffffffffffffffffffffffff1673ffffffffffffffffffffffffffffffffffffffff1681526020019081526020015f206002015f8282546102eb9190610bf1565b925050819055503373ffffffffffffffffffffffffffffffffffffffff166108fc8290811502906040515f60405180830381858888f19350505050158015610335573d5f803e3d5ffd5b5050565b5f602052805f5260405f205f91509050805f01805461035790610c51565b80601f016020809104026020016040519081016040528092919081815260200182805461038390610c51565b80156103ce5780601f106103a5576101008083540402835291602001916103ce565b820191905f5260205f20905b8154815290600101906020018083116103b157829003601f168201915b505050505090806001015f9054906101000a900473ffffffffffffffffffffffffffffffffffffffff16908060020154905083565b805f803373ffffffffffffffffffffffffffffffffffffffff1673ffffffffffffffffffffffffffffffffffffffff1681526020019081526020015f205f01908161044e9190610e1e565b50335f803373ffffffffffffffffffffffffffffffffffffffff1673ffffffffffffffffffffffffffffffffffffffff1681526020019081526020015f206001015f6101000a81548173ffffffffffffffffffffffffffffffffffffffff021916908373ffffffffffffffffffffffffffffffffffffffff16021790555050565b674563918244f4000081565b60605f805f805f8673ffffffffffffffffffffffffffffffffffffffff1673ffffffffffffffffffffffffffffffffffffffff1681526020019081526020015f206040518060600160405290815f8201805461053690610c51565b80601f016020809104026020016040519081016040528092919081815260200182805461056290610c51565b80156105ad5780601f10610584576101008083540402835291602001916105ad565b820191905f5260205f20905b81548152906001019060200180831161059057829003601f168201915b50505050508152602001600182015f9054906101000a900473ffffffffffffffffffffffffffffffffffffffff1673ffffffffffffffffffffffffffffffffffffffff1673ffffffffffffffffffffffffffffffffffffffff1681526020016002820154815250509050805f015181602001518260400151935093509350509193909250565b670de0b6b3a764000034101561067e576040517f08c379a000000000000000000000000000000000000000000000000000000000815260040161067590610f37565b60405180910390fd5b345f803373ffffffffffffffffffffffffffffffffffffffff1673ffffffffffffffffffffffffffffffffffffffff1681526020019081526020015f206002015f8282546106cc9190610f55565b92505081905550565b670de0b6b3a7640000811015610720576040517f08c379a000000000000000000000000000000000000000000000000000000000815260040161071790610f37565b60405180910390fd5b805f803373ffffffffffffffffffffffffffffffffffffffff1673ffffffffffffffffffffffffffffffffffffffff1681526020019081526020015f206002015f82825461076e9190610f55565b9250508190555050565b670de0b6b3a764000081565b5f604051905090565b5f80fd5b5f80fd5b5f819050919050565b6107a781610795565b81146107b1575f80fd5b50565b5f813590506107c28161079e565b92915050565b5f602082840312156107dd576107dc61078d565b5b5f6107ea848285016107b4565b91505092915050565b5f73ffffffffffffffffffffffffffffffffffffffff82169050919050565b5f61081c826107f3565b9050919050565b61082c81610812565b8114610836575f80fd5b50565b5f8135905061084781610823565b92915050565b5f602082840312156108625761086161078d565b5b5f61086f84828501610839565b91505092915050565b5f81519050919050565b5f82825260208201905092915050565b8281835e5f83830152505050565b5f601f19601f8301169050919050565b5f6108ba82610878565b6108c48185610882565b93506108d4818560208601610892565b6108dd816108a0565b840191505092915050565b6108f181610812565b82525050565b61090081610795565b82525050565b5f6060820190508181035f83015261091e81866108b0565b905061092d60208301856108e8565b61093a60408301846108f7565b949350505050565b5f80fd5b5f80fd5b7f4e487b71000000000000000000000000000000000000000000000000000000005f52604160045260245ffd5b610980826108a0565b810181811067ffffffffffffffff8211171561099f5761099e61094a565b5b80604052505050565b5f6109b1610784565b90506109bd8282610977565b919050565b5f67ffffffffffffffff8211156109dc576109db61094a565b5b6109e5826108a0565b9050602081019050919050565b828183375f83830152505050565b5f610a12610a0d846109c2565b6109a8565b905082815260208101848484011115610a2e57610a2d610946565b5b610a398482856109f2565b509392505050565b5f82601f830112610a5557610a54610942565b5b8135610a65848260208601610a00565b91505092915050565b5f60208284031215610a8357610a8261078d565b5b5f82013567ffffffffffffffff811115610aa057610a9f610791565b5b610aac84828501610a41565b91505092915050565b5f602082019050610ac85f8301846108f7565b92915050565b7f5769746864726177616c20616d6f756e74206578636565647320746865206d615f8201527f78696d756d206c696d69742e0000000000000000000000000000000000000000602082015250565b5f610b28602c83610882565b9150610b3382610ace565b604082019050919050565b5f6020820190508181035f830152610b5581610b1c565b9050919050565b7f496e73756666696369656e742062616c616e63652e00000000000000000000005f82015250565b5f610b90601583610882565b9150610b9b82610b5c565b602082019050919050565b5f6020820190508181035f830152610bbd81610b84565b9050919050565b7f4e487b71000000000000000000000000000000000000000000000000000000005f52601160045260245ffd5b5f610bfb82610795565b9150610c0683610795565b9250828203905081811115610c1e57610c1d610bc4565b5b92915050565b7f4e487b71000000000000000000000000000000000000000000000000000000005f52602260045260245ffd5b5f6002820490506001821680610c6857607f821691505b602082108103610c7b57610c7a610c24565b5b50919050565b5f819050815f5260205f209050919050565b5f6020601f8301049050919050565b5f82821b905092915050565b5f60088302610cdd7fffffffffffffffffffffffffffffffffffffffffffffffffffffffffffffffff82610ca2565b610ce78683610ca2565b95508019841693508086168417925050509392505050565b5f819050919050565b5f610d22610d1d610d1884610795565b610cff565b610795565b9050919050565b5f819050919050565b610d3b83610d08565b610d4f610d4782610d29565b848454610cae565b825550505050565b5f90565b610d63610d57565b610d6e818484610d32565b505050565b5b81811015610d9157610d865f82610d5b565b600181019050610d74565b5050565b601f821115610dd657610da781610c81565b610db084610c93565b81016020851015610dbf578190505b610dd3610dcb85610c93565b830182610d73565b50505b505050565b5f82821c905092915050565b5f610df65f1984600802610ddb565b1980831691505092915050565b5f610e0e8383610de7565b9150826002028217905092915050565b610e2782610878565b67ffffffffffffffff811115610e4057610e3f61094a565b5b610e4a8254610c51565b610e55828285610d95565b5f60209050601f831160018114610e86575f8415610e74578287015190505b610e7e8582610e03565b865550610ee5565b601f198416610e9486610c81565b5f5b82811015610ebb57848901518255600182019150602085019450602081019050610e96565b86831015610ed85784890151610ed4601f891682610de7565b8355505b6001600288020188555050505b505050505050565b7f4465706f73697420616d6f756e7420697320746f6f20736d616c6c2e000000005f82015250565b5f610f21601c83610882565b9150610f2c82610eed565b602082019050919050565b5f6020820190508181035f830152610f4e81610f15565b9050919050565b5f610f5f82610795565b9150610f6a83610795565b9250828201905080821115610f8257610f81610bc4565b5b9291505056fea2646970667358221220611372cb3ac0d6cc58cbae0280525ae153c6d29d90a2788819bb0d16cd2a1fa564736f6c634300081a0033",
					"opcodes": "PUSH1 0x80 PUSH1 0x40 MSTORE CALLVALUE DUP1 ISZERO PUSH1 0xE JUMPI PUSH0 DUP1 REVERT JUMPDEST POP PUSH2 0xFBE DUP1 PUSH2 0x1C PUSH0 CODECOPY PUSH0 RETURN INVALID PUSH1 0x80 PUSH1 0x40 MSTORE PUSH1 0x4 CALLDATASIZE LT PUSH2 0x7A JUMPI PUSH0 CALLDATALOAD PUSH1 0xE0 SHR DUP1 PUSH4 0x987EE156 GT PUSH2 0x4D JUMPI DUP1 PUSH4 0x987EE156 EQ PUSH2 0x136 JUMPI DUP1 PUSH4 0xABB721CE EQ PUSH2 0x174 JUMPI DUP1 PUSH4 0xB6B55F25 EQ PUSH2 0x17E JUMPI DUP1 PUSH4 0xE1E158A5 EQ PUSH2 0x1A6 JUMPI PUSH2 0x7A JUMP JUMPDEST DUP1 PUSH4 0x2E1A7D4D EQ PUSH2 0x7E JUMPI DUP1 PUSH4 0x332D56D7 EQ PUSH2 0xA6 JUMPI DUP1 PUSH4 0x6401C30C EQ PUSH2 0xE4 JUMPI DUP1 PUSH4 0x97EC642C EQ PUSH2 0x10C JUMPI JUMPDEST PUSH0 DUP1 REVERT JUMPDEST CALLVALUE DUP1 ISZERO PUSH2 0x89 JUMPI PUSH0 DUP1 REVERT JUMPDEST POP PUSH2 0xA4 PUSH1 0x4 DUP1 CALLDATASIZE SUB DUP2 ADD SWAP1 PUSH2 0x9F SWAP2 SWAP1 PUSH2 0x7C8 JUMP JUMPDEST PUSH2 0x1D0 JUMP JUMPDEST STOP JUMPDEST CALLVALUE DUP1 ISZERO PUSH2 0xB1 JUMPI PUSH0 DUP1 REVERT JUMPDEST POP PUSH2 0xCC PUSH1 0x4 DUP1 CALLDATASIZE SUB DUP2 ADD SWAP1 PUSH2 0xC7 SWAP2 SWAP1 PUSH2 0x84D JUMP JUMPDEST PUSH2 0x339 JUMP JUMPDEST PUSH1 0x40 MLOAD PUSH2 0xDB SWAP4 SWAP3 SWAP2 SWAP1 PUSH2 0x906 JUMP JUMPDEST PUSH1 0x40 MLOAD DUP1 SWAP2 SUB SWAP1 RETURN JUMPDEST CALLVALUE DUP1 ISZERO PUSH2 0xEF JUMPI PUSH0 DUP1 REVERT JUMPDEST POP PUSH2 0x10A PUSH1 0x4 DUP1 CALLDATASIZE SUB DUP2 ADD SWAP1 PUSH2 0x105 SWAP2 SWAP1 PUSH2 0xA6E JUMP JUMPDEST PUSH2 0x403 JUMP JUMPDEST STOP JUMPDEST CALLVALUE DUP1 ISZERO PUSH2 0x117 JUMPI PUSH0 DUP1 REVERT JUMPDEST POP PUSH2 0x120 PUSH2 0x4CF JUMP JUMPDEST PUSH1 0x40 MLOAD PUSH2 0x12D SWAP2 SWAP1 PUSH2 0xAB5 JUMP JUMPDEST PUSH1 0x40 MLOAD DUP1 SWAP2 SUB SWAP1 RETURN JUMPDEST CALLVALUE DUP1 ISZERO PUSH2 0x141 JUMPI PUSH0 DUP1 REVERT JUMPDEST POP PUSH2 0x15C PUSH1 0x4 DUP1 CALLDATASIZE SUB DUP2 ADD SWAP1 PUSH2 0x157 SWAP2 SWAP1 PUSH2 0x84D JUMP JUMPDEST PUSH2 0x4DB JUMP JUMPDEST PUSH1 0x40 MLOAD PUSH2 0x16B SWAP4 SWAP3 SWAP2 SWAP1 PUSH2 0x906 JUMP JUMPDEST PUSH1 0x40 MLOAD DUP1 SWAP2 SUB SWAP1 RETURN JUMPDEST PUSH2 0x17C PUSH2 0x633 JUMP JUMPDEST STOP JUMPDEST CALLVALUE DUP1 ISZERO PUSH2 0x189 JUMPI PUSH0 DUP1 REVERT JUMPDEST POP PUSH2 0x1A4 PUSH1 0x4 DUP1 CALLDATASIZE SUB DUP2 ADD SWAP1 PUSH2 0x19F SWAP2 SWAP1 PUSH2 0x7C8 JUMP JUMPDEST PUSH2 0x6D5 JUMP JUMPDEST STOP JUMPDEST CALLVALUE DUP1 ISZERO PUSH2 0x1B1 JUMPI PUSH0 DUP1 REVERT JUMPDEST POP PUSH2 0x1BA PUSH2 0x778 JUMP JUMPDEST PUSH1 0x40 MLOAD PUSH2 0x1C7 SWAP2 SWAP1 PUSH2 0xAB5 JUMP JUMPDEST PUSH1 0x40 MLOAD DUP1 SWAP2 SUB SWAP1 RETURN JUMPDEST PUSH8 0x4563918244F40000 DUP2 GT ISZERO PUSH2 0x21B JUMPI PUSH1 0x40 MLOAD PUSH32 0x8C379A000000000000000000000000000000000000000000000000000000000 DUP2 MSTORE PUSH1 0x4 ADD PUSH2 0x212 SWAP1 PUSH2 0xB3E JUMP JUMPDEST PUSH1 0x40 MLOAD DUP1 SWAP2 SUB SWAP1 REVERT JUMPDEST DUP1 PUSH0 DUP1 CALLER PUSH20 0xFFFFFFFFFFFFFFFFFFFFFFFFFFFFFFFFFFFFFFFF AND PUSH20 0xFFFFFFFFFFFFFFFFFFFFFFFFFFFFFFFFFFFFFFFF AND DUP2 MSTORE PUSH1 0x20 ADD SWAP1 DUP2 MSTORE PUSH1 0x20 ADD PUSH0 KECCAK256 PUSH1 0x2 ADD SLOAD LT ISZERO PUSH2 0x29D JUMPI PUSH1 0x40 MLOAD PUSH32 0x8C379A000000000000000000000000000000000000000000000000000000000 DUP2 MSTORE PUSH1 0x4 ADD PUSH2 0x294 SWAP1 PUSH2 0xBA6 JUMP JUMPDEST PUSH1 0x40 MLOAD DUP1 SWAP2 SUB SWAP1 REVERT JUMPDEST DUP1 PUSH0 DUP1 CALLER PUSH20 0xFFFFFFFFFFFFFFFFFFFFFFFFFFFFFFFFFFFFFFFF AND PUSH20 0xFFFFFFFFFFFFFFFFFFFFFFFFFFFFFFFFFFFFFFFF AND DUP2 MSTORE PUSH1 0x20 ADD SWAP1 DUP2 MSTORE PUSH1 0x20 ADD PUSH0 KECCAK256 PUSH1 0x2 ADD PUSH0 DUP3 DUP3 SLOAD PUSH2 0x2EB SWAP2 SWAP1 PUSH2 0xBF1 JUMP JUMPDEST SWAP3 POP POP DUP2 SWAP1 SSTORE POP CALLER PUSH20 0xFFFFFFFFFFFFFFFFFFFFFFFFFFFFFFFFFFFFFFFF AND PUSH2 0x8FC DUP3 SWAP1 DUP2 ISZERO MUL SWAP1 PUSH1 0x40 MLOAD PUSH0 PUSH1 0x40 MLOAD DUP1 DUP4 SUB DUP2 DUP6 DUP9 DUP9 CALL SWAP4 POP POP POP POP ISZERO DUP1 ISZERO PUSH2 0x335 JUMPI RETURNDATASIZE PUSH0 DUP1 RETURNDATACOPY RETURNDATASIZE PUSH0 REVERT JUMPDEST POP POP JUMP JUMPDEST PUSH0 PUSH1 0x20 MSTORE DUP1 PUSH0 MSTORE PUSH1 0x40 PUSH0 KECCAK256 PUSH0 SWAP2 POP SWAP1 POP DUP1 PUSH0 ADD DUP1 SLOAD PUSH2 0x357 SWAP1 PUSH2 0xC51 JUMP JUMPDEST DUP1 PUSH1 0x1F ADD PUSH1 0x20 DUP1 SWAP2 DIV MUL PUSH1 0x20 ADD PUSH1 0x40 MLOAD SWAP1 DUP2 ADD PUSH1 0x40 MSTORE DUP1 SWAP3 SWAP2 SWAP1 DUP2 DUP2 MSTORE PUSH1 0x20 ADD DUP3 DUP1 SLOAD PUSH2 0x383 SWAP1 PUSH2 0xC51 JUMP JUMPDEST DUP1 ISZERO PUSH2 0x3CE JUMPI DUP1 PUSH1 0x1F LT PUSH2 0x3A5 JUMPI PUSH2 0x100 DUP1 DUP4 SLOAD DIV MUL DUP4 MSTORE SWAP2 PUSH1 0x20 ADD SWAP2 PUSH2 0x3CE JUMP JUMPDEST DUP3 ADD SWAP2 SWAP1 PUSH0 MSTORE PUSH1 0x20 PUSH0 KECCAK256 SWAP1 JUMPDEST DUP2 SLOAD DUP2 MSTORE SWAP1 PUSH1 0x1 ADD SWAP1 PUSH1 0x20 ADD DUP1 DUP4 GT PUSH2 0x3B1 JUMPI DUP3 SWAP1 SUB PUSH1 0x1F AND DUP3 ADD SWAP2 JUMPDEST POP POP POP POP POP SWAP1 DUP1 PUSH1 0x1 ADD PUSH0 SWAP1 SLOAD SWAP1 PUSH2 0x100 EXP SWAP1 DIV PUSH20 0xFFFFFFFFFFFFFFFFFFFFFFFFFFFFFFFFFFFFFFFF AND SWAP1 DUP1 PUSH1 0x2 ADD SLOAD SWAP1 POP DUP4 JUMP JUMPDEST DUP1 PUSH0 DUP1 CALLER PUSH20 0xFFFFFFFFFFFFFFFFFFFFFFFFFFFFFFFFFFFFFFFF AND PUSH20 0xFFFFFFFFFFFFFFFFFFFFFFFFFFFFFFFFFFFFFFFF AND DUP2 MSTORE PUSH1 0x20 ADD SWAP1 DUP2 MSTORE PUSH1 0x20 ADD PUSH0 KECCAK256 PUSH0 ADD SWAP1 DUP2 PUSH2 0x44E SWAP2 SWAP1 PUSH2 0xE1E JUMP JUMPDEST POP CALLER PUSH0 DUP1 CALLER PUSH20 0xFFFFFFFFFFFFFFFFFFFFFFFFFFFFFFFFFFFFFFFF AND PUSH20 0xFFFFFFFFFFFFFFFFFFFFFFFFFFFFFFFFFFFFFFFF AND DUP2 MSTORE PUSH1 0x20 ADD SWAP1 DUP2 MSTORE PUSH1 0x20 ADD PUSH0 KECCAK256 PUSH1 0x1 ADD PUSH0 PUSH2 0x100 EXP DUP2 SLOAD DUP2 PUSH20 0xFFFFFFFFFFFFFFFFFFFFFFFFFFFFFFFFFFFFFFFF MUL NOT AND SWAP1 DUP4 PUSH20 0xFFFFFFFFFFFFFFFFFFFFFFFFFFFFFFFFFFFFFFFF AND MUL OR SWAP1 SSTORE POP POP JUMP JUMPDEST PUSH8 0x4563918244F40000 DUP2 JUMP JUMPDEST PUSH1 0x60 PUSH0 DUP1 PUSH0 DUP1 PUSH0 DUP7 PUSH20 0xFFFFFFFFFFFFFFFFFFFFFFFFFFFFFFFFFFFFFFFF AND PUSH20 0xFFFFFFFFFFFFFFFFFFFFFFFFFFFFFFFFFFFFFFFF AND DUP2 MSTORE PUSH1 0x20 ADD SWAP1 DUP2 MSTORE PUSH1 0x20 ADD PUSH0 KECCAK256 PUSH1 0x40 MLOAD DUP1 PUSH1 0x60 ADD PUSH1 0x40 MSTORE SWAP1 DUP2 PUSH0 DUP3 ADD DUP1 SLOAD PUSH2 0x536 SWAP1 PUSH2 0xC51 JUMP JUMPDEST DUP1 PUSH1 0x1F ADD PUSH1 0x20 DUP1 SWAP2 DIV MUL PUSH1 0x20 ADD PUSH1 0x40 MLOAD SWAP1 DUP2 ADD PUSH1 0x40 MSTORE DUP1 SWAP3 SWAP2 SWAP1 DUP2 DUP2 MSTORE PUSH1 0x20 ADD DUP3 DUP1 SLOAD PUSH2 0x562 SWAP1 PUSH2 0xC51 JUMP JUMPDEST DUP1 ISZERO PUSH2 0x5AD JUMPI DUP1 PUSH1 0x1F LT PUSH2 0x584 JUMPI PUSH2 0x100 DUP1 DUP4 SLOAD DIV MUL DUP4 MSTORE SWAP2 PUSH1 0x20 ADD SWAP2 PUSH2 0x5AD JUMP JUMPDEST DUP3 ADD SWAP2 SWAP1 PUSH0 MSTORE PUSH1 0x20 PUSH0 KECCAK256 SWAP1 JUMPDEST DUP2 SLOAD DUP2 MSTORE SWAP1 PUSH1 0x1 ADD SWAP1 PUSH1 0x20 ADD DUP1 DUP4 GT PUSH2 0x590 JUMPI DUP3 SWAP1 SUB PUSH1 0x1F AND DUP3 ADD SWAP2 JUMPDEST POP POP POP POP POP DUP2 MSTORE PUSH1 0x20 ADD PUSH1 0x1 DUP3 ADD PUSH0 SWAP1 SLOAD SWAP1 PUSH2 0x100 EXP SWAP1 DIV PUSH20 0xFFFFFFFFFFFFFFFFFFFFFFFFFFFFFFFFFFFFFFFF AND PUSH20 0xFFFFFFFFFFFFFFFFFFFFFFFFFFFFFFFFFFFFFFFF AND PUSH20 0xFFFFFFFFFFFFFFFFFFFFFFFFFFFFFFFFFFFFFFFF AND DUP2 MSTORE PUSH1 0x20 ADD PUSH1 0x2 DUP3 ADD SLOAD DUP2 MSTORE POP POP SWAP1 POP DUP1 PUSH0 ADD MLOAD DUP2 PUSH1 0x20 ADD MLOAD DUP3 PUSH1 0x40 ADD MLOAD SWAP4 POP SWAP4 POP SWAP4 POP POP SWAP2 SWAP4 SWAP1 SWAP3 POP JUMP JUMPDEST PUSH8 0xDE0B6B3A7640000 CALLVALUE LT ISZERO PUSH2 0x67E JUMPI PUSH1 0x40 MLOAD PUSH32 0x8C379A000000000000000000000000000000000000000000000000000000000 DUP2 MSTORE PUSH1 0x4 ADD PUSH2 0x675 SWAP1 PUSH2 0xF37 JUMP JUMPDEST PUSH1 0x40 MLOAD DUP1 SWAP2 SUB SWAP1 REVERT JUMPDEST CALLVALUE PUSH0 DUP1 CALLER PUSH20 0xFFFFFFFFFFFFFFFFFFFFFFFFFFFFFFFFFFFFFFFF AND PUSH20 0xFFFFFFFFFFFFFFFFFFFFFFFFFFFFFFFFFFFFFFFF AND DUP2 MSTORE PUSH1 0x20 ADD SWAP1 DUP2 MSTORE PUSH1 0x20 ADD PUSH0 KECCAK256 PUSH1 0x2 ADD PUSH0 DUP3 DUP3 SLOAD PUSH2 0x6CC SWAP2 SWAP1 PUSH2 0xF55 JUMP JUMPDEST SWAP3 POP POP DUP2 SWAP1 SSTORE POP JUMP JUMPDEST PUSH8 0xDE0B6B3A7640000 DUP2 LT ISZERO PUSH2 0x720 JUMPI PUSH1 0x40 MLOAD PUSH32 0x8C379A000000000000000000000000000000000000000000000000000000000 DUP2 MSTORE PUSH1 0x4 ADD PUSH2 0x717 SWAP1 PUSH2 0xF37 JUMP JUMPDEST PUSH1 0x40 MLOAD DUP1 SWAP2 SUB SWAP1 REVERT JUMPDEST DUP1 PUSH0 DUP1 CALLER PUSH20 0xFFFFFFFFFFFFFFFFFFFFFFFFFFFFFFFFFFFFFFFF AND PUSH20 0xFFFFFFFFFFFFFFFFFFFFFFFFFFFFFFFFFFFFFFFF AND DUP2 MSTORE PUSH1 0x20 ADD SWAP1 DUP2 MSTORE PUSH1 0x20 ADD PUSH0 KECCAK256 PUSH1 0x2 ADD PUSH0 DUP3 DUP3 SLOAD PUSH2 0x76E SWAP2 SWAP1 PUSH2 0xF55 JUMP JUMPDEST SWAP3 POP POP DUP2 SWAP1 SSTORE POP POP JUMP JUMPDEST PUSH8 0xDE0B6B3A7640000 DUP2 JUMP JUMPDEST PUSH0 PUSH1 0x40 MLOAD SWAP1 POP SWAP1 JUMP JUMPDEST PUSH0 DUP1 REVERT JUMPDEST PUSH0 DUP1 REVERT JUMPDEST PUSH0 DUP2 SWAP1 POP SWAP2 SWAP1 POP JUMP JUMPDEST PUSH2 0x7A7 DUP2 PUSH2 0x795 JUMP JUMPDEST DUP2 EQ PUSH2 0x7B1 JUMPI PUSH0 DUP1 REVERT JUMPDEST POP JUMP JUMPDEST PUSH0 DUP2 CALLDATALOAD SWAP1 POP PUSH2 0x7C2 DUP2 PUSH2 0x79E JUMP JUMPDEST SWAP3 SWAP2 POP POP JUMP JUMPDEST PUSH0 PUSH1 0x20 DUP3 DUP5 SUB SLT ISZERO PUSH2 0x7DD JUMPI PUSH2 0x7DC PUSH2 0x78D JUMP JUMPDEST JUMPDEST PUSH0 PUSH2 0x7EA DUP5 DUP3 DUP6 ADD PUSH2 0x7B4 JUMP JUMPDEST SWAP2 POP POP SWAP3 SWAP2 POP POP JUMP JUMPDEST PUSH0 PUSH20 0xFFFFFFFFFFFFFFFFFFFFFFFFFFFFFFFFFFFFFFFF DUP3 AND SWAP1 POP SWAP2 SWAP1 POP JUMP JUMPDEST PUSH0 PUSH2 0x81C DUP3 PUSH2 0x7F3 JUMP JUMPDEST SWAP1 POP SWAP2 SWAP1 POP JUMP JUMPDEST PUSH2 0x82C DUP2 PUSH2 0x812 JUMP JUMPDEST DUP2 EQ PUSH2 0x836 JUMPI PUSH0 DUP1 REVERT JUMPDEST POP JUMP JUMPDEST PUSH0 DUP2 CALLDATALOAD SWAP1 POP PUSH2 0x847 DUP2 PUSH2 0x823 JUMP JUMPDEST SWAP3 SWAP2 POP POP JUMP JUMPDEST PUSH0 PUSH1 0x20 DUP3 DUP5 SUB SLT ISZERO PUSH2 0x862 JUMPI PUSH2 0x861 PUSH2 0x78D JUMP JUMPDEST JUMPDEST PUSH0 PUSH2 0x86F DUP5 DUP3 DUP6 ADD PUSH2 0x839 JUMP JUMPDEST SWAP2 POP POP SWAP3 SWAP2 POP POP JUMP JUMPDEST PUSH0 DUP2 MLOAD SWAP1 POP SWAP2 SWAP1 POP JUMP JUMPDEST PUSH0 DUP3 DUP3 MSTORE PUSH1 0x20 DUP3 ADD SWAP1 POP SWAP3 SWAP2 POP POP JUMP JUMPDEST DUP3 DUP2 DUP4 MCOPY PUSH0 DUP4 DUP4 ADD MSTORE POP POP POP JUMP JUMPDEST PUSH0 PUSH1 0x1F NOT PUSH1 0x1F DUP4 ADD AND SWAP1 POP SWAP2 SWAP1 POP JUMP JUMPDEST PUSH0 PUSH2 0x8BA DUP3 PUSH2 0x878 JUMP JUMPDEST PUSH2 0x8C4 DUP2 DUP6 PUSH2 0x882 JUMP JUMPDEST SWAP4 POP PUSH2 0x8D4 DUP2 DUP6 PUSH1 0x20 DUP7 ADD PUSH2 0x892 JUMP JUMPDEST PUSH2 0x8DD DUP2 PUSH2 0x8A0 JUMP JUMPDEST DUP5 ADD SWAP2 POP POP SWAP3 SWAP2 POP POP JUMP JUMPDEST PUSH2 0x8F1 DUP2 PUSH2 0x812 JUMP JUMPDEST DUP3 MSTORE POP POP JUMP JUMPDEST PUSH2 0x900 DUP2 PUSH2 0x795 JUMP JUMPDEST DUP3 MSTORE POP POP JUMP JUMPDEST PUSH0 PUSH1 0x60 DUP3 ADD SWAP1 POP DUP2 DUP2 SUB PUSH0 DUP4 ADD MSTORE PUSH2 0x91E DUP2 DUP7 PUSH2 0x8B0 JUMP JUMPDEST SWAP1 POP PUSH2 0x92D PUSH1 0x20 DUP4 ADD DUP6 PUSH2 0x8E8 JUMP JUMPDEST PUSH2 0x93A PUSH1 0x40 DUP4 ADD DUP5 PUSH2 0x8F7 JUMP JUMPDEST SWAP5 SWAP4 POP POP POP POP JUMP JUMPDEST PUSH0 DUP1 REVERT JUMPDEST PUSH0 DUP1 REVERT JUMPDEST PUSH32 0x4E487B7100000000000000000000000000000000000000000000000000000000 PUSH0 MSTORE PUSH1 0x41 PUSH1 0x4 MSTORE PUSH1 0x24 PUSH0 REVERT JUMPDEST PUSH2 0x980 DUP3 PUSH2 0x8A0 JUMP JUMPDEST DUP2 ADD DUP2 DUP2 LT PUSH8 0xFFFFFFFFFFFFFFFF DUP3 GT OR ISZERO PUSH2 0x99F JUMPI PUSH2 0x99E PUSH2 0x94A JUMP JUMPDEST JUMPDEST DUP1 PUSH1 0x40 MSTORE POP POP POP JUMP JUMPDEST PUSH0 PUSH2 0x9B1 PUSH2 0x784 JUMP JUMPDEST SWAP1 POP PUSH2 0x9BD DUP3 DUP3 PUSH2 0x977 JUMP JUMPDEST SWAP2 SWAP1 POP JUMP JUMPDEST PUSH0 PUSH8 0xFFFFFFFFFFFFFFFF DUP3 GT ISZERO PUSH2 0x9DC JUMPI PUSH2 0x9DB PUSH2 0x94A JUMP JUMPDEST JUMPDEST PUSH2 0x9E5 DUP3 PUSH2 0x8A0 JUMP JUMPDEST SWAP1 POP PUSH1 0x20 DUP2 ADD SWAP1 POP SWAP2 SWAP1 POP JUMP JUMPDEST DUP3 DUP2 DUP4 CALLDATACOPY PUSH0 DUP4 DUP4 ADD MSTORE POP POP POP JUMP JUMPDEST PUSH0 PUSH2 0xA12 PUSH2 0xA0D DUP5 PUSH2 0x9C2 JUMP JUMPDEST PUSH2 0x9A8 JUMP JUMPDEST SWAP1 POP DUP3 DUP2 MSTORE PUSH1 0x20 DUP2 ADD DUP5 DUP5 DUP5 ADD GT ISZERO PUSH2 0xA2E JUMPI PUSH2 0xA2D PUSH2 0x946 JUMP JUMPDEST JUMPDEST PUSH2 0xA39 DUP5 DUP3 DUP6 PUSH2 0x9F2 JUMP JUMPDEST POP SWAP4 SWAP3 POP POP POP JUMP JUMPDEST PUSH0 DUP3 PUSH1 0x1F DUP4 ADD SLT PUSH2 0xA55 JUMPI PUSH2 0xA54 PUSH2 0x942 JUMP JUMPDEST JUMPDEST DUP2 CALLDATALOAD PUSH2 0xA65 DUP5 DUP3 PUSH1 0x20 DUP7 ADD PUSH2 0xA00 JUMP JUMPDEST SWAP2 POP POP SWAP3 SWAP2 POP POP JUMP JUMPDEST PUSH0 PUSH1 0x20 DUP3 DUP5 SUB SLT ISZERO PUSH2 0xA83 JUMPI PUSH2 0xA82 PUSH2 0x78D JUMP JUMPDEST JUMPDEST PUSH0 DUP3 ADD CALLDATALOAD PUSH8 0xFFFFFFFFFFFFFFFF DUP2 GT ISZERO PUSH2 0xAA0 JUMPI PUSH2 0xA9F PUSH2 0x791 JUMP JUMPDEST JUMPDEST PUSH2 0xAAC DUP5 DUP3 DUP6 ADD PUSH2 0xA41 JUMP JUMPDEST SWAP2 POP POP SWAP3 SWAP2 POP POP JUMP JUMPDEST PUSH0 PUSH1 0x20 DUP3 ADD SWAP1 POP PUSH2 0xAC8 PUSH0 DUP4 ADD DUP5 PUSH2 0x8F7 JUMP JUMPDEST SWAP3 SWAP2 POP POP JUMP JUMPDEST PUSH32 0x5769746864726177616C20616D6F756E74206578636565647320746865206D61 PUSH0 DUP3 ADD MSTORE PUSH32 0x78696D756D206C696D69742E0000000000000000000000000000000000000000 PUSH1 0x20 DUP3 ADD MSTORE POP JUMP JUMPDEST PUSH0 PUSH2 0xB28 PUSH1 0x2C DUP4 PUSH2 0x882 JUMP JUMPDEST SWAP2 POP PUSH2 0xB33 DUP3 PUSH2 0xACE JUMP JUMPDEST PUSH1 0x40 DUP3 ADD SWAP1 POP SWAP2 SWAP1 POP JUMP JUMPDEST PUSH0 PUSH1 0x20 DUP3 ADD SWAP1 POP DUP2 DUP2 SUB PUSH0 DUP4 ADD MSTORE PUSH2 0xB55 DUP2 PUSH2 0xB1C JUMP JUMPDEST SWAP1 POP SWAP2 SWAP1 POP JUMP JUMPDEST PUSH32 0x496E73756666696369656E742062616C616E63652E0000000000000000000000 PUSH0 DUP3 ADD MSTORE POP JUMP JUMPDEST PUSH0 PUSH2 0xB90 PUSH1 0x15 DUP4 PUSH2 0x882 JUMP JUMPDEST SWAP2 POP PUSH2 0xB9B DUP3 PUSH2 0xB5C JUMP JUMPDEST PUSH1 0x20 DUP3 ADD SWAP1 POP SWAP2 SWAP1 POP JUMP JUMPDEST PUSH0 PUSH1 0x20 DUP3 ADD SWAP1 POP DUP2 DUP2 SUB PUSH0 DUP4 ADD MSTORE PUSH2 0xBBD DUP2 PUSH2 0xB84 JUMP JUMPDEST SWAP1 POP SWAP2 SWAP1 POP JUMP JUMPDEST PUSH32 0x4E487B7100000000000000000000000000000000000000000000000000000000 PUSH0 MSTORE PUSH1 0x11 PUSH1 0x4 MSTORE PUSH1 0x24 PUSH0 REVERT JUMPDEST PUSH0 PUSH2 0xBFB DUP3 PUSH2 0x795 JUMP JUMPDEST SWAP2 POP PUSH2 0xC06 DUP4 PUSH2 0x795 JUMP JUMPDEST SWAP3 POP DUP3 DUP3 SUB SWAP1 POP DUP2 DUP2 GT ISZERO PUSH2 0xC1E JUMPI PUSH2 0xC1D PUSH2 0xBC4 JUMP JUMPDEST JUMPDEST SWAP3 SWAP2 POP POP JUMP JUMPDEST PUSH32 0x4E487B7100000000000000000000000000000000000000000000000000000000 PUSH0 MSTORE PUSH1 0x22 PUSH1 0x4 MSTORE PUSH1 0x24 PUSH0 REVERT JUMPDEST PUSH0 PUSH1 0x2 DUP3 DIV SWAP1 POP PUSH1 0x1 DUP3 AND DUP1 PUSH2 0xC68 JUMPI PUSH1 0x7F DUP3 AND SWAP2 POP JUMPDEST PUSH1 0x20 DUP3 LT DUP2 SUB PUSH2 0xC7B JUMPI PUSH2 0xC7A PUSH2 0xC24 JUMP JUMPDEST JUMPDEST POP SWAP2 SWAP1 POP JUMP JUMPDEST PUSH0 DUP2 SWAP1 POP DUP2 PUSH0 MSTORE PUSH1 0x20 PUSH0 KECCAK256 SWAP1 POP SWAP2 SWAP1 POP JUMP JUMPDEST PUSH0 PUSH1 0x20 PUSH1 0x1F DUP4 ADD DIV SWAP1 POP SWAP2 SWAP1 POP JUMP JUMPDEST PUSH0 DUP3 DUP3 SHL SWAP1 POP SWAP3 SWAP2 POP POP JUMP JUMPDEST PUSH0 PUSH1 0x8 DUP4 MUL PUSH2 0xCDD PUSH32 0xFFFFFFFFFFFFFFFFFFFFFFFFFFFFFFFFFFFFFFFFFFFFFFFFFFFFFFFFFFFFFFFF DUP3 PUSH2 0xCA2 JUMP JUMPDEST PUSH2 0xCE7 DUP7 DUP4 PUSH2 0xCA2 JUMP JUMPDEST SWAP6 POP DUP1 NOT DUP5 AND SWAP4 POP DUP1 DUP7 AND DUP5 OR SWAP3 POP POP POP SWAP4 SWAP3 POP POP POP JUMP JUMPDEST PUSH0 DUP2 SWAP1 POP SWAP2 SWAP1 POP JUMP JUMPDEST PUSH0 PUSH2 0xD22 PUSH2 0xD1D PUSH2 0xD18 DUP5 PUSH2 0x795 JUMP JUMPDEST PUSH2 0xCFF JUMP JUMPDEST PUSH2 0x795 JUMP JUMPDEST SWAP1 POP SWAP2 SWAP1 POP JUMP JUMPDEST PUSH0 DUP2 SWAP1 POP SWAP2 SWAP1 POP JUMP JUMPDEST PUSH2 0xD3B DUP4 PUSH2 0xD08 JUMP JUMPDEST PUSH2 0xD4F PUSH2 0xD47 DUP3 PUSH2 0xD29 JUMP JUMPDEST DUP5 DUP5 SLOAD PUSH2 0xCAE JUMP JUMPDEST DUP3 SSTORE POP POP POP POP JUMP JUMPDEST PUSH0 SWAP1 JUMP JUMPDEST PUSH2 0xD63 PUSH2 0xD57 JUMP JUMPDEST PUSH2 0xD6E DUP2 DUP5 DUP5 PUSH2 0xD32 JUMP JUMPDEST POP POP POP JUMP JUMPDEST JUMPDEST DUP2 DUP2 LT ISZERO PUSH2 0xD91 JUMPI PUSH2 0xD86 PUSH0 DUP3 PUSH2 0xD5B JUMP JUMPDEST PUSH1 0x1 DUP2 ADD SWAP1 POP PUSH2 0xD74 JUMP JUMPDEST POP POP JUMP JUMPDEST PUSH1 0x1F DUP3 GT ISZERO PUSH2 0xDD6 JUMPI PUSH2 0xDA7 DUP2 PUSH2 0xC81 JUMP JUMPDEST PUSH2 0xDB0 DUP5 PUSH2 0xC93 JUMP JUMPDEST DUP2 ADD PUSH1 0x20 DUP6 LT ISZERO PUSH2 0xDBF JUMPI DUP2 SWAP1 POP JUMPDEST PUSH2 0xDD3 PUSH2 0xDCB DUP6 PUSH2 0xC93 JUMP JUMPDEST DUP4 ADD DUP3 PUSH2 0xD73 JUMP JUMPDEST POP POP JUMPDEST POP POP POP JUMP JUMPDEST PUSH0 DUP3 DUP3 SHR SWAP1 POP SWAP3 SWAP2 POP POP JUMP JUMPDEST PUSH0 PUSH2 0xDF6 PUSH0 NOT DUP5 PUSH1 0x8 MUL PUSH2 0xDDB JUMP JUMPDEST NOT DUP1 DUP4 AND SWAP2 POP POP SWAP3 SWAP2 POP POP JUMP JUMPDEST PUSH0 PUSH2 0xE0E DUP4 DUP4 PUSH2 0xDE7 JUMP JUMPDEST SWAP2 POP DUP3 PUSH1 0x2 MUL DUP3 OR SWAP1 POP SWAP3 SWAP2 POP POP JUMP JUMPDEST PUSH2 0xE27 DUP3 PUSH2 0x878 JUMP JUMPDEST PUSH8 0xFFFFFFFFFFFFFFFF DUP2 GT ISZERO PUSH2 0xE40 JUMPI PUSH2 0xE3F PUSH2 0x94A JUMP JUMPDEST JUMPDEST PUSH2 0xE4A DUP3 SLOAD PUSH2 0xC51 JUMP JUMPDEST PUSH2 0xE55 DUP3 DUP3 DUP6 PUSH2 0xD95 JUMP JUMPDEST PUSH0 PUSH1 0x20 SWAP1 POP PUSH1 0x1F DUP4 GT PUSH1 0x1 DUP2 EQ PUSH2 0xE86 JUMPI PUSH0 DUP5 ISZERO PUSH2 0xE74 JUMPI DUP3 DUP8 ADD MLOAD SWAP1 POP JUMPDEST PUSH2 0xE7E DUP6 DUP3 PUSH2 0xE03 JUMP JUMPDEST DUP7 SSTORE POP PUSH2 0xEE5 JUMP JUMPDEST PUSH1 0x1F NOT DUP5 AND PUSH2 0xE94 DUP7 PUSH2 0xC81 JUMP JUMPDEST PUSH0 JUMPDEST DUP3 DUP2 LT ISZERO PUSH2 0xEBB JUMPI DUP5 DUP10 ADD MLOAD DUP3 SSTORE PUSH1 0x1 DUP3 ADD SWAP2 POP PUSH1 0x20 DUP6 ADD SWAP5 POP PUSH1 0x20 DUP2 ADD SWAP1 POP PUSH2 0xE96 JUMP JUMPDEST DUP7 DUP4 LT ISZERO PUSH2 0xED8 JUMPI DUP5 DUP10 ADD MLOAD PUSH2 0xED4 PUSH1 0x1F DUP10 AND DUP3 PUSH2 0xDE7 JUMP JUMPDEST DUP4 SSTORE POP JUMPDEST PUSH1 0x1 PUSH1 0x2 DUP9 MUL ADD DUP9 SSTORE POP POP POP JUMPDEST POP POP POP POP POP POP JUMP JUMPDEST PUSH32 0x4465706F73697420616D6F756E7420697320746F6F20736D616C6C2E00000000 PUSH0 DUP3 ADD MSTORE POP JUMP JUMPDEST PUSH0 PUSH2 0xF21 PUSH1 0x1C DUP4 PUSH2 0x882 JUMP JUMPDEST SWAP2 POP PUSH2 0xF2C DUP3 PUSH2 0xEED JUMP JUMPDEST PUSH1 0x20 DUP3 ADD SWAP1 POP SWAP2 SWAP1 POP JUMP JUMPDEST PUSH0 PUSH1 0x20 DUP3 ADD SWAP1 POP DUP2 DUP2 SUB PUSH0 DUP4 ADD MSTORE PUSH2 0xF4E DUP2 PUSH2 0xF15 JUMP JUMPDEST SWAP1 POP SWAP2 SWAP1 POP JUMP JUMPDEST PUSH0 PUSH2 0xF5F DUP3 PUSH2 0x795 JUMP JUMPDEST SWAP2 POP PUSH2 0xF6A DUP4 PUSH2 0x795 JUMP JUMPDEST SWAP3 POP DUP3 DUP3 ADD SWAP1 POP DUP1 DUP3 GT ISZERO PUSH2 0xF82 JUMPI PUSH2 0xF81 PUSH2 0xBC4 JUMP JUMPDEST JUMPDEST SWAP3 SWAP2 POP POP JUMP INVALID LOG2 PUSH5 0x6970667358 0x22 SLT KECCAK256 PUSH2 0x1372 0xCB GASPRICE 0xC0 0xD6 0xCC PC 0xCB 0xAE MUL DUP1 MSTORE GAS 0xE1 MSTORE8 0xC6 0xD2 SWAP14 SWAP1 LOG2 PUSH25 0x8819BB0D16CD2A1FA564736F6C634300081A00330000000000 "
				},
				"gasEstimates": {
					"creation": {
						"codeDepositCost": "806000",
						"executionCost": "836",
						"totalCost": "806836"
					},
					"external": {
						"MAX_WITHDRAWAL()": "392",
						"MIN_DEPOSIT()": "391",
						"_deposit()": "infinite",
						"deposit(uint256)": "infinite",
						"getUserProfile(address)": "infinite",
						"setUserProfile(string)": "infinite",
						"userProfiles(address)": "infinite",
						"withdraw(uint256)": "infinite"
					}
				},
				"methodIdentifiers": {
					"MAX_WITHDRAWAL()": "97ec642c",
					"MIN_DEPOSIT()": "e1e158a5",
					"_deposit()": "abb721ce",
					"deposit(uint256)": "b6b55f25",
					"getUserProfile(address)": "987ee156",
					"setUserProfile(string)": "6401c30c",
					"userProfiles(address)": "332d56d7",
					"withdraw(uint256)": "2e1a7d4d"
				}
			},
			"storageLayout": {
				"storage": [
					{
						"astId": 13,
						"contract": "contracts/Bank.sol:Bank",
						"label": "userProfiles",
						"offset": 0,
						"slot": "0",
						"type": "t_mapping(t_address,t_struct(UserProfile)8_storage)"
					}
				],
				"types": {
					"t_address": {
						"encoding": "inplace",
						"label": "address",
						"numberOfBytes": "20"
					},
					"t_mapping(t_address,t_struct(UserProfile)8_storage)": {
						"encoding": "mapping",
						"key": "t_address",
						"label": "mapping(address => struct Bank.UserProfile)",
						"numberOfBytes": "32",
						"value": "t_struct(UserProfile)8_storage"
					},
					"t_string_storage": {
						"encoding": "bytes",
						"label": "string",
						"numberOfBytes": "32"
					},
					"t_struct(UserProfile)8_storage": {
						"encoding": "inplace",
						"label": "struct Bank.UserProfile",
						"members": [
							{
								"astId": 3,
								"contract": "contracts/Bank.sol:Bank",
								"label": "name",
								"offset": 0,
								"slot": "0",
								"type": "t_string_storage"
							},
							{
								"astId": 5,
								"contract": "contracts/Bank.sol:Bank",
								"label": "userAddress",
								"offset": 0,
								"slot": "1",
								"type": "t_address"
							},
							{
								"astId": 7,
								"contract": "contracts/Bank.sol:Bank",
								"label": "balance",
								"offset": 0,
								"slot": "2",
								"type": "t_uint256"
							}
						],
						"numberOfBytes": "96"
					},
					"t_uint256": {
						"encoding": "inplace",
						"label": "uint256",
						"numberOfBytes": "32"
					}
				}
			},
			"userdoc": {
				"kind": "user",
				"methods": {},
				"version": 1
			}
		}
	}
}