{
	"contracts/Bank.sol": {
		"Bank": {
			"abi": [
				{
					"inputs": [],
					"name": "MAX_WITHDRAWAL",
					"outputs": [
						{
							"internalType": "uint256",
							"name": "",
							"type": "uint256"
						}
					],
					"stateMutability": "view",
					"type": "function"
				},
				{
					"inputs": [],
					"name": "MIN_DEPOSIT",
					"outputs": [
						{
							"internalType": "uint256",
							"name": "",
							"type": "uint256"
						}
					],
					"stateMutability": "view",
					"type": "function"
				},
				{
					"inputs": [
						{
							"internalType": "address",
							"name": "_addr",
							"type": "address"
						},
						{
							"internalType": "uint256",
							"name": "amount",
							"type": "uint256"
						}
					],
					"name": "deposit",
					"outputs": [],
					"stateMutability": "nonpayable",
					"type": "function"
				},
				{
					"inputs": [
						{
							"internalType": "address",
							"name": "_user",
							"type": "address"
						}
					],
					"name": "getUserProfile",
					"outputs": [
						{
							"internalType": "string",
							"name": "",
							"type": "string"
						},
						{
							"internalType": "address",
							"name": "",
							"type": "address"
						},
						{
							"internalType": "uint256",
							"name": "",
							"type": "uint256"
						}
					],
					"stateMutability": "view",
					"type": "function"
				},
				{
					"inputs": [
						{
							"internalType": "string",
							"name": "_name",
							"type": "string"
						},
						{
							"internalType": "address",
							"name": "_addr",
							"type": "address"
						}
					],
					"name": "setUserProfile",
					"outputs": [],
					"stateMutability": "nonpayable",
					"type": "function"
				},
				{
					"inputs": [
						{
							"internalType": "address",
							"name": "",
							"type": "address"
						}
					],
					"name": "userProfiles",
					"outputs": [
						{
							"internalType": "string",
							"name": "name",
							"type": "string"
						},
						{
							"internalType": "address",
							"name": "userAddress",
							"type": "address"
						},
						{
							"internalType": "uint256",
							"name": "balance",
							"type": "uint256"
						}
					],
					"stateMutability": "view",
					"type": "function"
				},
				{
					"inputs": [
						{
							"internalType": "address",
							"name": "_addr",
							"type": "address"
						},
						{
							"internalType": "uint256",
							"name": "_amount",
							"type": "uint256"
						}
					],
					"name": "withdraw",
					"outputs": [],
					"stateMutability": "nonpayable",
					"type": "function"
				}
			],
			"devdoc": {
				"kind": "dev",
				"methods": {},
				"version": 1
			},
			"evm": {
				"assembly": "    /* \"contracts/Bank.sol\":61:2013  contract Bank {... */\n  mstore(0x40, 0x80)\n  callvalue\n  dup1\n  iszero\n  tag_1\n  jumpi\n  0x00\n  dup1\n  revert\ntag_1:\n  pop\n  dataSize(sub_0)\n  dup1\n  dataOffset(sub_0)\n  0x00\n  codecopy\n  0x00\n  return\nstop\n\nsub_0: assembly {\n        /* \"contracts/Bank.sol\":61:2013  contract Bank {... */\n      mstore(0x40, 0x80)\n      callvalue\n      dup1\n      iszero\n      tag_1\n      jumpi\n      0x00\n      dup1\n      revert\n    tag_1:\n      pop\n      jumpi(tag_2, lt(calldatasize, 0x04))\n      shr(0xe0, calldataload(0x00))\n      dup1\n      0x987ee156\n      gt\n      tag_10\n      jumpi\n      dup1\n      0x987ee156\n      eq\n      tag_6\n      jumpi\n      dup1\n      0xc2da9d0d\n      eq\n      tag_7\n      jumpi\n      dup1\n      0xe1e158a5\n      eq\n      tag_8\n      jumpi\n      dup1\n      0xf3fef3a3\n      eq\n      tag_9\n      jumpi\n      jump(tag_2)\n    tag_10:\n      dup1\n      0x332d56d7\n      eq\n      tag_3\n      jumpi\n      dup1\n      0x47e7ef24\n      eq\n      tag_4\n      jumpi\n      dup1\n      0x97ec642c\n      eq\n      tag_5\n      jumpi\n    tag_2:\n      0x00\n      dup1\n      revert\n        /* \"contracts/Bank.sol\":349:401  mapping (address => UserProfile) public userProfiles */\n    tag_3:\n      tag_11\n      0x04\n      dup1\n      calldatasize\n      sub\n      dup2\n      add\n      swap1\n      tag_12\n      swap2\n      swap1\n      tag_13\n      jump\t// in\n    tag_12:\n      tag_14\n      jump\t// in\n    tag_11:\n      mload(0x40)\n      tag_15\n      swap4\n      swap3\n      swap2\n      swap1\n      tag_16\n      jump\t// in\n    tag_15:\n      mload(0x40)\n      dup1\n      swap2\n      sub\n      swap1\n      return\n        /* \"contracts/Bank.sol\":886:1070  function deposit(address _addr, uint256 amount) public {... */\n    tag_4:\n      tag_17\n      0x04\n      dup1\n      calldatasize\n      sub\n      dup2\n      add\n      swap1\n      tag_18\n      swap2\n      swap1\n      tag_19\n      jump\t// in\n    tag_18:\n      tag_20\n      jump\t// in\n    tag_17:\n      stop\n        /* \"contracts/Bank.sol\":558:606  uint256 public constant MAX_WITHDRAWAL = 5 ether */\n    tag_5:\n      tag_21\n      tag_22\n      jump\t// in\n    tag_21:\n      mload(0x40)\n      tag_23\n      swap2\n      swap1\n      tag_24\n      jump\t// in\n    tag_23:\n      mload(0x40)\n      dup1\n      swap2\n      sub\n      swap1\n      return\n        /* \"contracts/Bank.sol\":1792:2010  function getUserProfile(address _user) public view returns (string memory, address, uint256) {... */\n    tag_6:\n      tag_25\n      0x04\n      dup1\n      calldatasize\n      sub\n      dup2\n      add\n      swap1\n      tag_26\n      swap2\n      swap1\n      tag_13\n      jump\t// in\n    tag_26:\n      tag_27\n      jump\t// in\n    tag_25:\n      mload(0x40)\n      tag_28\n      swap4\n      swap3\n      swap2\n      swap1\n      tag_16\n      jump\t// in\n    tag_28:\n      mload(0x40)\n      dup1\n      swap2\n      sub\n      swap1\n      return\n        /* \"contracts/Bank.sol\":669:837  function setUserProfile(string memory _name, address _addr) public {... */\n    tag_7:\n      tag_29\n      0x04\n      dup1\n      calldatasize\n      sub\n      dup2\n      add\n      swap1\n      tag_30\n      swap2\n      swap1\n      tag_31\n      jump\t// in\n    tag_30:\n      tag_32\n      jump\t// in\n    tag_29:\n      stop\n        /* \"contracts/Bank.sol\":456:501  uint256 public constant MIN_DEPOSIT = 1 ether */\n    tag_8:\n      tag_33\n      tag_34\n      jump\t// in\n    tag_33:\n      mload(0x40)\n      tag_35\n      swap2\n      swap1\n      tag_24\n      jump\t// in\n    tag_35:\n      mload(0x40)\n      dup1\n      swap2\n      sub\n      swap1\n      return\n        /* \"contracts/Bank.sol\":1395:1731  function withdraw(address _addr, uint256 _amount) public {... */\n    tag_9:\n      tag_36\n      0x04\n      dup1\n      calldatasize\n      sub\n      dup2\n      add\n      swap1\n      tag_37\n      swap2\n      swap1\n      tag_19\n      jump\t// in\n    tag_37:\n      tag_38\n      jump\t// in\n    tag_36:\n      stop\n        /* \"contracts/Bank.sol\":349:401  mapping (address => UserProfile) public userProfiles */\n    tag_14:\n      mstore(0x20, 0x00)\n      dup1\n      0x00\n      mstore\n      keccak256(0x00, 0x40)\n      0x00\n      swap2\n      pop\n      swap1\n      pop\n      dup1\n      0x00\n      add\n      dup1\n      sload\n      tag_39\n      swap1\n      tag_40\n      jump\t// in\n    tag_39:\n      dup1\n      0x1f\n      add\n      0x20\n      dup1\n      swap2\n      div\n      mul\n      0x20\n      add\n      mload(0x40)\n      swap1\n      dup2\n      add\n      0x40\n      mstore\n      dup1\n      swap3\n      swap2\n      swap1\n      dup2\n      dup2\n      mstore\n      0x20\n      add\n      dup3\n      dup1\n      sload\n      tag_41\n      swap1\n      tag_40\n      jump\t// in\n    tag_41:\n      dup1\n      iszero\n      tag_42\n      jumpi\n      dup1\n      0x1f\n      lt\n      tag_43\n      jumpi\n      0x0100\n      dup1\n      dup4\n      sload\n      div\n      mul\n      dup4\n      mstore\n      swap2\n      0x20\n      add\n      swap2\n      jump(tag_42)\n    tag_43:\n      dup3\n      add\n      swap2\n      swap1\n      0x00\n      mstore\n      keccak256(0x00, 0x20)\n      swap1\n    tag_44:\n      dup2\n      sload\n      dup2\n      mstore\n      swap1\n      0x01\n      add\n      swap1\n      0x20\n      add\n      dup1\n      dup4\n      gt\n      tag_44\n      jumpi\n      dup3\n      swap1\n      sub\n      0x1f\n      and\n      dup3\n      add\n      swap2\n    tag_42:\n      pop\n      pop\n      pop\n      pop\n      pop\n      swap1\n      dup1\n      0x01\n      add\n      0x00\n      swap1\n      sload\n      swap1\n      0x0100\n      exp\n      swap1\n      div\n      0xffffffffffffffffffffffffffffffffffffffff\n      and\n      swap1\n      dup1\n      0x02\n      add\n      sload\n      swap1\n      pop\n      dup4\n      jump\t// out\n        /* \"contracts/Bank.sol\":886:1070  function deposit(address _addr, uint256 amount) public {... */\n    tag_20:\n        /* \"contracts/Bank.sol\":494:501  1 ether */\n      0x0de0b6b3a7640000\n        /* \"contracts/Bank.sol\":960:966  amount */\n      dup2\n        /* \"contracts/Bank.sol\":960:981  amount >= MIN_DEPOSIT */\n      lt\n      iszero\n        /* \"contracts/Bank.sol\":952:1014  require(amount >= MIN_DEPOSIT, \"Deposit amount is too small.\") */\n      tag_46\n      jumpi\n      mload(0x40)\n      0x08c379a000000000000000000000000000000000000000000000000000000000\n      dup2\n      mstore\n      0x04\n      add\n      tag_47\n      swap1\n      tag_48\n      jump\t// in\n    tag_47:\n      mload(0x40)\n      dup1\n      swap2\n      sub\n      swap1\n      revert\n    tag_46:\n        /* \"contracts/Bank.sol\":1056:1062  amount */\n      dup1\n        /* \"contracts/Bank.sol\":1025:1037  userProfiles */\n      0x00\n        /* \"contracts/Bank.sol\":1025:1044  userProfiles[_addr] */\n      dup1\n        /* \"contracts/Bank.sol\":1038:1043  _addr */\n      dup5\n        /* \"contracts/Bank.sol\":1025:1044  userProfiles[_addr] */\n      0xffffffffffffffffffffffffffffffffffffffff\n      and\n      0xffffffffffffffffffffffffffffffffffffffff\n      and\n      dup2\n      mstore\n      0x20\n      add\n      swap1\n      dup2\n      mstore\n      0x20\n      add\n      0x00\n      keccak256\n        /* \"contracts/Bank.sol\":1025:1052  userProfiles[_addr].balance */\n      0x02\n      add\n      0x00\n        /* \"contracts/Bank.sol\":1025:1062  userProfiles[_addr].balance += amount */\n      dup3\n      dup3\n      sload\n      tag_49\n      swap2\n      swap1\n      tag_50\n      jump\t// in\n    tag_49:\n      swap3\n      pop\n      pop\n      dup2\n      swap1\n      sstore\n      pop\n        /* \"contracts/Bank.sol\":886:1070  function deposit(address _addr, uint256 amount) public {... */\n      pop\n      pop\n      jump\t// out\n        /* \"contracts/Bank.sol\":558:606  uint256 public constant MAX_WITHDRAWAL = 5 ether */\n    tag_22:\n        /* \"contracts/Bank.sol\":599:606  5 ether */\n      0x4563918244f40000\n        /* \"contracts/Bank.sol\":558:606  uint256 public constant MAX_WITHDRAWAL = 5 ether */\n      dup2\n      jump\t// out\n        /* \"contracts/Bank.sol\":1792:2010  function getUserProfile(address _user) public view returns (string memory, address, uint256) {... */\n    tag_27:\n        /* \"contracts/Bank.sol\":1852:1865  string memory */\n      0x60\n        /* \"contracts/Bank.sol\":1867:1874  address */\n      0x00\n        /* \"contracts/Bank.sol\":1876:1883  uint256 */\n      dup1\n        /* \"contracts/Bank.sol\":1896:1919  UserProfile memory user */\n      0x00\n        /* \"contracts/Bank.sol\":1922:1934  userProfiles */\n      dup1\n        /* \"contracts/Bank.sol\":1922:1941  userProfiles[_user] */\n      0x00\n        /* \"contracts/Bank.sol\":1935:1940  _user */\n      dup7\n        /* \"contracts/Bank.sol\":1922:1941  userProfiles[_user] */\n      0xffffffffffffffffffffffffffffffffffffffff\n      and\n      0xffffffffffffffffffffffffffffffffffffffff\n      and\n      dup2\n      mstore\n      0x20\n      add\n      swap1\n      dup2\n      mstore\n      0x20\n      add\n      0x00\n      keccak256\n        /* \"contracts/Bank.sol\":1896:1941  UserProfile memory user = userProfiles[_user] */\n      mload(0x40)\n      dup1\n      0x60\n      add\n      0x40\n      mstore\n      swap1\n      dup2\n      0x00\n      dup3\n      add\n      dup1\n      sload\n      tag_52\n      swap1\n      tag_40\n      jump\t// in\n    tag_52:\n      dup1\n      0x1f\n      add\n      0x20\n      dup1\n      swap2\n      div\n      mul\n      0x20\n      add\n      mload(0x40)\n      swap1\n      dup2\n      add\n      0x40\n      mstore\n      dup1\n      swap3\n      swap2\n      swap1\n      dup2\n      dup2\n      mstore\n      0x20\n      add\n      dup3\n      dup1\n      sload\n      tag_53\n      swap1\n      tag_40\n      jump\t// in\n    tag_53:\n      dup1\n      iszero\n      tag_54\n      jumpi\n      dup1\n      0x1f\n      lt\n      tag_55\n      jumpi\n      0x0100\n      dup1\n      dup4\n      sload\n      div\n      mul\n      dup4\n      mstore\n      swap2\n      0x20\n      add\n      swap2\n      jump(tag_54)\n    tag_55:\n      dup3\n      add\n      swap2\n      swap1\n      0x00\n      mstore\n      keccak256(0x00, 0x20)\n      swap1\n    tag_56:\n      dup2\n      sload\n      dup2\n      mstore\n      swap1\n      0x01\n      add\n      swap1\n      0x20\n      add\n      dup1\n      dup4\n      gt\n      tag_56\n      jumpi\n      dup3\n      swap1\n      sub\n      0x1f\n      and\n      dup3\n      add\n      swap2\n    tag_54:\n      pop\n      pop\n      pop\n      pop\n      pop\n      dup2\n      mstore\n      0x20\n      add\n      0x01\n      dup3\n      add\n      0x00\n      swap1\n      sload\n      swap1\n      0x0100\n      exp\n      swap1\n      div\n      0xffffffffffffffffffffffffffffffffffffffff\n      and\n      0xffffffffffffffffffffffffffffffffffffffff\n      and\n      0xffffffffffffffffffffffffffffffffffffffff\n      and\n      dup2\n      mstore\n      0x20\n      add\n      0x02\n      dup3\n      add\n      sload\n      dup2\n      mstore\n      pop\n      pop\n      swap1\n      pop\n        /* \"contracts/Bank.sol\":1960:1964  user */\n      dup1\n        /* \"contracts/Bank.sol\":1960:1969  user.name */\n      0x00\n      add\n      mload\n        /* \"contracts/Bank.sol\":1971:1975  user */\n      dup2\n        /* \"contracts/Bank.sol\":1971:1987  user.userAddress */\n      0x20\n      add\n      mload\n        /* \"contracts/Bank.sol\":1989:1993  user */\n      dup3\n        /* \"contracts/Bank.sol\":1989:2001  user.balance */\n      0x40\n      add\n      mload\n        /* \"contracts/Bank.sol\":1952:2002  return (user.name, user.userAddress, user.balance) */\n      swap4\n      pop\n      swap4\n      pop\n      swap4\n      pop\n      pop\n        /* \"contracts/Bank.sol\":1792:2010  function getUserProfile(address _user) public view returns (string memory, address, uint256) {... */\n      swap2\n      swap4\n      swap1\n      swap3\n      pop\n      jump\t// out\n        /* \"contracts/Bank.sol\":669:837  function setUserProfile(string memory _name, address _addr) public {... */\n    tag_32:\n        /* \"contracts/Bank.sol\":774:779  _name */\n      dup2\n        /* \"contracts/Bank.sol\":747:759  userProfiles */\n      0x00\n        /* \"contracts/Bank.sol\":747:766  userProfiles[_addr] */\n      dup1\n        /* \"contracts/Bank.sol\":760:765  _addr */\n      dup4\n        /* \"contracts/Bank.sol\":747:766  userProfiles[_addr] */\n      0xffffffffffffffffffffffffffffffffffffffff\n      and\n      0xffffffffffffffffffffffffffffffffffffffff\n      and\n      dup2\n      mstore\n      0x20\n      add\n      swap1\n      dup2\n      mstore\n      0x20\n      add\n      0x00\n      keccak256\n        /* \"contracts/Bank.sol\":747:771  userProfiles[_addr].name */\n      0x00\n      add\n        /* \"contracts/Bank.sol\":747:779  userProfiles[_addr].name = _name */\n      swap1\n      dup2\n      tag_58\n      swap2\n      swap1\n      tag_59\n      jump\t// in\n    tag_58:\n      pop\n        /* \"contracts/Bank.sol\":824:829  _addr */\n      dup1\n        /* \"contracts/Bank.sol\":790:802  userProfiles */\n      0x00\n        /* \"contracts/Bank.sol\":790:809  userProfiles[_addr] */\n      dup1\n        /* \"contracts/Bank.sol\":803:808  _addr */\n      dup4\n        /* \"contracts/Bank.sol\":790:809  userProfiles[_addr] */\n      0xffffffffffffffffffffffffffffffffffffffff\n      and\n      0xffffffffffffffffffffffffffffffffffffffff\n      and\n      dup2\n      mstore\n      0x20\n      add\n      swap1\n      dup2\n      mstore\n      0x20\n      add\n      0x00\n      keccak256\n        /* \"contracts/Bank.sol\":790:821  userProfiles[_addr].userAddress */\n      0x01\n      add\n      0x00\n        /* \"contracts/Bank.sol\":790:829  userProfiles[_addr].userAddress = _addr */\n      0x0100\n      exp\n      dup2\n      sload\n      dup2\n      0xffffffffffffffffffffffffffffffffffffffff\n      mul\n      not\n      and\n      swap1\n      dup4\n      0xffffffffffffffffffffffffffffffffffffffff\n      and\n      mul\n      or\n      swap1\n      sstore\n      pop\n        /* \"contracts/Bank.sol\":669:837  function setUserProfile(string memory _name, address _addr) public {... */\n      pop\n      pop\n      jump\t// out\n        /* \"contracts/Bank.sol\":456:501  uint256 public constant MIN_DEPOSIT = 1 ether */\n    tag_34:\n        /* \"contracts/Bank.sol\":494:501  1 ether */\n      0x0de0b6b3a7640000\n        /* \"contracts/Bank.sol\":456:501  uint256 public constant MIN_DEPOSIT = 1 ether */\n      dup2\n      jump\t// out\n        /* \"contracts/Bank.sol\":1395:1731  function withdraw(address _addr, uint256 _amount) public {... */\n    tag_38:\n        /* \"contracts/Bank.sol\":599:606  5 ether */\n      0x4563918244f40000\n        /* \"contracts/Bank.sol\":1471:1478  _amount */\n      dup2\n        /* \"contracts/Bank.sol\":1471:1496  _amount <= MAX_WITHDRAWAL */\n      gt\n      iszero\n        /* \"contracts/Bank.sol\":1463:1545  require(_amount <= MAX_WITHDRAWAL, \"Withdrawal amount exceeds the maximum limit.\") */\n      tag_61\n      jumpi\n      mload(0x40)\n      0x08c379a000000000000000000000000000000000000000000000000000000000\n      dup2\n      mstore\n      0x04\n      add\n      tag_62\n      swap1\n      tag_63\n      jump\t// in\n    tag_62:\n      mload(0x40)\n      dup1\n      swap2\n      sub\n      swap1\n      revert\n    tag_61:\n        /* \"contracts/Bank.sol\":1595:1602  _amount */\n      dup1\n        /* \"contracts/Bank.sol\":1564:1576  userProfiles */\n      0x00\n        /* \"contracts/Bank.sol\":1564:1583  userProfiles[_addr] */\n      dup1\n        /* \"contracts/Bank.sol\":1577:1582  _addr */\n      dup5\n        /* \"contracts/Bank.sol\":1564:1583  userProfiles[_addr] */\n      0xffffffffffffffffffffffffffffffffffffffff\n      and\n      0xffffffffffffffffffffffffffffffffffffffff\n      and\n      dup2\n      mstore\n      0x20\n      add\n      swap1\n      dup2\n      mstore\n      0x20\n      add\n      0x00\n      keccak256\n        /* \"contracts/Bank.sol\":1564:1591  userProfiles[_addr].balance */\n      0x02\n      add\n      sload\n        /* \"contracts/Bank.sol\":1564:1602  userProfiles[_addr].balance >= _amount */\n      lt\n      iszero\n        /* \"contracts/Bank.sol\":1556:1628  require(userProfiles[_addr].balance >= _amount, \"Insufficient balance.\") */\n      tag_64\n      jumpi\n      mload(0x40)\n      0x08c379a000000000000000000000000000000000000000000000000000000000\n      dup2\n      mstore\n      0x04\n      add\n      tag_65\n      swap1\n      tag_66\n      jump\t// in\n    tag_65:\n      mload(0x40)\n      dup1\n      swap2\n      sub\n      swap1\n      revert\n    tag_64:\n        /* \"contracts/Bank.sol\":1670:1677  _amount */\n      dup1\n        /* \"contracts/Bank.sol\":1639:1651  userProfiles */\n      0x00\n        /* \"contracts/Bank.sol\":1639:1658  userProfiles[_addr] */\n      dup1\n        /* \"contracts/Bank.sol\":1652:1657  _addr */\n      dup5\n        /* \"contracts/Bank.sol\":1639:1658  userProfiles[_addr] */\n      0xffffffffffffffffffffffffffffffffffffffff\n      and\n      0xffffffffffffffffffffffffffffffffffffffff\n      and\n      dup2\n      mstore\n      0x20\n      add\n      swap1\n      dup2\n      mstore\n      0x20\n      add\n      0x00\n      keccak256\n        /* \"contracts/Bank.sol\":1639:1666  userProfiles[_addr].balance */\n      0x02\n      add\n      0x00\n        /* \"contracts/Bank.sol\":1639:1677  userProfiles[_addr].balance -= _amount */\n      dup3\n      dup3\n      sload\n      tag_67\n      swap2\n      swap1\n      tag_68\n      jump\t// in\n    tag_67:\n      swap3\n      pop\n      pop\n      dup2\n      swap1\n      sstore\n      pop\n        /* \"contracts/Bank.sol\":1395:1731  function withdraw(address _addr, uint256 _amount) public {... */\n      pop\n      pop\n      jump\t// out\n        /* \"#utility.yul\":7:82   */\n    tag_69:\n        /* \"#utility.yul\":40:46   */\n      0x00\n        /* \"#utility.yul\":73:75   */\n      0x40\n        /* \"#utility.yul\":67:76   */\n      mload\n        /* \"#utility.yul\":57:76   */\n      swap1\n      pop\n        /* \"#utility.yul\":7:82   */\n      swap1\n      jump\t// out\n        /* \"#utility.yul\":88:205   */\n    tag_70:\n        /* \"#utility.yul\":197:198   */\n      0x00\n        /* \"#utility.yul\":194:195   */\n      dup1\n        /* \"#utility.yul\":187:199   */\n      revert\n        /* \"#utility.yul\":211:328   */\n    tag_71:\n        /* \"#utility.yul\":320:321   */\n      0x00\n        /* \"#utility.yul\":317:318   */\n      dup1\n        /* \"#utility.yul\":310:322   */\n      revert\n        /* \"#utility.yul\":334:460   */\n    tag_72:\n        /* \"#utility.yul\":371:378   */\n      0x00\n        /* \"#utility.yul\":411:453   */\n      0xffffffffffffffffffffffffffffffffffffffff\n        /* \"#utility.yul\":404:409   */\n      dup3\n        /* \"#utility.yul\":400:454   */\n      and\n        /* \"#utility.yul\":389:454   */\n      swap1\n      pop\n        /* \"#utility.yul\":334:460   */\n      swap2\n      swap1\n      pop\n      jump\t// out\n        /* \"#utility.yul\":466:562   */\n    tag_73:\n        /* \"#utility.yul\":503:510   */\n      0x00\n        /* \"#utility.yul\":532:556   */\n      tag_124\n        /* \"#utility.yul\":550:555   */\n      dup3\n        /* \"#utility.yul\":532:556   */\n      tag_72\n      jump\t// in\n    tag_124:\n        /* \"#utility.yul\":521:556   */\n      swap1\n      pop\n        /* \"#utility.yul\":466:562   */\n      swap2\n      swap1\n      pop\n      jump\t// out\n        /* \"#utility.yul\":568:690   */\n    tag_74:\n        /* \"#utility.yul\":641:665   */\n      tag_126\n        /* \"#utility.yul\":659:664   */\n      dup2\n        /* \"#utility.yul\":641:665   */\n      tag_73\n      jump\t// in\n    tag_126:\n        /* \"#utility.yul\":634:639   */\n      dup2\n        /* \"#utility.yul\":631:666   */\n      eq\n        /* \"#utility.yul\":621:684   */\n      tag_127\n      jumpi\n        /* \"#utility.yul\":680:681   */\n      0x00\n        /* \"#utility.yul\":677:678   */\n      dup1\n        /* \"#utility.yul\":670:682   */\n      revert\n        /* \"#utility.yul\":621:684   */\n    tag_127:\n        /* \"#utility.yul\":568:690   */\n      pop\n      jump\t// out\n        /* \"#utility.yul\":696:835   */\n    tag_75:\n        /* \"#utility.yul\":742:747   */\n      0x00\n        /* \"#utility.yul\":780:786   */\n      dup2\n        /* \"#utility.yul\":767:787   */\n      calldataload\n        /* \"#utility.yul\":758:787   */\n      swap1\n      pop\n        /* \"#utility.yul\":796:829   */\n      tag_129\n        /* \"#utility.yul\":823:828   */\n      dup2\n        /* \"#utility.yul\":796:829   */\n      tag_74\n      jump\t// in\n    tag_129:\n        /* \"#utility.yul\":696:835   */\n      swap3\n      swap2\n      pop\n      pop\n      jump\t// out\n        /* \"#utility.yul\":841:1170   */\n    tag_13:\n        /* \"#utility.yul\":900:906   */\n      0x00\n        /* \"#utility.yul\":949:951   */\n      0x20\n        /* \"#utility.yul\":937:946   */\n      dup3\n        /* \"#utility.yul\":928:935   */\n      dup5\n        /* \"#utility.yul\":924:947   */\n      sub\n        /* \"#utility.yul\":920:952   */\n      slt\n        /* \"#utility.yul\":917:1036   */\n      iszero\n      tag_131\n      jumpi\n        /* \"#utility.yul\":955:1034   */\n      tag_132\n      tag_70\n      jump\t// in\n    tag_132:\n        /* \"#utility.yul\":917:1036   */\n    tag_131:\n        /* \"#utility.yul\":1075:1076   */\n      0x00\n        /* \"#utility.yul\":1100:1153   */\n      tag_133\n        /* \"#utility.yul\":1145:1152   */\n      dup5\n        /* \"#utility.yul\":1136:1142   */\n      dup3\n        /* \"#utility.yul\":1125:1134   */\n      dup6\n        /* \"#utility.yul\":1121:1143   */\n      add\n        /* \"#utility.yul\":1100:1153   */\n      tag_75\n      jump\t// in\n    tag_133:\n        /* \"#utility.yul\":1090:1153   */\n      swap2\n      pop\n        /* \"#utility.yul\":1046:1163   */\n      pop\n        /* \"#utility.yul\":841:1170   */\n      swap3\n      swap2\n      pop\n      pop\n      jump\t// out\n        /* \"#utility.yul\":1176:1275   */\n    tag_76:\n        /* \"#utility.yul\":1228:1234   */\n      0x00\n        /* \"#utility.yul\":1262:1267   */\n      dup2\n        /* \"#utility.yul\":1256:1268   */\n      mload\n        /* \"#utility.yul\":1246:1268   */\n      swap1\n      pop\n        /* \"#utility.yul\":1176:1275   */\n      swap2\n      swap1\n      pop\n      jump\t// out\n        /* \"#utility.yul\":1281:1450   */\n    tag_77:\n        /* \"#utility.yul\":1365:1376   */\n      0x00\n        /* \"#utility.yul\":1399:1405   */\n      dup3\n        /* \"#utility.yul\":1394:1397   */\n      dup3\n        /* \"#utility.yul\":1387:1406   */\n      mstore\n        /* \"#utility.yul\":1439:1443   */\n      0x20\n        /* \"#utility.yul\":1434:1437   */\n      dup3\n        /* \"#utility.yul\":1430:1444   */\n      add\n        /* \"#utility.yul\":1415:1444   */\n      swap1\n      pop\n        /* \"#utility.yul\":1281:1450   */\n      swap3\n      swap2\n      pop\n      pop\n      jump\t// out\n        /* \"#utility.yul\":1456:1595   */\n    tag_78:\n        /* \"#utility.yul\":1545:1551   */\n      dup3\n        /* \"#utility.yul\":1540:1543   */\n      dup2\n        /* \"#utility.yul\":1535:1538   */\n      dup4\n        /* \"#utility.yul\":1529:1552   */\n      mcopy\n        /* \"#utility.yul\":1586:1587   */\n      0x00\n        /* \"#utility.yul\":1577:1583   */\n      dup4\n        /* \"#utility.yul\":1572:1575   */\n      dup4\n        /* \"#utility.yul\":1568:1584   */\n      add\n        /* \"#utility.yul\":1561:1588   */\n      mstore\n        /* \"#utility.yul\":1456:1595   */\n      pop\n      pop\n      pop\n      jump\t// out\n        /* \"#utility.yul\":1601:1703   */\n    tag_79:\n        /* \"#utility.yul\":1642:1648   */\n      0x00\n        /* \"#utility.yul\":1693:1695   */\n      0x1f\n        /* \"#utility.yul\":1689:1696   */\n      not\n        /* \"#utility.yul\":1684:1686   */\n      0x1f\n        /* \"#utility.yul\":1677:1682   */\n      dup4\n        /* \"#utility.yul\":1673:1687   */\n      add\n        /* \"#utility.yul\":1669:1697   */\n      and\n        /* \"#utility.yul\":1659:1697   */\n      swap1\n      pop\n        /* \"#utility.yul\":1601:1703   */\n      swap2\n      swap1\n      pop\n      jump\t// out\n        /* \"#utility.yul\":1709:2086   */\n    tag_80:\n        /* \"#utility.yul\":1797:1800   */\n      0x00\n        /* \"#utility.yul\":1825:1864   */\n      tag_139\n        /* \"#utility.yul\":1858:1863   */\n      dup3\n        /* \"#utility.yul\":1825:1864   */\n      tag_76\n      jump\t// in\n    tag_139:\n        /* \"#utility.yul\":1880:1951   */\n      tag_140\n        /* \"#utility.yul\":1944:1950   */\n      dup2\n        /* \"#utility.yul\":1939:1942   */\n      dup6\n        /* \"#utility.yul\":1880:1951   */\n      tag_77\n      jump\t// in\n    tag_140:\n        /* \"#utility.yul\":1873:1951   */\n      swap4\n      pop\n        /* \"#utility.yul\":1960:2025   */\n      tag_141\n        /* \"#utility.yul\":2018:2024   */\n      dup2\n        /* \"#utility.yul\":2013:2016   */\n      dup6\n        /* \"#utility.yul\":2006:2010   */\n      0x20\n        /* \"#utility.yul\":1999:2004   */\n      dup7\n        /* \"#utility.yul\":1995:2011   */\n      add\n        /* \"#utility.yul\":1960:2025   */\n      tag_78\n      jump\t// in\n    tag_141:\n        /* \"#utility.yul\":2050:2079   */\n      tag_142\n        /* \"#utility.yul\":2072:2078   */\n      dup2\n        /* \"#utility.yul\":2050:2079   */\n      tag_79\n      jump\t// in\n    tag_142:\n        /* \"#utility.yul\":2045:2048   */\n      dup5\n        /* \"#utility.yul\":2041:2080   */\n      add\n        /* \"#utility.yul\":2034:2080   */\n      swap2\n      pop\n        /* \"#utility.yul\":1801:2086   */\n      pop\n        /* \"#utility.yul\":1709:2086   */\n      swap3\n      swap2\n      pop\n      pop\n      jump\t// out\n        /* \"#utility.yul\":2092:2210   */\n    tag_81:\n        /* \"#utility.yul\":2179:2203   */\n      tag_144\n        /* \"#utility.yul\":2197:2202   */\n      dup2\n        /* \"#utility.yul\":2179:2203   */\n      tag_73\n      jump\t// in\n    tag_144:\n        /* \"#utility.yul\":2174:2177   */\n      dup3\n        /* \"#utility.yul\":2167:2204   */\n      mstore\n        /* \"#utility.yul\":2092:2210   */\n      pop\n      pop\n      jump\t// out\n        /* \"#utility.yul\":2216:2293   */\n    tag_82:\n        /* \"#utility.yul\":2253:2260   */\n      0x00\n        /* \"#utility.yul\":2282:2287   */\n      dup2\n        /* \"#utility.yul\":2271:2287   */\n      swap1\n      pop\n        /* \"#utility.yul\":2216:2293   */\n      swap2\n      swap1\n      pop\n      jump\t// out\n        /* \"#utility.yul\":2299:2417   */\n    tag_83:\n        /* \"#utility.yul\":2386:2410   */\n      tag_147\n        /* \"#utility.yul\":2404:2409   */\n      dup2\n        /* \"#utility.yul\":2386:2410   */\n      tag_82\n      jump\t// in\n    tag_147:\n        /* \"#utility.yul\":2381:2384   */\n      dup3\n        /* \"#utility.yul\":2374:2411   */\n      mstore\n        /* \"#utility.yul\":2299:2417   */\n      pop\n      pop\n      jump\t// out\n        /* \"#utility.yul\":2423:2956   */\n    tag_16:\n        /* \"#utility.yul\":2592:2596   */\n      0x00\n        /* \"#utility.yul\":2630:2632   */\n      0x60\n        /* \"#utility.yul\":2619:2628   */\n      dup3\n        /* \"#utility.yul\":2615:2633   */\n      add\n        /* \"#utility.yul\":2607:2633   */\n      swap1\n      pop\n        /* \"#utility.yul\":2679:2688   */\n      dup2\n        /* \"#utility.yul\":2673:2677   */\n      dup2\n        /* \"#utility.yul\":2669:2689   */\n      sub\n        /* \"#utility.yul\":2665:2666   */\n      0x00\n        /* \"#utility.yul\":2654:2663   */\n      dup4\n        /* \"#utility.yul\":2650:2667   */\n      add\n        /* \"#utility.yul\":2643:2690   */\n      mstore\n        /* \"#utility.yul\":2707:2785   */\n      tag_149\n        /* \"#utility.yul\":2780:2784   */\n      dup2\n        /* \"#utility.yul\":2771:2777   */\n      dup7\n        /* \"#utility.yul\":2707:2785   */\n      tag_80\n      jump\t// in\n    tag_149:\n        /* \"#utility.yul\":2699:2785   */\n      swap1\n      pop\n        /* \"#utility.yul\":2795:2867   */\n      tag_150\n        /* \"#utility.yul\":2863:2865   */\n      0x20\n        /* \"#utility.yul\":2852:2861   */\n      dup4\n        /* \"#utility.yul\":2848:2866   */\n      add\n        /* \"#utility.yul\":2839:2845   */\n      dup6\n        /* \"#utility.yul\":2795:2867   */\n      tag_81\n      jump\t// in\n    tag_150:\n        /* \"#utility.yul\":2877:2949   */\n      tag_151\n        /* \"#utility.yul\":2945:2947   */\n      0x40\n        /* \"#utility.yul\":2934:2943   */\n      dup4\n        /* \"#utility.yul\":2930:2948   */\n      add\n        /* \"#utility.yul\":2921:2927   */\n      dup5\n        /* \"#utility.yul\":2877:2949   */\n      tag_83\n      jump\t// in\n    tag_151:\n        /* \"#utility.yul\":2423:2956   */\n      swap5\n      swap4\n      pop\n      pop\n      pop\n      pop\n      jump\t// out\n        /* \"#utility.yul\":2962:3084   */\n    tag_84:\n        /* \"#utility.yul\":3035:3059   */\n      tag_153\n        /* \"#utility.yul\":3053:3058   */\n      dup2\n        /* \"#utility.yul\":3035:3059   */\n      tag_82\n      jump\t// in\n    tag_153:\n        /* \"#utility.yul\":3028:3033   */\n      dup2\n        /* \"#utility.yul\":3025:3060   */\n      eq\n        /* \"#utility.yul\":3015:3078   */\n      tag_154\n      jumpi\n        /* \"#utility.yul\":3074:3075   */\n      0x00\n        /* \"#utility.yul\":3071:3072   */\n      dup1\n        /* \"#utility.yul\":3064:3076   */\n      revert\n        /* \"#utility.yul\":3015:3078   */\n    tag_154:\n        /* \"#utility.yul\":2962:3084   */\n      pop\n      jump\t// out\n        /* \"#utility.yul\":3090:3229   */\n    tag_85:\n        /* \"#utility.yul\":3136:3141   */\n      0x00\n        /* \"#utility.yul\":3174:3180   */\n      dup2\n        /* \"#utility.yul\":3161:3181   */\n      calldataload\n        /* \"#utility.yul\":3152:3181   */\n      swap1\n      pop\n        /* \"#utility.yul\":3190:3223   */\n      tag_156\n        /* \"#utility.yul\":3217:3222   */\n      dup2\n        /* \"#utility.yul\":3190:3223   */\n      tag_84\n      jump\t// in\n    tag_156:\n        /* \"#utility.yul\":3090:3229   */\n      swap3\n      swap2\n      pop\n      pop\n      jump\t// out\n        /* \"#utility.yul\":3235:3709   */\n    tag_19:\n        /* \"#utility.yul\":3303:3309   */\n      0x00\n        /* \"#utility.yul\":3311:3317   */\n      dup1\n        /* \"#utility.yul\":3360:3362   */\n      0x40\n        /* \"#utility.yul\":3348:3357   */\n      dup4\n        /* \"#utility.yul\":3339:3346   */\n      dup6\n        /* \"#utility.yul\":3335:3358   */\n      sub\n        /* \"#utility.yul\":3331:3363   */\n      slt\n        /* \"#utility.yul\":3328:3447   */\n      iszero\n      tag_158\n      jumpi\n        /* \"#utility.yul\":3366:3445   */\n      tag_159\n      tag_70\n      jump\t// in\n    tag_159:\n        /* \"#utility.yul\":3328:3447   */\n    tag_158:\n        /* \"#utility.yul\":3486:3487   */\n      0x00\n        /* \"#utility.yul\":3511:3564   */\n      tag_160\n        /* \"#utility.yul\":3556:3563   */\n      dup6\n        /* \"#utility.yul\":3547:3553   */\n      dup3\n        /* \"#utility.yul\":3536:3545   */\n      dup7\n        /* \"#utility.yul\":3532:3554   */\n      add\n        /* \"#utility.yul\":3511:3564   */\n      tag_75\n      jump\t// in\n    tag_160:\n        /* \"#utility.yul\":3501:3564   */\n      swap3\n      pop\n        /* \"#utility.yul\":3457:3574   */\n      pop\n        /* \"#utility.yul\":3613:3615   */\n      0x20\n        /* \"#utility.yul\":3639:3692   */\n      tag_161\n        /* \"#utility.yul\":3684:3691   */\n      dup6\n        /* \"#utility.yul\":3675:3681   */\n      dup3\n        /* \"#utility.yul\":3664:3673   */\n      dup7\n        /* \"#utility.yul\":3660:3682   */\n      add\n        /* \"#utility.yul\":3639:3692   */\n      tag_85\n      jump\t// in\n    tag_161:\n        /* \"#utility.yul\":3629:3692   */\n      swap2\n      pop\n        /* \"#utility.yul\":3584:3702   */\n      pop\n        /* \"#utility.yul\":3235:3709   */\n      swap3\n      pop\n      swap3\n      swap1\n      pop\n      jump\t// out\n        /* \"#utility.yul\":3715:3937   */\n    tag_24:\n        /* \"#utility.yul\":3808:3812   */\n      0x00\n        /* \"#utility.yul\":3846:3848   */\n      0x20\n        /* \"#utility.yul\":3835:3844   */\n      dup3\n        /* \"#utility.yul\":3831:3849   */\n      add\n        /* \"#utility.yul\":3823:3849   */\n      swap1\n      pop\n        /* \"#utility.yul\":3859:3930   */\n      tag_163\n        /* \"#utility.yul\":3927:3928   */\n      0x00\n        /* \"#utility.yul\":3916:3925   */\n      dup4\n        /* \"#utility.yul\":3912:3929   */\n      add\n        /* \"#utility.yul\":3903:3909   */\n      dup5\n        /* \"#utility.yul\":3859:3930   */\n      tag_83\n      jump\t// in\n    tag_163:\n        /* \"#utility.yul\":3715:3937   */\n      swap3\n      swap2\n      pop\n      pop\n      jump\t// out\n        /* \"#utility.yul\":3943:4060   */\n    tag_86:\n        /* \"#utility.yul\":4052:4053   */\n      0x00\n        /* \"#utility.yul\":4049:4050   */\n      dup1\n        /* \"#utility.yul\":4042:4054   */\n      revert\n        /* \"#utility.yul\":4066:4183   */\n    tag_87:\n        /* \"#utility.yul\":4175:4176   */\n      0x00\n        /* \"#utility.yul\":4172:4173   */\n      dup1\n        /* \"#utility.yul\":4165:4177   */\n      revert\n        /* \"#utility.yul\":4189:4369   */\n    tag_88:\n        /* \"#utility.yul\":4237:4314   */\n      0x4e487b7100000000000000000000000000000000000000000000000000000000\n        /* \"#utility.yul\":4234:4235   */\n      0x00\n        /* \"#utility.yul\":4227:4315   */\n      mstore\n        /* \"#utility.yul\":4334:4338   */\n      0x41\n        /* \"#utility.yul\":4331:4332   */\n      0x04\n        /* \"#utility.yul\":4324:4339   */\n      mstore\n        /* \"#utility.yul\":4358:4362   */\n      0x24\n        /* \"#utility.yul\":4355:4356   */\n      0x00\n        /* \"#utility.yul\":4348:4363   */\n      revert\n        /* \"#utility.yul\":4375:4656   */\n    tag_89:\n        /* \"#utility.yul\":4458:4485   */\n      tag_168\n        /* \"#utility.yul\":4480:4484   */\n      dup3\n        /* \"#utility.yul\":4458:4485   */\n      tag_79\n      jump\t// in\n    tag_168:\n        /* \"#utility.yul\":4450:4456   */\n      dup2\n        /* \"#utility.yul\":4446:4486   */\n      add\n        /* \"#utility.yul\":4588:4594   */\n      dup2\n        /* \"#utility.yul\":4576:4586   */\n      dup2\n        /* \"#utility.yul\":4573:4595   */\n      lt\n        /* \"#utility.yul\":4552:4570   */\n      0xffffffffffffffff\n        /* \"#utility.yul\":4540:4550   */\n      dup3\n        /* \"#utility.yul\":4537:4571   */\n      gt\n        /* \"#utility.yul\":4534:4596   */\n      or\n        /* \"#utility.yul\":4531:4619   */\n      iszero\n      tag_169\n      jumpi\n        /* \"#utility.yul\":4599:4617   */\n      tag_170\n      tag_88\n      jump\t// in\n    tag_170:\n        /* \"#utility.yul\":4531:4619   */\n    tag_169:\n        /* \"#utility.yul\":4639:4649   */\n      dup1\n        /* \"#utility.yul\":4635:4637   */\n      0x40\n        /* \"#utility.yul\":4628:4650   */\n      mstore\n        /* \"#utility.yul\":4418:4656   */\n      pop\n        /* \"#utility.yul\":4375:4656   */\n      pop\n      pop\n      jump\t// out\n        /* \"#utility.yul\":4662:4791   */\n    tag_90:\n        /* \"#utility.yul\":4696:4702   */\n      0x00\n        /* \"#utility.yul\":4723:4743   */\n      tag_172\n      tag_69\n      jump\t// in\n    tag_172:\n        /* \"#utility.yul\":4713:4743   */\n      swap1\n      pop\n        /* \"#utility.yul\":4752:4785   */\n      tag_173\n        /* \"#utility.yul\":4780:4784   */\n      dup3\n        /* \"#utility.yul\":4772:4778   */\n      dup3\n        /* \"#utility.yul\":4752:4785   */\n      tag_89\n      jump\t// in\n    tag_173:\n        /* \"#utility.yul\":4662:4791   */\n      swap2\n      swap1\n      pop\n      jump\t// out\n        /* \"#utility.yul\":4797:5105   */\n    tag_91:\n        /* \"#utility.yul\":4859:4863   */\n      0x00\n        /* \"#utility.yul\":4949:4967   */\n      0xffffffffffffffff\n        /* \"#utility.yul\":4941:4947   */\n      dup3\n        /* \"#utility.yul\":4938:4968   */\n      gt\n        /* \"#utility.yul\":4935:4991   */\n      iszero\n      tag_175\n      jumpi\n        /* \"#utility.yul\":4971:4989   */\n      tag_176\n      tag_88\n      jump\t// in\n    tag_176:\n        /* \"#utility.yul\":4935:4991   */\n    tag_175:\n        /* \"#utility.yul\":5009:5038   */\n      tag_177\n        /* \"#utility.yul\":5031:5037   */\n      dup3\n        /* \"#utility.yul\":5009:5038   */\n      tag_79\n      jump\t// in\n    tag_177:\n        /* \"#utility.yul\":5001:5038   */\n      swap1\n      pop\n        /* \"#utility.yul\":5093:5097   */\n      0x20\n        /* \"#utility.yul\":5087:5091   */\n      dup2\n        /* \"#utility.yul\":5083:5098   */\n      add\n        /* \"#utility.yul\":5075:5098   */\n      swap1\n      pop\n        /* \"#utility.yul\":4797:5105   */\n      swap2\n      swap1\n      pop\n      jump\t// out\n        /* \"#utility.yul\":5111:5259   */\n    tag_92:\n        /* \"#utility.yul\":5209:5215   */\n      dup3\n        /* \"#utility.yul\":5204:5207   */\n      dup2\n        /* \"#utility.yul\":5199:5202   */\n      dup4\n        /* \"#utility.yul\":5186:5216   */\n      calldatacopy\n        /* \"#utility.yul\":5250:5251   */\n      0x00\n        /* \"#utility.yul\":5241:5247   */\n      dup4\n        /* \"#utility.yul\":5236:5239   */\n      dup4\n        /* \"#utility.yul\":5232:5248   */\n      add\n        /* \"#utility.yul\":5225:5252   */\n      mstore\n        /* \"#utility.yul\":5111:5259   */\n      pop\n      pop\n      pop\n      jump\t// out\n        /* \"#utility.yul\":5265:5690   */\n    tag_93:\n        /* \"#utility.yul\":5343:5348   */\n      0x00\n        /* \"#utility.yul\":5368:5434   */\n      tag_180\n        /* \"#utility.yul\":5384:5433   */\n      tag_181\n        /* \"#utility.yul\":5426:5432   */\n      dup5\n        /* \"#utility.yul\":5384:5433   */\n      tag_91\n      jump\t// in\n    tag_181:\n        /* \"#utility.yul\":5368:5434   */\n      tag_90\n      jump\t// in\n    tag_180:\n        /* \"#utility.yul\":5359:5434   */\n      swap1\n      pop\n        /* \"#utility.yul\":5457:5463   */\n      dup3\n        /* \"#utility.yul\":5450:5455   */\n      dup2\n        /* \"#utility.yul\":5443:5464   */\n      mstore\n        /* \"#utility.yul\":5495:5499   */\n      0x20\n        /* \"#utility.yul\":5488:5493   */\n      dup2\n        /* \"#utility.yul\":5484:5500   */\n      add\n        /* \"#utility.yul\":5533:5536   */\n      dup5\n        /* \"#utility.yul\":5524:5530   */\n      dup5\n        /* \"#utility.yul\":5519:5522   */\n      dup5\n        /* \"#utility.yul\":5515:5531   */\n      add\n        /* \"#utility.yul\":5512:5537   */\n      gt\n        /* \"#utility.yul\":5509:5621   */\n      iszero\n      tag_182\n      jumpi\n        /* \"#utility.yul\":5540:5619   */\n      tag_183\n      tag_87\n      jump\t// in\n    tag_183:\n        /* \"#utility.yul\":5509:5621   */\n    tag_182:\n        /* \"#utility.yul\":5630:5684   */\n      tag_184\n        /* \"#utility.yul\":5677:5683   */\n      dup5\n        /* \"#utility.yul\":5672:5675   */\n      dup3\n        /* \"#utility.yul\":5667:5670   */\n      dup6\n        /* \"#utility.yul\":5630:5684   */\n      tag_92\n      jump\t// in\n    tag_184:\n        /* \"#utility.yul\":5349:5690   */\n      pop\n        /* \"#utility.yul\":5265:5690   */\n      swap4\n      swap3\n      pop\n      pop\n      pop\n      jump\t// out\n        /* \"#utility.yul\":5710:6050   */\n    tag_94:\n        /* \"#utility.yul\":5766:5771   */\n      0x00\n        /* \"#utility.yul\":5815:5818   */\n      dup3\n        /* \"#utility.yul\":5808:5812   */\n      0x1f\n        /* \"#utility.yul\":5800:5806   */\n      dup4\n        /* \"#utility.yul\":5796:5813   */\n      add\n        /* \"#utility.yul\":5792:5819   */\n      slt\n        /* \"#utility.yul\":5782:5904   */\n      tag_186\n      jumpi\n        /* \"#utility.yul\":5823:5902   */\n      tag_187\n      tag_86\n      jump\t// in\n    tag_187:\n        /* \"#utility.yul\":5782:5904   */\n    tag_186:\n        /* \"#utility.yul\":5940:5946   */\n      dup2\n        /* \"#utility.yul\":5927:5947   */\n      calldataload\n        /* \"#utility.yul\":5965:6044   */\n      tag_188\n        /* \"#utility.yul\":6040:6043   */\n      dup5\n        /* \"#utility.yul\":6032:6038   */\n      dup3\n        /* \"#utility.yul\":6025:6029   */\n      0x20\n        /* \"#utility.yul\":6017:6023   */\n      dup7\n        /* \"#utility.yul\":6013:6030   */\n      add\n        /* \"#utility.yul\":5965:6044   */\n      tag_93\n      jump\t// in\n    tag_188:\n        /* \"#utility.yul\":5956:6044   */\n      swap2\n      pop\n        /* \"#utility.yul\":5772:6050   */\n      pop\n        /* \"#utility.yul\":5710:6050   */\n      swap3\n      swap2\n      pop\n      pop\n      jump\t// out\n        /* \"#utility.yul\":6056:6710   */\n    tag_31:\n        /* \"#utility.yul\":6134:6140   */\n      0x00\n        /* \"#utility.yul\":6142:6148   */\n      dup1\n        /* \"#utility.yul\":6191:6193   */\n      0x40\n        /* \"#utility.yul\":6179:6188   */\n      dup4\n        /* \"#utility.yul\":6170:6177   */\n      dup6\n        /* \"#utility.yul\":6166:6189   */\n      sub\n        /* \"#utility.yul\":6162:6194   */\n      slt\n        /* \"#utility.yul\":6159:6278   */\n      iszero\n      tag_190\n      jumpi\n        /* \"#utility.yul\":6197:6276   */\n      tag_191\n      tag_70\n      jump\t// in\n    tag_191:\n        /* \"#utility.yul\":6159:6278   */\n    tag_190:\n        /* \"#utility.yul\":6345:6346   */\n      0x00\n        /* \"#utility.yul\":6334:6343   */\n      dup4\n        /* \"#utility.yul\":6330:6347   */\n      add\n        /* \"#utility.yul\":6317:6348   */\n      calldataload\n        /* \"#utility.yul\":6375:6393   */\n      0xffffffffffffffff\n        /* \"#utility.yul\":6367:6373   */\n      dup2\n        /* \"#utility.yul\":6364:6394   */\n      gt\n        /* \"#utility.yul\":6361:6478   */\n      iszero\n      tag_192\n      jumpi\n        /* \"#utility.yul\":6397:6476   */\n      tag_193\n      tag_71\n      jump\t// in\n    tag_193:\n        /* \"#utility.yul\":6361:6478   */\n    tag_192:\n        /* \"#utility.yul\":6502:6565   */\n      tag_194\n        /* \"#utility.yul\":6557:6564   */\n      dup6\n        /* \"#utility.yul\":6548:6554   */\n      dup3\n        /* \"#utility.yul\":6537:6546   */\n      dup7\n        /* \"#utility.yul\":6533:6555   */\n      add\n        /* \"#utility.yul\":6502:6565   */\n      tag_94\n      jump\t// in\n    tag_194:\n        /* \"#utility.yul\":6492:6565   */\n      swap3\n      pop\n        /* \"#utility.yul\":6288:6575   */\n      pop\n        /* \"#utility.yul\":6614:6616   */\n      0x20\n        /* \"#utility.yul\":6640:6693   */\n      tag_195\n        /* \"#utility.yul\":6685:6692   */\n      dup6\n        /* \"#utility.yul\":6676:6682   */\n      dup3\n        /* \"#utility.yul\":6665:6674   */\n      dup7\n        /* \"#utility.yul\":6661:6683   */\n      add\n        /* \"#utility.yul\":6640:6693   */\n      tag_75\n      jump\t// in\n    tag_195:\n        /* \"#utility.yul\":6630:6693   */\n      swap2\n      pop\n        /* \"#utility.yul\":6585:6703   */\n      pop\n        /* \"#utility.yul\":6056:6710   */\n      swap3\n      pop\n      swap3\n      swap1\n      pop\n      jump\t// out\n        /* \"#utility.yul\":6716:6896   */\n    tag_95:\n        /* \"#utility.yul\":6764:6841   */\n      0x4e487b7100000000000000000000000000000000000000000000000000000000\n        /* \"#utility.yul\":6761:6762   */\n      0x00\n        /* \"#utility.yul\":6754:6842   */\n      mstore\n        /* \"#utility.yul\":6861:6865   */\n      0x22\n        /* \"#utility.yul\":6858:6859   */\n      0x04\n        /* \"#utility.yul\":6851:6866   */\n      mstore\n        /* \"#utility.yul\":6885:6889   */\n      0x24\n        /* \"#utility.yul\":6882:6883   */\n      0x00\n        /* \"#utility.yul\":6875:6890   */\n      revert\n        /* \"#utility.yul\":6902:7222   */\n    tag_40:\n        /* \"#utility.yul\":6946:6952   */\n      0x00\n        /* \"#utility.yul\":6983:6984   */\n      0x02\n        /* \"#utility.yul\":6977:6981   */\n      dup3\n        /* \"#utility.yul\":6973:6985   */\n      div\n        /* \"#utility.yul\":6963:6985   */\n      swap1\n      pop\n        /* \"#utility.yul\":7030:7031   */\n      0x01\n        /* \"#utility.yul\":7024:7028   */\n      dup3\n        /* \"#utility.yul\":7020:7032   */\n      and\n        /* \"#utility.yul\":7051:7069   */\n      dup1\n        /* \"#utility.yul\":7041:7122   */\n      tag_198\n      jumpi\n        /* \"#utility.yul\":7107:7111   */\n      0x7f\n        /* \"#utility.yul\":7099:7105   */\n      dup3\n        /* \"#utility.yul\":7095:7112   */\n      and\n        /* \"#utility.yul\":7085:7112   */\n      swap2\n      pop\n        /* \"#utility.yul\":7041:7122   */\n    tag_198:\n        /* \"#utility.yul\":7169:7171   */\n      0x20\n        /* \"#utility.yul\":7161:7167   */\n      dup3\n        /* \"#utility.yul\":7158:7172   */\n      lt\n        /* \"#utility.yul\":7138:7156   */\n      dup2\n        /* \"#utility.yul\":7135:7173   */\n      sub\n        /* \"#utility.yul\":7132:7216   */\n      tag_199\n      jumpi\n        /* \"#utility.yul\":7188:7206   */\n      tag_200\n      tag_95\n      jump\t// in\n    tag_200:\n        /* \"#utility.yul\":7132:7216   */\n    tag_199:\n        /* \"#utility.yul\":6953:7222   */\n      pop\n        /* \"#utility.yul\":6902:7222   */\n      swap2\n      swap1\n      pop\n      jump\t// out\n        /* \"#utility.yul\":7228:7406   */\n    tag_96:\n        /* \"#utility.yul\":7368:7398   */\n      0x4465706f73697420616d6f756e7420697320746f6f20736d616c6c2e00000000\n        /* \"#utility.yul\":7364:7365   */\n      0x00\n        /* \"#utility.yul\":7356:7362   */\n      dup3\n        /* \"#utility.yul\":7352:7366   */\n      add\n        /* \"#utility.yul\":7345:7399   */\n      mstore\n        /* \"#utility.yul\":7228:7406   */\n      pop\n      jump\t// out\n        /* \"#utility.yul\":7412:7778   */\n    tag_97:\n        /* \"#utility.yul\":7554:7557   */\n      0x00\n        /* \"#utility.yul\":7575:7642   */\n      tag_203\n        /* \"#utility.yul\":7639:7641   */\n      0x1c\n        /* \"#utility.yul\":7634:7637   */\n      dup4\n        /* \"#utility.yul\":7575:7642   */\n      tag_77\n      jump\t// in\n    tag_203:\n        /* \"#utility.yul\":7568:7642   */\n      swap2\n      pop\n        /* \"#utility.yul\":7651:7744   */\n      tag_204\n        /* \"#utility.yul\":7740:7743   */\n      dup3\n        /* \"#utility.yul\":7651:7744   */\n      tag_96\n      jump\t// in\n    tag_204:\n        /* \"#utility.yul\":7769:7771   */\n      0x20\n        /* \"#utility.yul\":7764:7767   */\n      dup3\n        /* \"#utility.yul\":7760:7772   */\n      add\n        /* \"#utility.yul\":7753:7772   */\n      swap1\n      pop\n        /* \"#utility.yul\":7412:7778   */\n      swap2\n      swap1\n      pop\n      jump\t// out\n        /* \"#utility.yul\":7784:8203   */\n    tag_48:\n        /* \"#utility.yul\":7950:7954   */\n      0x00\n        /* \"#utility.yul\":7988:7990   */\n      0x20\n        /* \"#utility.yul\":7977:7986   */\n      dup3\n        /* \"#utility.yul\":7973:7991   */\n      add\n        /* \"#utility.yul\":7965:7991   */\n      swap1\n      pop\n        /* \"#utility.yul\":8037:8046   */\n      dup2\n        /* \"#utility.yul\":8031:8035   */\n      dup2\n        /* \"#utility.yul\":8027:8047   */\n      sub\n        /* \"#utility.yul\":8023:8024   */\n      0x00\n        /* \"#utility.yul\":8012:8021   */\n      dup4\n        /* \"#utility.yul\":8008:8025   */\n      add\n        /* \"#utility.yul\":8001:8048   */\n      mstore\n        /* \"#utility.yul\":8065:8196   */\n      tag_206\n        /* \"#utility.yul\":8191:8195   */\n      dup2\n        /* \"#utility.yul\":8065:8196   */\n      tag_97\n      jump\t// in\n    tag_206:\n        /* \"#utility.yul\":8057:8196   */\n      swap1\n      pop\n        /* \"#utility.yul\":7784:8203   */\n      swap2\n      swap1\n      pop\n      jump\t// out\n        /* \"#utility.yul\":8209:8389   */\n    tag_98:\n        /* \"#utility.yul\":8257:8334   */\n      0x4e487b7100000000000000000000000000000000000000000000000000000000\n        /* \"#utility.yul\":8254:8255   */\n      0x00\n        /* \"#utility.yul\":8247:8335   */\n      mstore\n        /* \"#utility.yul\":8354:8358   */\n      0x11\n        /* \"#utility.yul\":8351:8352   */\n      0x04\n        /* \"#utility.yul\":8344:8359   */\n      mstore\n        /* \"#utility.yul\":8378:8382   */\n      0x24\n        /* \"#utility.yul\":8375:8376   */\n      0x00\n        /* \"#utility.yul\":8368:8383   */\n      revert\n        /* \"#utility.yul\":8395:8586   */\n    tag_50:\n        /* \"#utility.yul\":8435:8438   */\n      0x00\n        /* \"#utility.yul\":8454:8474   */\n      tag_209\n        /* \"#utility.yul\":8472:8473   */\n      dup3\n        /* \"#utility.yul\":8454:8474   */\n      tag_82\n      jump\t// in\n    tag_209:\n        /* \"#utility.yul\":8449:8474   */\n      swap2\n      pop\n        /* \"#utility.yul\":8488:8508   */\n      tag_210\n        /* \"#utility.yul\":8506:8507   */\n      dup4\n        /* \"#utility.yul\":8488:8508   */\n      tag_82\n      jump\t// in\n    tag_210:\n        /* \"#utility.yul\":8483:8508   */\n      swap3\n      pop\n        /* \"#utility.yul\":8531:8532   */\n      dup3\n        /* \"#utility.yul\":8528:8529   */\n      dup3\n        /* \"#utility.yul\":8524:8533   */\n      add\n        /* \"#utility.yul\":8517:8533   */\n      swap1\n      pop\n        /* \"#utility.yul\":8552:8555   */\n      dup1\n        /* \"#utility.yul\":8549:8550   */\n      dup3\n        /* \"#utility.yul\":8546:8556   */\n      gt\n        /* \"#utility.yul\":8543:8579   */\n      iszero\n      tag_211\n      jumpi\n        /* \"#utility.yul\":8559:8577   */\n      tag_212\n      tag_98\n      jump\t// in\n    tag_212:\n        /* \"#utility.yul\":8543:8579   */\n    tag_211:\n        /* \"#utility.yul\":8395:8586   */\n      swap3\n      swap2\n      pop\n      pop\n      jump\t// out\n        /* \"#utility.yul\":8592:8733   */\n    tag_99:\n        /* \"#utility.yul\":8641:8645   */\n      0x00\n        /* \"#utility.yul\":8664:8667   */\n      dup2\n        /* \"#utility.yul\":8656:8667   */\n      swap1\n      pop\n        /* \"#utility.yul\":8687:8690   */\n      dup2\n        /* \"#utility.yul\":8684:8685   */\n      0x00\n        /* \"#utility.yul\":8677:8691   */\n      mstore\n        /* \"#utility.yul\":8721:8725   */\n      0x20\n        /* \"#utility.yul\":8718:8719   */\n      0x00\n        /* \"#utility.yul\":8708:8726   */\n      keccak256\n        /* \"#utility.yul\":8700:8726   */\n      swap1\n      pop\n        /* \"#utility.yul\":8592:8733   */\n      swap2\n      swap1\n      pop\n      jump\t// out\n        /* \"#utility.yul\":8739:8832   */\n    tag_100:\n        /* \"#utility.yul\":8776:8782   */\n      0x00\n        /* \"#utility.yul\":8823:8825   */\n      0x20\n        /* \"#utility.yul\":8818:8820   */\n      0x1f\n        /* \"#utility.yul\":8811:8816   */\n      dup4\n        /* \"#utility.yul\":8807:8821   */\n      add\n        /* \"#utility.yul\":8803:8826   */\n      div\n        /* \"#utility.yul\":8793:8826   */\n      swap1\n      pop\n        /* \"#utility.yul\":8739:8832   */\n      swap2\n      swap1\n      pop\n      jump\t// out\n        /* \"#utility.yul\":8838:8945   */\n    tag_101:\n        /* \"#utility.yul\":8882:8890   */\n      0x00\n        /* \"#utility.yul\":8932:8937   */\n      dup3\n        /* \"#utility.yul\":8926:8930   */\n      dup3\n        /* \"#utility.yul\":8922:8938   */\n      shl\n        /* \"#utility.yul\":8901:8938   */\n      swap1\n      pop\n        /* \"#utility.yul\":8838:8945   */\n      swap3\n      swap2\n      pop\n      pop\n      jump\t// out\n        /* \"#utility.yul\":8951:9344   */\n    tag_102:\n        /* \"#utility.yul\":9020:9026   */\n      0x00\n        /* \"#utility.yul\":9070:9071   */\n      0x08\n        /* \"#utility.yul\":9058:9068   */\n      dup4\n        /* \"#utility.yul\":9054:9072   */\n      mul\n        /* \"#utility.yul\":9093:9190   */\n      tag_217\n        /* \"#utility.yul\":9123:9189   */\n      0xffffffffffffffffffffffffffffffffffffffffffffffffffffffffffffffff\n        /* \"#utility.yul\":9112:9121   */\n      dup3\n        /* \"#utility.yul\":9093:9190   */\n      tag_101\n      jump\t// in\n    tag_217:\n        /* \"#utility.yul\":9211:9250   */\n      tag_218\n        /* \"#utility.yul\":9241:9249   */\n      dup7\n        /* \"#utility.yul\":9230:9239   */\n      dup4\n        /* \"#utility.yul\":9211:9250   */\n      tag_101\n      jump\t// in\n    tag_218:\n        /* \"#utility.yul\":9199:9250   */\n      swap6\n      pop\n        /* \"#utility.yul\":9283:9287   */\n      dup1\n        /* \"#utility.yul\":9279:9288   */\n      not\n        /* \"#utility.yul\":9272:9277   */\n      dup5\n        /* \"#utility.yul\":9268:9289   */\n      and\n        /* \"#utility.yul\":9259:9289   */\n      swap4\n      pop\n        /* \"#utility.yul\":9332:9336   */\n      dup1\n        /* \"#utility.yul\":9322:9330   */\n      dup7\n        /* \"#utility.yul\":9318:9337   */\n      and\n        /* \"#utility.yul\":9311:9316   */\n      dup5\n        /* \"#utility.yul\":9308:9338   */\n      or\n        /* \"#utility.yul\":9298:9338   */\n      swap3\n      pop\n        /* \"#utility.yul\":9027:9344   */\n      pop\n      pop\n        /* \"#utility.yul\":8951:9344   */\n      swap4\n      swap3\n      pop\n      pop\n      pop\n      jump\t// out\n        /* \"#utility.yul\":9350:9410   */\n    tag_103:\n        /* \"#utility.yul\":9378:9381   */\n      0x00\n        /* \"#utility.yul\":9399:9404   */\n      dup2\n        /* \"#utility.yul\":9392:9404   */\n      swap1\n      pop\n        /* \"#utility.yul\":9350:9410   */\n      swap2\n      swap1\n      pop\n      jump\t// out\n        /* \"#utility.yul\":9416:9558   */\n    tag_104:\n        /* \"#utility.yul\":9466:9475   */\n      0x00\n        /* \"#utility.yul\":9499:9552   */\n      tag_221\n        /* \"#utility.yul\":9517:9551   */\n      tag_222\n        /* \"#utility.yul\":9526:9550   */\n      tag_223\n        /* \"#utility.yul\":9544:9549   */\n      dup5\n        /* \"#utility.yul\":9526:9550   */\n      tag_82\n      jump\t// in\n    tag_223:\n        /* \"#utility.yul\":9517:9551   */\n      tag_103\n      jump\t// in\n    tag_222:\n        /* \"#utility.yul\":9499:9552   */\n      tag_82\n      jump\t// in\n    tag_221:\n        /* \"#utility.yul\":9486:9552   */\n      swap1\n      pop\n        /* \"#utility.yul\":9416:9558   */\n      swap2\n      swap1\n      pop\n      jump\t// out\n        /* \"#utility.yul\":9564:9639   */\n    tag_105:\n        /* \"#utility.yul\":9607:9610   */\n      0x00\n        /* \"#utility.yul\":9628:9633   */\n      dup2\n        /* \"#utility.yul\":9621:9633   */\n      swap1\n      pop\n        /* \"#utility.yul\":9564:9639   */\n      swap2\n      swap1\n      pop\n      jump\t// out\n        /* \"#utility.yul\":9645:9914   */\n    tag_106:\n        /* \"#utility.yul\":9755:9794   */\n      tag_226\n        /* \"#utility.yul\":9786:9793   */\n      dup4\n        /* \"#utility.yul\":9755:9794   */\n      tag_104\n      jump\t// in\n    tag_226:\n        /* \"#utility.yul\":9816:9907   */\n      tag_227\n        /* \"#utility.yul\":9865:9906   */\n      tag_228\n        /* \"#utility.yul\":9889:9905   */\n      dup3\n        /* \"#utility.yul\":9865:9906   */\n      tag_105\n      jump\t// in\n    tag_228:\n        /* \"#utility.yul\":9857:9863   */\n      dup5\n        /* \"#utility.yul\":9850:9854   */\n      dup5\n        /* \"#utility.yul\":9844:9855   */\n      sload\n        /* \"#utility.yul\":9816:9907   */\n      tag_102\n      jump\t// in\n    tag_227:\n        /* \"#utility.yul\":9810:9814   */\n      dup3\n        /* \"#utility.yul\":9803:9908   */\n      sstore\n        /* \"#utility.yul\":9721:9914   */\n      pop\n        /* \"#utility.yul\":9645:9914   */\n      pop\n      pop\n      pop\n      jump\t// out\n        /* \"#utility.yul\":9920:9993   */\n    tag_107:\n        /* \"#utility.yul\":9965:9968   */\n      0x00\n        /* \"#utility.yul\":9920:9993   */\n      swap1\n      jump\t// out\n        /* \"#utility.yul\":9999:10188   */\n    tag_108:\n        /* \"#utility.yul\":10076:10108   */\n      tag_231\n      tag_107\n      jump\t// in\n    tag_231:\n        /* \"#utility.yul\":10117:10182   */\n      tag_232\n        /* \"#utility.yul\":10175:10181   */\n      dup2\n        /* \"#utility.yul\":10167:10173   */\n      dup5\n        /* \"#utility.yul\":10161:10165   */\n      dup5\n        /* \"#utility.yul\":10117:10182   */\n      tag_106\n      jump\t// in\n    tag_232:\n        /* \"#utility.yul\":10052:10188   */\n      pop\n        /* \"#utility.yul\":9999:10188   */\n      pop\n      pop\n      jump\t// out\n        /* \"#utility.yul\":10194:10380   */\n    tag_109:\n        /* \"#utility.yul\":10254:10374   */\n    tag_234:\n        /* \"#utility.yul\":10271:10274   */\n      dup2\n        /* \"#utility.yul\":10264:10269   */\n      dup2\n        /* \"#utility.yul\":10261:10275   */\n      lt\n        /* \"#utility.yul\":10254:10374   */\n      iszero\n      tag_236\n      jumpi\n        /* \"#utility.yul\":10325:10364   */\n      tag_237\n        /* \"#utility.yul\":10362:10363   */\n      0x00\n        /* \"#utility.yul\":10355:10360   */\n      dup3\n        /* \"#utility.yul\":10325:10364   */\n      tag_108\n      jump\t// in\n    tag_237:\n        /* \"#utility.yul\":10298:10299   */\n      0x01\n        /* \"#utility.yul\":10291:10296   */\n      dup2\n        /* \"#utility.yul\":10287:10300   */\n      add\n        /* \"#utility.yul\":10278:10300   */\n      swap1\n      pop\n        /* \"#utility.yul\":10254:10374   */\n      jump(tag_234)\n    tag_236:\n        /* \"#utility.yul\":10194:10380   */\n      pop\n      pop\n      jump\t// out\n        /* \"#utility.yul\":10386:10929   */\n    tag_110:\n        /* \"#utility.yul\":10487:10489   */\n      0x1f\n        /* \"#utility.yul\":10482:10485   */\n      dup3\n        /* \"#utility.yul\":10479:10490   */\n      gt\n        /* \"#utility.yul\":10476:10922   */\n      iszero\n      tag_239\n      jumpi\n        /* \"#utility.yul\":10521:10559   */\n      tag_240\n        /* \"#utility.yul\":10553:10558   */\n      dup2\n        /* \"#utility.yul\":10521:10559   */\n      tag_99\n      jump\t// in\n    tag_240:\n        /* \"#utility.yul\":10605:10634   */\n      tag_241\n        /* \"#utility.yul\":10623:10633   */\n      dup5\n        /* \"#utility.yul\":10605:10634   */\n      tag_100\n      jump\t// in\n    tag_241:\n        /* \"#utility.yul\":10595:10603   */\n      dup2\n        /* \"#utility.yul\":10591:10635   */\n      add\n        /* \"#utility.yul\":10788:10790   */\n      0x20\n        /* \"#utility.yul\":10776:10786   */\n      dup6\n        /* \"#utility.yul\":10773:10791   */\n      lt\n        /* \"#utility.yul\":10770:10819   */\n      iszero\n      tag_242\n      jumpi\n        /* \"#utility.yul\":10809:10817   */\n      dup2\n        /* \"#utility.yul\":10794:10817   */\n      swap1\n      pop\n        /* \"#utility.yul\":10770:10819   */\n    tag_242:\n        /* \"#utility.yul\":10832:10912   */\n      tag_243\n        /* \"#utility.yul\":10888:10910   */\n      tag_244\n        /* \"#utility.yul\":10906:10909   */\n      dup6\n        /* \"#utility.yul\":10888:10910   */\n      tag_100\n      jump\t// in\n    tag_244:\n        /* \"#utility.yul\":10878:10886   */\n      dup4\n        /* \"#utility.yul\":10874:10911   */\n      add\n        /* \"#utility.yul\":10861:10872   */\n      dup3\n        /* \"#utility.yul\":10832:10912   */\n      tag_109\n      jump\t// in\n    tag_243:\n        /* \"#utility.yul\":10491:10922   */\n      pop\n      pop\n        /* \"#utility.yul\":10476:10922   */\n    tag_239:\n        /* \"#utility.yul\":10386:10929   */\n      pop\n      pop\n      pop\n      jump\t// out\n        /* \"#utility.yul\":10935:11052   */\n    tag_111:\n        /* \"#utility.yul\":10989:10997   */\n      0x00\n        /* \"#utility.yul\":11039:11044   */\n      dup3\n        /* \"#utility.yul\":11033:11037   */\n      dup3\n        /* \"#utility.yul\":11029:11045   */\n      shr\n        /* \"#utility.yul\":11008:11045   */\n      swap1\n      pop\n        /* \"#utility.yul\":10935:11052   */\n      swap3\n      swap2\n      pop\n      pop\n      jump\t// out\n        /* \"#utility.yul\":11058:11227   */\n    tag_112:\n        /* \"#utility.yul\":11102:11108   */\n      0x00\n        /* \"#utility.yul\":11135:11186   */\n      tag_247\n        /* \"#utility.yul\":11183:11184   */\n      0x00\n        /* \"#utility.yul\":11179:11185   */\n      not\n        /* \"#utility.yul\":11171:11176   */\n      dup5\n        /* \"#utility.yul\":11168:11169   */\n      0x08\n        /* \"#utility.yul\":11164:11177   */\n      mul\n        /* \"#utility.yul\":11135:11186   */\n      tag_111\n      jump\t// in\n    tag_247:\n        /* \"#utility.yul\":11131:11187   */\n      not\n        /* \"#utility.yul\":11216:11220   */\n      dup1\n        /* \"#utility.yul\":11210:11214   */\n      dup4\n        /* \"#utility.yul\":11206:11221   */\n      and\n        /* \"#utility.yul\":11196:11221   */\n      swap2\n      pop\n        /* \"#utility.yul\":11109:11227   */\n      pop\n        /* \"#utility.yul\":11058:11227   */\n      swap3\n      swap2\n      pop\n      pop\n      jump\t// out\n        /* \"#utility.yul\":11232:11527   */\n    tag_113:\n        /* \"#utility.yul\":11308:11312   */\n      0x00\n        /* \"#utility.yul\":11454:11483   */\n      tag_249\n        /* \"#utility.yul\":11479:11482   */\n      dup4\n        /* \"#utility.yul\":11473:11477   */\n      dup4\n        /* \"#utility.yul\":11454:11483   */\n      tag_112\n      jump\t// in\n    tag_249:\n        /* \"#utility.yul\":11446:11483   */\n      swap2\n      pop\n        /* \"#utility.yul\":11516:11519   */\n      dup3\n        /* \"#utility.yul\":11513:11514   */\n      0x02\n        /* \"#utility.yul\":11509:11520   */\n      mul\n        /* \"#utility.yul\":11503:11507   */\n      dup3\n        /* \"#utility.yul\":11500:11521   */\n      or\n        /* \"#utility.yul\":11492:11521   */\n      swap1\n      pop\n        /* \"#utility.yul\":11232:11527   */\n      swap3\n      swap2\n      pop\n      pop\n      jump\t// out\n        /* \"#utility.yul\":11532:12927   */\n    tag_59:\n        /* \"#utility.yul\":11649:11686   */\n      tag_251\n        /* \"#utility.yul\":11682:11685   */\n      dup3\n        /* \"#utility.yul\":11649:11686   */\n      tag_76\n      jump\t// in\n    tag_251:\n        /* \"#utility.yul\":11751:11769   */\n      0xffffffffffffffff\n        /* \"#utility.yul\":11743:11749   */\n      dup2\n        /* \"#utility.yul\":11740:11770   */\n      gt\n        /* \"#utility.yul\":11737:11793   */\n      iszero\n      tag_252\n      jumpi\n        /* \"#utility.yul\":11773:11791   */\n      tag_253\n      tag_88\n      jump\t// in\n    tag_253:\n        /* \"#utility.yul\":11737:11793   */\n    tag_252:\n        /* \"#utility.yul\":11817:11855   */\n      tag_254\n        /* \"#utility.yul\":11849:11853   */\n      dup3\n        /* \"#utility.yul\":11843:11854   */\n      sload\n        /* \"#utility.yul\":11817:11855   */\n      tag_40\n      jump\t// in\n    tag_254:\n        /* \"#utility.yul\":11902:11969   */\n      tag_255\n        /* \"#utility.yul\":11962:11968   */\n      dup3\n        /* \"#utility.yul\":11954:11960   */\n      dup3\n        /* \"#utility.yul\":11948:11952   */\n      dup6\n        /* \"#utility.yul\":11902:11969   */\n      tag_110\n      jump\t// in\n    tag_255:\n        /* \"#utility.yul\":11996:11997   */\n      0x00\n        /* \"#utility.yul\":12020:12024   */\n      0x20\n        /* \"#utility.yul\":12007:12024   */\n      swap1\n      pop\n        /* \"#utility.yul\":12052:12054   */\n      0x1f\n        /* \"#utility.yul\":12044:12050   */\n      dup4\n        /* \"#utility.yul\":12041:12055   */\n      gt\n        /* \"#utility.yul\":12069:12070   */\n      0x01\n        /* \"#utility.yul\":12064:12682   */\n      dup2\n      eq\n      tag_257\n      jumpi\n        /* \"#utility.yul\":12726:12727   */\n      0x00\n        /* \"#utility.yul\":12743:12749   */\n      dup5\n        /* \"#utility.yul\":12740:12817   */\n      iszero\n      tag_258\n      jumpi\n        /* \"#utility.yul\":12792:12801   */\n      dup3\n        /* \"#utility.yul\":12787:12790   */\n      dup8\n        /* \"#utility.yul\":12783:12802   */\n      add\n        /* \"#utility.yul\":12777:12803   */\n      mload\n        /* \"#utility.yul\":12768:12803   */\n      swap1\n      pop\n        /* \"#utility.yul\":12740:12817   */\n    tag_258:\n        /* \"#utility.yul\":12843:12910   */\n      tag_259\n        /* \"#utility.yul\":12903:12909   */\n      dup6\n        /* \"#utility.yul\":12896:12901   */\n      dup3\n        /* \"#utility.yul\":12843:12910   */\n      tag_113\n      jump\t// in\n    tag_259:\n        /* \"#utility.yul\":12837:12841   */\n      dup7\n        /* \"#utility.yul\":12830:12911   */\n      sstore\n        /* \"#utility.yul\":12699:12921   */\n      pop\n        /* \"#utility.yul\":12034:12921   */\n      jump(tag_256)\n        /* \"#utility.yul\":12064:12682   */\n    tag_257:\n        /* \"#utility.yul\":12116:12120   */\n      0x1f\n        /* \"#utility.yul\":12112:12121   */\n      not\n        /* \"#utility.yul\":12104:12110   */\n      dup5\n        /* \"#utility.yul\":12100:12122   */\n      and\n        /* \"#utility.yul\":12150:12187   */\n      tag_260\n        /* \"#utility.yul\":12182:12186   */\n      dup7\n        /* \"#utility.yul\":12150:12187   */\n      tag_99\n      jump\t// in\n    tag_260:\n        /* \"#utility.yul\":12209:12210   */\n      0x00\n        /* \"#utility.yul\":12223:12431   */\n    tag_261:\n        /* \"#utility.yul\":12237:12244   */\n      dup3\n        /* \"#utility.yul\":12234:12235   */\n      dup2\n        /* \"#utility.yul\":12231:12245   */\n      lt\n        /* \"#utility.yul\":12223:12431   */\n      iszero\n      tag_263\n      jumpi\n        /* \"#utility.yul\":12316:12325   */\n      dup5\n        /* \"#utility.yul\":12311:12314   */\n      dup10\n        /* \"#utility.yul\":12307:12326   */\n      add\n        /* \"#utility.yul\":12301:12327   */\n      mload\n        /* \"#utility.yul\":12293:12299   */\n      dup3\n        /* \"#utility.yul\":12286:12328   */\n      sstore\n        /* \"#utility.yul\":12367:12368   */\n      0x01\n        /* \"#utility.yul\":12359:12365   */\n      dup3\n        /* \"#utility.yul\":12355:12369   */\n      add\n        /* \"#utility.yul\":12345:12369   */\n      swap2\n      pop\n        /* \"#utility.yul\":12414:12416   */\n      0x20\n        /* \"#utility.yul\":12403:12412   */\n      dup6\n        /* \"#utility.yul\":12399:12417   */\n      add\n        /* \"#utility.yul\":12386:12417   */\n      swap5\n      pop\n        /* \"#utility.yul\":12260:12264   */\n      0x20\n        /* \"#utility.yul\":12257:12258   */\n      dup2\n        /* \"#utility.yul\":12253:12265   */\n      add\n        /* \"#utility.yul\":12248:12265   */\n      swap1\n      pop\n        /* \"#utility.yul\":12223:12431   */\n      jump(tag_261)\n    tag_263:\n        /* \"#utility.yul\":12459:12465   */\n      dup7\n        /* \"#utility.yul\":12450:12457   */\n      dup4\n        /* \"#utility.yul\":12447:12466   */\n      lt\n        /* \"#utility.yul\":12444:12623   */\n      iszero\n      tag_264\n      jumpi\n        /* \"#utility.yul\":12517:12526   */\n      dup5\n        /* \"#utility.yul\":12512:12515   */\n      dup10\n        /* \"#utility.yul\":12508:12527   */\n      add\n        /* \"#utility.yul\":12502:12528   */\n      mload\n        /* \"#utility.yul\":12560:12608   */\n      tag_265\n        /* \"#utility.yul\":12602:12606   */\n      0x1f\n        /* \"#utility.yul\":12594:12600   */\n      dup10\n        /* \"#utility.yul\":12590:12607   */\n      and\n        /* \"#utility.yul\":12579:12588   */\n      dup3\n        /* \"#utility.yul\":12560:12608   */\n      tag_112\n      jump\t// in\n    tag_265:\n        /* \"#utility.yul\":12552:12558   */\n      dup4\n        /* \"#utility.yul\":12545:12609   */\n      sstore\n        /* \"#utility.yul\":12467:12623   */\n      pop\n        /* \"#utility.yul\":12444:12623   */\n    tag_264:\n        /* \"#utility.yul\":12669:12670   */\n      0x01\n        /* \"#utility.yul\":12665:12666   */\n      0x02\n        /* \"#utility.yul\":12657:12663   */\n      dup9\n        /* \"#utility.yul\":12653:12667   */\n      mul\n        /* \"#utility.yul\":12649:12671   */\n      add\n        /* \"#utility.yul\":12643:12647   */\n      dup9\n        /* \"#utility.yul\":12636:12672   */\n      sstore\n        /* \"#utility.yul\":12071:12682   */\n      pop\n      pop\n      pop\n        /* \"#utility.yul\":12034:12921   */\n    tag_256:\n      pop\n        /* \"#utility.yul\":11624:12927   */\n      pop\n      pop\n      pop\n        /* \"#utility.yul\":11532:12927   */\n      pop\n      pop\n      jump\t// out\n        /* \"#utility.yul\":12933:13164   */\n    tag_114:\n        /* \"#utility.yul\":13073:13107   */\n      0x5769746864726177616c20616d6f756e74206578636565647320746865206d61\n        /* \"#utility.yul\":13069:13070   */\n      0x00\n        /* \"#utility.yul\":13061:13067   */\n      dup3\n        /* \"#utility.yul\":13057:13071   */\n      add\n        /* \"#utility.yul\":13050:13108   */\n      mstore\n        /* \"#utility.yul\":13142:13156   */\n      0x78696d756d206c696d69742e0000000000000000000000000000000000000000\n        /* \"#utility.yul\":13137:13139   */\n      0x20\n        /* \"#utility.yul\":13129:13135   */\n      dup3\n        /* \"#utility.yul\":13125:13140   */\n      add\n        /* \"#utility.yul\":13118:13157   */\n      mstore\n        /* \"#utility.yul\":12933:13164   */\n      pop\n      jump\t// out\n        /* \"#utility.yul\":13170:13536   */\n    tag_115:\n        /* \"#utility.yul\":13312:13315   */\n      0x00\n        /* \"#utility.yul\":13333:13400   */\n      tag_268\n        /* \"#utility.yul\":13397:13399   */\n      0x2c\n        /* \"#utility.yul\":13392:13395   */\n      dup4\n        /* \"#utility.yul\":13333:13400   */\n      tag_77\n      jump\t// in\n    tag_268:\n        /* \"#utility.yul\":13326:13400   */\n      swap2\n      pop\n        /* \"#utility.yul\":13409:13502   */\n      tag_269\n        /* \"#utility.yul\":13498:13501   */\n      dup3\n        /* \"#utility.yul\":13409:13502   */\n      tag_114\n      jump\t// in\n    tag_269:\n        /* \"#utility.yul\":13527:13529   */\n      0x40\n        /* \"#utility.yul\":13522:13525   */\n      dup3\n        /* \"#utility.yul\":13518:13530   */\n      add\n        /* \"#utility.yul\":13511:13530   */\n      swap1\n      pop\n        /* \"#utility.yul\":13170:13536   */\n      swap2\n      swap1\n      pop\n      jump\t// out\n        /* \"#utility.yul\":13542:13961   */\n    tag_63:\n        /* \"#utility.yul\":13708:13712   */\n      0x00\n        /* \"#utility.yul\":13746:13748   */\n      0x20\n        /* \"#utility.yul\":13735:13744   */\n      dup3\n        /* \"#utility.yul\":13731:13749   */\n      add\n        /* \"#utility.yul\":13723:13749   */\n      swap1\n      pop\n        /* \"#utility.yul\":13795:13804   */\n      dup2\n        /* \"#utility.yul\":13789:13793   */\n      dup2\n        /* \"#utility.yul\":13785:13805   */\n      sub\n        /* \"#utility.yul\":13781:13782   */\n      0x00\n        /* \"#utility.yul\":13770:13779   */\n      dup4\n        /* \"#utility.yul\":13766:13783   */\n      add\n        /* \"#utility.yul\":13759:13806   */\n      mstore\n        /* \"#utility.yul\":13823:13954   */\n      tag_271\n        /* \"#utility.yul\":13949:13953   */\n      dup2\n        /* \"#utility.yul\":13823:13954   */\n      tag_115\n      jump\t// in\n    tag_271:\n        /* \"#utility.yul\":13815:13954   */\n      swap1\n      pop\n        /* \"#utility.yul\":13542:13961   */\n      swap2\n      swap1\n      pop\n      jump\t// out\n        /* \"#utility.yul\":13967:14138   */\n    tag_116:\n        /* \"#utility.yul\":14107:14130   */\n      0x496e73756666696369656e742062616c616e63652e0000000000000000000000\n        /* \"#utility.yul\":14103:14104   */\n      0x00\n        /* \"#utility.yul\":14095:14101   */\n      dup3\n        /* \"#utility.yul\":14091:14105   */\n      add\n        /* \"#utility.yul\":14084:14131   */\n      mstore\n        /* \"#utility.yul\":13967:14138   */\n      pop\n      jump\t// out\n        /* \"#utility.yul\":14144:14510   */\n    tag_117:\n        /* \"#utility.yul\":14286:14289   */\n      0x00\n        /* \"#utility.yul\":14307:14374   */\n      tag_274\n        /* \"#utility.yul\":14371:14373   */\n      0x15\n        /* \"#utility.yul\":14366:14369   */\n      dup4\n        /* \"#utility.yul\":14307:14374   */\n      tag_77\n      jump\t// in\n    tag_274:\n        /* \"#utility.yul\":14300:14374   */\n      swap2\n      pop\n        /* \"#utility.yul\":14383:14476   */\n      tag_275\n        /* \"#utility.yul\":14472:14475   */\n      dup3\n        /* \"#utility.yul\":14383:14476   */\n      tag_116\n      jump\t// in\n    tag_275:\n        /* \"#utility.yul\":14501:14503   */\n      0x20\n        /* \"#utility.yul\":14496:14499   */\n      dup3\n        /* \"#utility.yul\":14492:14504   */\n      add\n        /* \"#utility.yul\":14485:14504   */\n      swap1\n      pop\n        /* \"#utility.yul\":14144:14510   */\n      swap2\n      swap1\n      pop\n      jump\t// out\n        /* \"#utility.yul\":14516:14935   */\n    tag_66:\n        /* \"#utility.yul\":14682:14686   */\n      0x00\n        /* \"#utility.yul\":14720:14722   */\n      0x20\n        /* \"#utility.yul\":14709:14718   */\n      dup3\n        /* \"#utility.yul\":14705:14723   */\n      add\n        /* \"#utility.yul\":14697:14723   */\n      swap1\n      pop\n        /* \"#utility.yul\":14769:14778   */\n      dup2\n        /* \"#utility.yul\":14763:14767   */\n      dup2\n        /* \"#utility.yul\":14759:14779   */\n      sub\n        /* \"#utility.yul\":14755:14756   */\n      0x00\n        /* \"#utility.yul\":14744:14753   */\n      dup4\n        /* \"#utility.yul\":14740:14757   */\n      add\n        /* \"#utility.yul\":14733:14780   */\n      mstore\n        /* \"#utility.yul\":14797:14928   */\n      tag_277\n        /* \"#utility.yul\":14923:14927   */\n      dup2\n        /* \"#utility.yul\":14797:14928   */\n      tag_117\n      jump\t// in\n    tag_277:\n        /* \"#utility.yul\":14789:14928   */\n      swap1\n      pop\n        /* \"#utility.yul\":14516:14935   */\n      swap2\n      swap1\n      pop\n      jump\t// out\n        /* \"#utility.yul\":14941:15135   */\n    tag_68:\n        /* \"#utility.yul\":14981:14985   */\n      0x00\n        /* \"#utility.yul\":15001:15021   */\n      tag_279\n        /* \"#utility.yul\":15019:15020   */\n      dup3\n        /* \"#utility.yul\":15001:15021   */\n      tag_82\n      jump\t// in\n    tag_279:\n        /* \"#utility.yul\":14996:15021   */\n      swap2\n      pop\n        /* \"#utility.yul\":15035:15055   */\n      tag_280\n        /* \"#utility.yul\":15053:15054   */\n      dup4\n        /* \"#utility.yul\":15035:15055   */\n      tag_82\n      jump\t// in\n    tag_280:\n        /* \"#utility.yul\":15030:15055   */\n      swap3\n      pop\n        /* \"#utility.yul\":15079:15080   */\n      dup3\n        /* \"#utility.yul\":15076:15077   */\n      dup3\n        /* \"#utility.yul\":15072:15081   */\n      sub\n        /* \"#utility.yul\":15064:15081   */\n      swap1\n      pop\n        /* \"#utility.yul\":15103:15104   */\n      dup2\n        /* \"#utility.yul\":15097:15101   */\n      dup2\n        /* \"#utility.yul\":15094:15105   */\n      gt\n        /* \"#utility.yul\":15091:15128   */\n      iszero\n      tag_281\n      jumpi\n        /* \"#utility.yul\":15108:15126   */\n      tag_282\n      tag_98\n      jump\t// in\n    tag_282:\n        /* \"#utility.yul\":15091:15128   */\n    tag_281:\n        /* \"#utility.yul\":14941:15135   */\n      swap3\n      swap2\n      pop\n      pop\n      jump\t// out\n\n    auxdata: 0xa2646970667358221220aae2c6c43d62fd53b58e7cd45f203ceb9183a4f2a91b66abebe7aaaa906b59d764736f6c634300081a0033\n}\n",
				"bytecode": {
					"linkReferences": {},
					"object": "6080604052348015600e575f80fd5b50610ea48061001c5f395ff3fe608060405234801561000f575f80fd5b506004361061007b575f3560e01c8063987ee15611610059578063987ee156146100eb578063c2da9d0d1461011d578063e1e158a514610139578063f3fef3a3146101575761007b565b8063332d56d71461007f57806347e7ef24146100b157806397ec642c146100cd575b5f80fd5b610099600480360381019061009491906106af565b610173565b6040516100a893929190610771565b60405180910390f35b6100cb60048036038101906100c691906107d7565b61023d565b005b6100d56102e1565b6040516100e29190610815565b60405180910390f35b610105600480360381019061010091906106af565b6102ed565b60405161011493929190610771565b60405180910390f35b6101376004803603810190610132919061095a565b610445565b005b610141610512565b60405161014e9190610815565b60405180910390f35b610171600480360381019061016c91906107d7565b61051e565b005b5f602052805f5260405f205f91509050805f018054610191906109e1565b80601f01602080910402602001604051908101604052809291908181526020018280546101bd906109e1565b80156102085780601f106101df57610100808354040283529160200191610208565b820191905f5260205f20905b8154815290600101906020018083116101eb57829003601f168201915b505050505090806001015f9054906101000a900473ffffffffffffffffffffffffffffffffffffffff16908060020154905083565b670de0b6b3a7640000811015610288576040517f08c379a000000000000000000000000000000000000000000000000000000000815260040161027f90610a5b565b60405180910390fd5b805f808473ffffffffffffffffffffffffffffffffffffffff1673ffffffffffffffffffffffffffffffffffffffff1681526020019081526020015f206002015f8282546102d69190610aa6565b925050819055505050565b674563918244f4000081565b60605f805f805f8673ffffffffffffffffffffffffffffffffffffffff1673ffffffffffffffffffffffffffffffffffffffff1681526020019081526020015f206040518060600160405290815f82018054610348906109e1565b80601f0160208091040260200160405190810160405280929190818152602001828054610374906109e1565b80156103bf5780601f10610396576101008083540402835291602001916103bf565b820191905f5260205f20905b8154815290600101906020018083116103a257829003601f168201915b50505050508152602001600182015f9054906101000a900473ffffffffffffffffffffffffffffffffffffffff1673ffffffffffffffffffffffffffffffffffffffff1673ffffffffffffffffffffffffffffffffffffffff1681526020016002820154815250509050805f015181602001518260400151935093509350509193909250565b815f808373ffffffffffffffffffffffffffffffffffffffff1673ffffffffffffffffffffffffffffffffffffffff1681526020019081526020015f205f0190816104909190610c76565b50805f808373ffffffffffffffffffffffffffffffffffffffff1673ffffffffffffffffffffffffffffffffffffffff1681526020019081526020015f206001015f6101000a81548173ffffffffffffffffffffffffffffffffffffffff021916908373ffffffffffffffffffffffffffffffffffffffff1602179055505050565b670de0b6b3a764000081565b674563918244f40000811115610569576040517f08c379a000000000000000000000000000000000000000000000000000000000815260040161056090610db5565b60405180910390fd5b805f808473ffffffffffffffffffffffffffffffffffffffff1673ffffffffffffffffffffffffffffffffffffffff1681526020019081526020015f206002015410156105eb576040517f08c379a00000000000000000000000000000000000000000000000000000000081526004016105e290610e1d565b60405180910390fd5b805f808473ffffffffffffffffffffffffffffffffffffffff1673ffffffffffffffffffffffffffffffffffffffff1681526020019081526020015f206002015f8282546106399190610e3b565b925050819055505050565b5f604051905090565b5f80fd5b5f80fd5b5f73ffffffffffffffffffffffffffffffffffffffff82169050919050565b5f61067e82610655565b9050919050565b61068e81610674565b8114610698575f80fd5b50565b5f813590506106a981610685565b92915050565b5f602082840312156106c4576106c361064d565b5b5f6106d18482850161069b565b91505092915050565b5f81519050919050565b5f82825260208201905092915050565b8281835e5f83830152505050565b5f601f19601f8301169050919050565b5f61071c826106da565b61072681856106e4565b93506107368185602086016106f4565b61073f81610702565b840191505092915050565b61075381610674565b82525050565b5f819050919050565b61076b81610759565b82525050565b5f6060820190508181035f8301526107898186610712565b9050610798602083018561074a565b6107a56040830184610762565b949350505050565b6107b681610759565b81146107c0575f80fd5b50565b5f813590506107d1816107ad565b92915050565b5f80604083850312156107ed576107ec61064d565b5b5f6107fa8582860161069b565b925050602061080b858286016107c3565b9150509250929050565b5f6020820190506108285f830184610762565b92915050565b5f80fd5b5f80fd5b7f4e487b71000000000000000000000000000000000000000000000000000000005f52604160045260245ffd5b61086c82610702565b810181811067ffffffffffffffff8211171561088b5761088a610836565b5b80604052505050565b5f61089d610644565b90506108a98282610863565b919050565b5f67ffffffffffffffff8211156108c8576108c7610836565b5b6108d182610702565b9050602081019050919050565b828183375f83830152505050565b5f6108fe6108f9846108ae565b610894565b90508281526020810184848401111561091a57610919610832565b5b6109258482856108de565b509392505050565b5f82601f8301126109415761094061082e565b5b81356109518482602086016108ec565b91505092915050565b5f80604083850312156109705761096f61064d565b5b5f83013567ffffffffffffffff81111561098d5761098c610651565b5b6109998582860161092d565b92505060206109aa8582860161069b565b9150509250929050565b7f4e487b71000000000000000000000000000000000000000000000000000000005f52602260045260245ffd5b5f60028204905060018216806109f857607f821691505b602082108103610a0b57610a0a6109b4565b5b50919050565b7f4465706f73697420616d6f756e7420697320746f6f20736d616c6c2e000000005f82015250565b5f610a45601c836106e4565b9150610a5082610a11565b602082019050919050565b5f6020820190508181035f830152610a7281610a39565b9050919050565b7f4e487b71000000000000000000000000000000000000000000000000000000005f52601160045260245ffd5b5f610ab082610759565b9150610abb83610759565b9250828201905080821115610ad357610ad2610a79565b5b92915050565b5f819050815f5260205f209050919050565b5f6020601f8301049050919050565b5f82821b905092915050565b5f60088302610b357fffffffffffffffffffffffffffffffffffffffffffffffffffffffffffffffff82610afa565b610b3f8683610afa565b95508019841693508086168417925050509392505050565b5f819050919050565b5f610b7a610b75610b7084610759565b610b57565b610759565b9050919050565b5f819050919050565b610b9383610b60565b610ba7610b9f82610b81565b848454610b06565b825550505050565b5f90565b610bbb610baf565b610bc6818484610b8a565b505050565b5b81811015610be957610bde5f82610bb3565b600181019050610bcc565b5050565b601f821115610c2e57610bff81610ad9565b610c0884610aeb565b81016020851015610c17578190505b610c2b610c2385610aeb565b830182610bcb565b50505b505050565b5f82821c905092915050565b5f610c4e5f1984600802610c33565b1980831691505092915050565b5f610c668383610c3f565b9150826002028217905092915050565b610c7f826106da565b67ffffffffffffffff811115610c9857610c97610836565b5b610ca282546109e1565b610cad828285610bed565b5f60209050601f831160018114610cde575f8415610ccc578287015190505b610cd68582610c5b565b865550610d3d565b601f198416610cec86610ad9565b5f5b82811015610d1357848901518255600182019150602085019450602081019050610cee565b86831015610d305784890151610d2c601f891682610c3f565b8355505b6001600288020188555050505b505050505050565b7f5769746864726177616c20616d6f756e74206578636565647320746865206d615f8201527f78696d756d206c696d69742e0000000000000000000000000000000000000000602082015250565b5f610d9f602c836106e4565b9150610daa82610d45565b604082019050919050565b5f6020820190508181035f830152610dcc81610d93565b9050919050565b7f496e73756666696369656e742062616c616e63652e00000000000000000000005f82015250565b5f610e076015836106e4565b9150610e1282610dd3565b602082019050919050565b5f6020820190508181035f830152610e3481610dfb565b9050919050565b5f610e4582610759565b9150610e5083610759565b9250828203905081811115610e6857610e67610a79565b5b9291505056fea2646970667358221220aae2c6c43d62fd53b58e7cd45f203ceb9183a4f2a91b66abebe7aaaa906b59d764736f6c634300081a0033",
					"opcodes": "PUSH1 0x80 PUSH1 0x40 MSTORE CALLVALUE DUP1 ISZERO PUSH1 0xE JUMPI PUSH0 DUP1 REVERT JUMPDEST POP PUSH2 0xEA4 DUP1 PUSH2 0x1C PUSH0 CODECOPY PUSH0 RETURN INVALID PUSH1 0x80 PUSH1 0x40 MSTORE CALLVALUE DUP1 ISZERO PUSH2 0xF JUMPI PUSH0 DUP1 REVERT JUMPDEST POP PUSH1 0x4 CALLDATASIZE LT PUSH2 0x7B JUMPI PUSH0 CALLDATALOAD PUSH1 0xE0 SHR DUP1 PUSH4 0x987EE156 GT PUSH2 0x59 JUMPI DUP1 PUSH4 0x987EE156 EQ PUSH2 0xEB JUMPI DUP1 PUSH4 0xC2DA9D0D EQ PUSH2 0x11D JUMPI DUP1 PUSH4 0xE1E158A5 EQ PUSH2 0x139 JUMPI DUP1 PUSH4 0xF3FEF3A3 EQ PUSH2 0x157 JUMPI PUSH2 0x7B JUMP JUMPDEST DUP1 PUSH4 0x332D56D7 EQ PUSH2 0x7F JUMPI DUP1 PUSH4 0x47E7EF24 EQ PUSH2 0xB1 JUMPI DUP1 PUSH4 0x97EC642C EQ PUSH2 0xCD JUMPI JUMPDEST PUSH0 DUP1 REVERT JUMPDEST PUSH2 0x99 PUSH1 0x4 DUP1 CALLDATASIZE SUB DUP2 ADD SWAP1 PUSH2 0x94 SWAP2 SWAP1 PUSH2 0x6AF JUMP JUMPDEST PUSH2 0x173 JUMP JUMPDEST PUSH1 0x40 MLOAD PUSH2 0xA8 SWAP4 SWAP3 SWAP2 SWAP1 PUSH2 0x771 JUMP JUMPDEST PUSH1 0x40 MLOAD DUP1 SWAP2 SUB SWAP1 RETURN JUMPDEST PUSH2 0xCB PUSH1 0x4 DUP1 CALLDATASIZE SUB DUP2 ADD SWAP1 PUSH2 0xC6 SWAP2 SWAP1 PUSH2 0x7D7 JUMP JUMPDEST PUSH2 0x23D JUMP JUMPDEST STOP JUMPDEST PUSH2 0xD5 PUSH2 0x2E1 JUMP JUMPDEST PUSH1 0x40 MLOAD PUSH2 0xE2 SWAP2 SWAP1 PUSH2 0x815 JUMP JUMPDEST PUSH1 0x40 MLOAD DUP1 SWAP2 SUB SWAP1 RETURN JUMPDEST PUSH2 0x105 PUSH1 0x4 DUP1 CALLDATASIZE SUB DUP2 ADD SWAP1 PUSH2 0x100 SWAP2 SWAP1 PUSH2 0x6AF JUMP JUMPDEST PUSH2 0x2ED JUMP JUMPDEST PUSH1 0x40 MLOAD PUSH2 0x114 SWAP4 SWAP3 SWAP2 SWAP1 PUSH2 0x771 JUMP JUMPDEST PUSH1 0x40 MLOAD DUP1 SWAP2 SUB SWAP1 RETURN JUMPDEST PUSH2 0x137 PUSH1 0x4 DUP1 CALLDATASIZE SUB DUP2 ADD SWAP1 PUSH2 0x132 SWAP2 SWAP1 PUSH2 0x95A JUMP JUMPDEST PUSH2 0x445 JUMP JUMPDEST STOP JUMPDEST PUSH2 0x141 PUSH2 0x512 JUMP JUMPDEST PUSH1 0x40 MLOAD PUSH2 0x14E SWAP2 SWAP1 PUSH2 0x815 JUMP JUMPDEST PUSH1 0x40 MLOAD DUP1 SWAP2 SUB SWAP1 RETURN JUMPDEST PUSH2 0x171 PUSH1 0x4 DUP1 CALLDATASIZE SUB DUP2 ADD SWAP1 PUSH2 0x16C SWAP2 SWAP1 PUSH2 0x7D7 JUMP JUMPDEST PUSH2 0x51E JUMP JUMPDEST STOP JUMPDEST PUSH0 PUSH1 0x20 MSTORE DUP1 PUSH0 MSTORE PUSH1 0x40 PUSH0 KECCAK256 PUSH0 SWAP2 POP SWAP1 POP DUP1 PUSH0 ADD DUP1 SLOAD PUSH2 0x191 SWAP1 PUSH2 0x9E1 JUMP JUMPDEST DUP1 PUSH1 0x1F ADD PUSH1 0x20 DUP1 SWAP2 DIV MUL PUSH1 0x20 ADD PUSH1 0x40 MLOAD SWAP1 DUP2 ADD PUSH1 0x40 MSTORE DUP1 SWAP3 SWAP2 SWAP1 DUP2 DUP2 MSTORE PUSH1 0x20 ADD DUP3 DUP1 SLOAD PUSH2 0x1BD SWAP1 PUSH2 0x9E1 JUMP JUMPDEST DUP1 ISZERO PUSH2 0x208 JUMPI DUP1 PUSH1 0x1F LT PUSH2 0x1DF JUMPI PUSH2 0x100 DUP1 DUP4 SLOAD DIV MUL DUP4 MSTORE SWAP2 PUSH1 0x20 ADD SWAP2 PUSH2 0x208 JUMP JUMPDEST DUP3 ADD SWAP2 SWAP1 PUSH0 MSTORE PUSH1 0x20 PUSH0 KECCAK256 SWAP1 JUMPDEST DUP2 SLOAD DUP2 MSTORE SWAP1 PUSH1 0x1 ADD SWAP1 PUSH1 0x20 ADD DUP1 DUP4 GT PUSH2 0x1EB JUMPI DUP3 SWAP1 SUB PUSH1 0x1F AND DUP3 ADD SWAP2 JUMPDEST POP POP POP POP POP SWAP1 DUP1 PUSH1 0x1 ADD PUSH0 SWAP1 SLOAD SWAP1 PUSH2 0x100 EXP SWAP1 DIV PUSH20 0xFFFFFFFFFFFFFFFFFFFFFFFFFFFFFFFFFFFFFFFF AND SWAP1 DUP1 PUSH1 0x2 ADD SLOAD SWAP1 POP DUP4 JUMP JUMPDEST PUSH8 0xDE0B6B3A7640000 DUP2 LT ISZERO PUSH2 0x288 JUMPI PUSH1 0x40 MLOAD PUSH32 0x8C379A000000000000000000000000000000000000000000000000000000000 DUP2 MSTORE PUSH1 0x4 ADD PUSH2 0x27F SWAP1 PUSH2 0xA5B JUMP JUMPDEST PUSH1 0x40 MLOAD DUP1 SWAP2 SUB SWAP1 REVERT JUMPDEST DUP1 PUSH0 DUP1 DUP5 PUSH20 0xFFFFFFFFFFFFFFFFFFFFFFFFFFFFFFFFFFFFFFFF AND PUSH20 0xFFFFFFFFFFFFFFFFFFFFFFFFFFFFFFFFFFFFFFFF AND DUP2 MSTORE PUSH1 0x20 ADD SWAP1 DUP2 MSTORE PUSH1 0x20 ADD PUSH0 KECCAK256 PUSH1 0x2 ADD PUSH0 DUP3 DUP3 SLOAD PUSH2 0x2D6 SWAP2 SWAP1 PUSH2 0xAA6 JUMP JUMPDEST SWAP3 POP POP DUP2 SWAP1 SSTORE POP POP POP JUMP JUMPDEST PUSH8 0x4563918244F40000 DUP2 JUMP JUMPDEST PUSH1 0x60 PUSH0 DUP1 PUSH0 DUP1 PUSH0 DUP7 PUSH20 0xFFFFFFFFFFFFFFFFFFFFFFFFFFFFFFFFFFFFFFFF AND PUSH20 0xFFFFFFFFFFFFFFFFFFFFFFFFFFFFFFFFFFFFFFFF AND DUP2 MSTORE PUSH1 0x20 ADD SWAP1 DUP2 MSTORE PUSH1 0x20 ADD PUSH0 KECCAK256 PUSH1 0x40 MLOAD DUP1 PUSH1 0x60 ADD PUSH1 0x40 MSTORE SWAP1 DUP2 PUSH0 DUP3 ADD DUP1 SLOAD PUSH2 0x348 SWAP1 PUSH2 0x9E1 JUMP JUMPDEST DUP1 PUSH1 0x1F ADD PUSH1 0x20 DUP1 SWAP2 DIV MUL PUSH1 0x20 ADD PUSH1 0x40 MLOAD SWAP1 DUP2 ADD PUSH1 0x40 MSTORE DUP1 SWAP3 SWAP2 SWAP1 DUP2 DUP2 MSTORE PUSH1 0x20 ADD DUP3 DUP1 SLOAD PUSH2 0x374 SWAP1 PUSH2 0x9E1 JUMP JUMPDEST DUP1 ISZERO PUSH2 0x3BF JUMPI DUP1 PUSH1 0x1F LT PUSH2 0x396 JUMPI PUSH2 0x100 DUP1 DUP4 SLOAD DIV MUL DUP4 MSTORE SWAP2 PUSH1 0x20 ADD SWAP2 PUSH2 0x3BF JUMP JUMPDEST DUP3 ADD SWAP2 SWAP1 PUSH0 MSTORE PUSH1 0x20 PUSH0 KECCAK256 SWAP1 JUMPDEST DUP2 SLOAD DUP2 MSTORE SWAP1 PUSH1 0x1 ADD SWAP1 PUSH1 0x20 ADD DUP1 DUP4 GT PUSH2 0x3A2 JUMPI DUP3 SWAP1 SUB PUSH1 0x1F AND DUP3 ADD SWAP2 JUMPDEST POP POP POP POP POP DUP2 MSTORE PUSH1 0x20 ADD PUSH1 0x1 DUP3 ADD PUSH0 SWAP1 SLOAD SWAP1 PUSH2 0x100 EXP SWAP1 DIV PUSH20 0xFFFFFFFFFFFFFFFFFFFFFFFFFFFFFFFFFFFFFFFF AND PUSH20 0xFFFFFFFFFFFFFFFFFFFFFFFFFFFFFFFFFFFFFFFF AND PUSH20 0xFFFFFFFFFFFFFFFFFFFFFFFFFFFFFFFFFFFFFFFF AND DUP2 MSTORE PUSH1 0x20 ADD PUSH1 0x2 DUP3 ADD SLOAD DUP2 MSTORE POP POP SWAP1 POP DUP1 PUSH0 ADD MLOAD DUP2 PUSH1 0x20 ADD MLOAD DUP3 PUSH1 0x40 ADD MLOAD SWAP4 POP SWAP4 POP SWAP4 POP POP SWAP2 SWAP4 SWAP1 SWAP3 POP JUMP JUMPDEST DUP2 PUSH0 DUP1 DUP4 PUSH20 0xFFFFFFFFFFFFFFFFFFFFFFFFFFFFFFFFFFFFFFFF AND PUSH20 0xFFFFFFFFFFFFFFFFFFFFFFFFFFFFFFFFFFFFFFFF AND DUP2 MSTORE PUSH1 0x20 ADD SWAP1 DUP2 MSTORE PUSH1 0x20 ADD PUSH0 KECCAK256 PUSH0 ADD SWAP1 DUP2 PUSH2 0x490 SWAP2 SWAP1 PUSH2 0xC76 JUMP JUMPDEST POP DUP1 PUSH0 DUP1 DUP4 PUSH20 0xFFFFFFFFFFFFFFFFFFFFFFFFFFFFFFFFFFFFFFFF AND PUSH20 0xFFFFFFFFFFFFFFFFFFFFFFFFFFFFFFFFFFFFFFFF AND DUP2 MSTORE PUSH1 0x20 ADD SWAP1 DUP2 MSTORE PUSH1 0x20 ADD PUSH0 KECCAK256 PUSH1 0x1 ADD PUSH0 PUSH2 0x100 EXP DUP2 SLOAD DUP2 PUSH20 0xFFFFFFFFFFFFFFFFFFFFFFFFFFFFFFFFFFFFFFFF MUL NOT AND SWAP1 DUP4 PUSH20 0xFFFFFFFFFFFFFFFFFFFFFFFFFFFFFFFFFFFFFFFF AND MUL OR SWAP1 SSTORE POP POP POP JUMP JUMPDEST PUSH8 0xDE0B6B3A7640000 DUP2 JUMP JUMPDEST PUSH8 0x4563918244F40000 DUP2 GT ISZERO PUSH2 0x569 JUMPI PUSH1 0x40 MLOAD PUSH32 0x8C379A000000000000000000000000000000000000000000000000000000000 DUP2 MSTORE PUSH1 0x4 ADD PUSH2 0x560 SWAP1 PUSH2 0xDB5 JUMP JUMPDEST PUSH1 0x40 MLOAD DUP1 SWAP2 SUB SWAP1 REVERT JUMPDEST DUP1 PUSH0 DUP1 DUP5 PUSH20 0xFFFFFFFFFFFFFFFFFFFFFFFFFFFFFFFFFFFFFFFF AND PUSH20 0xFFFFFFFFFFFFFFFFFFFFFFFFFFFFFFFFFFFFFFFF AND DUP2 MSTORE PUSH1 0x20 ADD SWAP1 DUP2 MSTORE PUSH1 0x20 ADD PUSH0 KECCAK256 PUSH1 0x2 ADD SLOAD LT ISZERO PUSH2 0x5EB JUMPI PUSH1 0x40 MLOAD PUSH32 0x8C379A000000000000000000000000000000000000000000000000000000000 DUP2 MSTORE PUSH1 0x4 ADD PUSH2 0x5E2 SWAP1 PUSH2 0xE1D JUMP JUMPDEST PUSH1 0x40 MLOAD DUP1 SWAP2 SUB SWAP1 REVERT JUMPDEST DUP1 PUSH0 DUP1 DUP5 PUSH20 0xFFFFFFFFFFFFFFFFFFFFFFFFFFFFFFFFFFFFFFFF AND PUSH20 0xFFFFFFFFFFFFFFFFFFFFFFFFFFFFFFFFFFFFFFFF AND DUP2 MSTORE PUSH1 0x20 ADD SWAP1 DUP2 MSTORE PUSH1 0x20 ADD PUSH0 KECCAK256 PUSH1 0x2 ADD PUSH0 DUP3 DUP3 SLOAD PUSH2 0x639 SWAP2 SWAP1 PUSH2 0xE3B JUMP JUMPDEST SWAP3 POP POP DUP2 SWAP1 SSTORE POP POP POP JUMP JUMPDEST PUSH0 PUSH1 0x40 MLOAD SWAP1 POP SWAP1 JUMP JUMPDEST PUSH0 DUP1 REVERT JUMPDEST PUSH0 DUP1 REVERT JUMPDEST PUSH0 PUSH20 0xFFFFFFFFFFFFFFFFFFFFFFFFFFFFFFFFFFFFFFFF DUP3 AND SWAP1 POP SWAP2 SWAP1 POP JUMP JUMPDEST PUSH0 PUSH2 0x67E DUP3 PUSH2 0x655 JUMP JUMPDEST SWAP1 POP SWAP2 SWAP1 POP JUMP JUMPDEST PUSH2 0x68E DUP2 PUSH2 0x674 JUMP JUMPDEST DUP2 EQ PUSH2 0x698 JUMPI PUSH0 DUP1 REVERT JUMPDEST POP JUMP JUMPDEST PUSH0 DUP2 CALLDATALOAD SWAP1 POP PUSH2 0x6A9 DUP2 PUSH2 0x685 JUMP JUMPDEST SWAP3 SWAP2 POP POP JUMP JUMPDEST PUSH0 PUSH1 0x20 DUP3 DUP5 SUB SLT ISZERO PUSH2 0x6C4 JUMPI PUSH2 0x6C3 PUSH2 0x64D JUMP JUMPDEST JUMPDEST PUSH0 PUSH2 0x6D1 DUP5 DUP3 DUP6 ADD PUSH2 0x69B JUMP JUMPDEST SWAP2 POP POP SWAP3 SWAP2 POP POP JUMP JUMPDEST PUSH0 DUP2 MLOAD SWAP1 POP SWAP2 SWAP1 POP JUMP JUMPDEST PUSH0 DUP3 DUP3 MSTORE PUSH1 0x20 DUP3 ADD SWAP1 POP SWAP3 SWAP2 POP POP JUMP JUMPDEST DUP3 DUP2 DUP4 MCOPY PUSH0 DUP4 DUP4 ADD MSTORE POP POP POP JUMP JUMPDEST PUSH0 PUSH1 0x1F NOT PUSH1 0x1F DUP4 ADD AND SWAP1 POP SWAP2 SWAP1 POP JUMP JUMPDEST PUSH0 PUSH2 0x71C DUP3 PUSH2 0x6DA JUMP JUMPDEST PUSH2 0x726 DUP2 DUP6 PUSH2 0x6E4 JUMP JUMPDEST SWAP4 POP PUSH2 0x736 DUP2 DUP6 PUSH1 0x20 DUP7 ADD PUSH2 0x6F4 JUMP JUMPDEST PUSH2 0x73F DUP2 PUSH2 0x702 JUMP JUMPDEST DUP5 ADD SWAP2 POP POP SWAP3 SWAP2 POP POP JUMP JUMPDEST PUSH2 0x753 DUP2 PUSH2 0x674 JUMP JUMPDEST DUP3 MSTORE POP POP JUMP JUMPDEST PUSH0 DUP2 SWAP1 POP SWAP2 SWAP1 POP JUMP JUMPDEST PUSH2 0x76B DUP2 PUSH2 0x759 JUMP JUMPDEST DUP3 MSTORE POP POP JUMP JUMPDEST PUSH0 PUSH1 0x60 DUP3 ADD SWAP1 POP DUP2 DUP2 SUB PUSH0 DUP4 ADD MSTORE PUSH2 0x789 DUP2 DUP7 PUSH2 0x712 JUMP JUMPDEST SWAP1 POP PUSH2 0x798 PUSH1 0x20 DUP4 ADD DUP6 PUSH2 0x74A JUMP JUMPDEST PUSH2 0x7A5 PUSH1 0x40 DUP4 ADD DUP5 PUSH2 0x762 JUMP JUMPDEST SWAP5 SWAP4 POP POP POP POP JUMP JUMPDEST PUSH2 0x7B6 DUP2 PUSH2 0x759 JUMP JUMPDEST DUP2 EQ PUSH2 0x7C0 JUMPI PUSH0 DUP1 REVERT JUMPDEST POP JUMP JUMPDEST PUSH0 DUP2 CALLDATALOAD SWAP1 POP PUSH2 0x7D1 DUP2 PUSH2 0x7AD JUMP JUMPDEST SWAP3 SWAP2 POP POP JUMP JUMPDEST PUSH0 DUP1 PUSH1 0x40 DUP4 DUP6 SUB SLT ISZERO PUSH2 0x7ED JUMPI PUSH2 0x7EC PUSH2 0x64D JUMP JUMPDEST JUMPDEST PUSH0 PUSH2 0x7FA DUP6 DUP3 DUP7 ADD PUSH2 0x69B JUMP JUMPDEST SWAP3 POP POP PUSH1 0x20 PUSH2 0x80B DUP6 DUP3 DUP7 ADD PUSH2 0x7C3 JUMP JUMPDEST SWAP2 POP POP SWAP3 POP SWAP3 SWAP1 POP JUMP JUMPDEST PUSH0 PUSH1 0x20 DUP3 ADD SWAP1 POP PUSH2 0x828 PUSH0 DUP4 ADD DUP5 PUSH2 0x762 JUMP JUMPDEST SWAP3 SWAP2 POP POP JUMP JUMPDEST PUSH0 DUP1 REVERT JUMPDEST PUSH0 DUP1 REVERT JUMPDEST PUSH32 0x4E487B7100000000000000000000000000000000000000000000000000000000 PUSH0 MSTORE PUSH1 0x41 PUSH1 0x4 MSTORE PUSH1 0x24 PUSH0 REVERT JUMPDEST PUSH2 0x86C DUP3 PUSH2 0x702 JUMP JUMPDEST DUP2 ADD DUP2 DUP2 LT PUSH8 0xFFFFFFFFFFFFFFFF DUP3 GT OR ISZERO PUSH2 0x88B JUMPI PUSH2 0x88A PUSH2 0x836 JUMP JUMPDEST JUMPDEST DUP1 PUSH1 0x40 MSTORE POP POP POP JUMP JUMPDEST PUSH0 PUSH2 0x89D PUSH2 0x644 JUMP JUMPDEST SWAP1 POP PUSH2 0x8A9 DUP3 DUP3 PUSH2 0x863 JUMP JUMPDEST SWAP2 SWAP1 POP JUMP JUMPDEST PUSH0 PUSH8 0xFFFFFFFFFFFFFFFF DUP3 GT ISZERO PUSH2 0x8C8 JUMPI PUSH2 0x8C7 PUSH2 0x836 JUMP JUMPDEST JUMPDEST PUSH2 0x8D1 DUP3 PUSH2 0x702 JUMP JUMPDEST SWAP1 POP PUSH1 0x20 DUP2 ADD SWAP1 POP SWAP2 SWAP1 POP JUMP JUMPDEST DUP3 DUP2 DUP4 CALLDATACOPY PUSH0 DUP4 DUP4 ADD MSTORE POP POP POP JUMP JUMPDEST PUSH0 PUSH2 0x8FE PUSH2 0x8F9 DUP5 PUSH2 0x8AE JUMP JUMPDEST PUSH2 0x894 JUMP JUMPDEST SWAP1 POP DUP3 DUP2 MSTORE PUSH1 0x20 DUP2 ADD DUP5 DUP5 DUP5 ADD GT ISZERO PUSH2 0x91A JUMPI PUSH2 0x919 PUSH2 0x832 JUMP JUMPDEST JUMPDEST PUSH2 0x925 DUP5 DUP3 DUP6 PUSH2 0x8DE JUMP JUMPDEST POP SWAP4 SWAP3 POP POP POP JUMP JUMPDEST PUSH0 DUP3 PUSH1 0x1F DUP4 ADD SLT PUSH2 0x941 JUMPI PUSH2 0x940 PUSH2 0x82E JUMP JUMPDEST JUMPDEST DUP2 CALLDATALOAD PUSH2 0x951 DUP5 DUP3 PUSH1 0x20 DUP7 ADD PUSH2 0x8EC JUMP JUMPDEST SWAP2 POP POP SWAP3 SWAP2 POP POP JUMP JUMPDEST PUSH0 DUP1 PUSH1 0x40 DUP4 DUP6 SUB SLT ISZERO PUSH2 0x970 JUMPI PUSH2 0x96F PUSH2 0x64D JUMP JUMPDEST JUMPDEST PUSH0 DUP4 ADD CALLDATALOAD PUSH8 0xFFFFFFFFFFFFFFFF DUP2 GT ISZERO PUSH2 0x98D JUMPI PUSH2 0x98C PUSH2 0x651 JUMP JUMPDEST JUMPDEST PUSH2 0x999 DUP6 DUP3 DUP7 ADD PUSH2 0x92D JUMP JUMPDEST SWAP3 POP POP PUSH1 0x20 PUSH2 0x9AA DUP6 DUP3 DUP7 ADD PUSH2 0x69B JUMP JUMPDEST SWAP2 POP POP SWAP3 POP SWAP3 SWAP1 POP JUMP JUMPDEST PUSH32 0x4E487B7100000000000000000000000000000000000000000000000000000000 PUSH0 MSTORE PUSH1 0x22 PUSH1 0x4 MSTORE PUSH1 0x24 PUSH0 REVERT JUMPDEST PUSH0 PUSH1 0x2 DUP3 DIV SWAP1 POP PUSH1 0x1 DUP3 AND DUP1 PUSH2 0x9F8 JUMPI PUSH1 0x7F DUP3 AND SWAP2 POP JUMPDEST PUSH1 0x20 DUP3 LT DUP2 SUB PUSH2 0xA0B JUMPI PUSH2 0xA0A PUSH2 0x9B4 JUMP JUMPDEST JUMPDEST POP SWAP2 SWAP1 POP JUMP JUMPDEST PUSH32 0x4465706F73697420616D6F756E7420697320746F6F20736D616C6C2E00000000 PUSH0 DUP3 ADD MSTORE POP JUMP JUMPDEST PUSH0 PUSH2 0xA45 PUSH1 0x1C DUP4 PUSH2 0x6E4 JUMP JUMPDEST SWAP2 POP PUSH2 0xA50 DUP3 PUSH2 0xA11 JUMP JUMPDEST PUSH1 0x20 DUP3 ADD SWAP1 POP SWAP2 SWAP1 POP JUMP JUMPDEST PUSH0 PUSH1 0x20 DUP3 ADD SWAP1 POP DUP2 DUP2 SUB PUSH0 DUP4 ADD MSTORE PUSH2 0xA72 DUP2 PUSH2 0xA39 JUMP JUMPDEST SWAP1 POP SWAP2 SWAP1 POP JUMP JUMPDEST PUSH32 0x4E487B7100000000000000000000000000000000000000000000000000000000 PUSH0 MSTORE PUSH1 0x11 PUSH1 0x4 MSTORE PUSH1 0x24 PUSH0 REVERT JUMPDEST PUSH0 PUSH2 0xAB0 DUP3 PUSH2 0x759 JUMP JUMPDEST SWAP2 POP PUSH2 0xABB DUP4 PUSH2 0x759 JUMP JUMPDEST SWAP3 POP DUP3 DUP3 ADD SWAP1 POP DUP1 DUP3 GT ISZERO PUSH2 0xAD3 JUMPI PUSH2 0xAD2 PUSH2 0xA79 JUMP JUMPDEST JUMPDEST SWAP3 SWAP2 POP POP JUMP JUMPDEST PUSH0 DUP2 SWAP1 POP DUP2 PUSH0 MSTORE PUSH1 0x20 PUSH0 KECCAK256 SWAP1 POP SWAP2 SWAP1 POP JUMP JUMPDEST PUSH0 PUSH1 0x20 PUSH1 0x1F DUP4 ADD DIV SWAP1 POP SWAP2 SWAP1 POP JUMP JUMPDEST PUSH0 DUP3 DUP3 SHL SWAP1 POP SWAP3 SWAP2 POP POP JUMP JUMPDEST PUSH0 PUSH1 0x8 DUP4 MUL PUSH2 0xB35 PUSH32 0xFFFFFFFFFFFFFFFFFFFFFFFFFFFFFFFFFFFFFFFFFFFFFFFFFFFFFFFFFFFFFFFF DUP3 PUSH2 0xAFA JUMP JUMPDEST PUSH2 0xB3F DUP7 DUP4 PUSH2 0xAFA JUMP JUMPDEST SWAP6 POP DUP1 NOT DUP5 AND SWAP4 POP DUP1 DUP7 AND DUP5 OR SWAP3 POP POP POP SWAP4 SWAP3 POP POP POP JUMP JUMPDEST PUSH0 DUP2 SWAP1 POP SWAP2 SWAP1 POP JUMP JUMPDEST PUSH0 PUSH2 0xB7A PUSH2 0xB75 PUSH2 0xB70 DUP5 PUSH2 0x759 JUMP JUMPDEST PUSH2 0xB57 JUMP JUMPDEST PUSH2 0x759 JUMP JUMPDEST SWAP1 POP SWAP2 SWAP1 POP JUMP JUMPDEST PUSH0 DUP2 SWAP1 POP SWAP2 SWAP1 POP JUMP JUMPDEST PUSH2 0xB93 DUP4 PUSH2 0xB60 JUMP JUMPDEST PUSH2 0xBA7 PUSH2 0xB9F DUP3 PUSH2 0xB81 JUMP JUMPDEST DUP5 DUP5 SLOAD PUSH2 0xB06 JUMP JUMPDEST DUP3 SSTORE POP POP POP POP JUMP JUMPDEST PUSH0 SWAP1 JUMP JUMPDEST PUSH2 0xBBB PUSH2 0xBAF JUMP JUMPDEST PUSH2 0xBC6 DUP2 DUP5 DUP5 PUSH2 0xB8A JUMP JUMPDEST POP POP POP JUMP JUMPDEST JUMPDEST DUP2 DUP2 LT ISZERO PUSH2 0xBE9 JUMPI PUSH2 0xBDE PUSH0 DUP3 PUSH2 0xBB3 JUMP JUMPDEST PUSH1 0x1 DUP2 ADD SWAP1 POP PUSH2 0xBCC JUMP JUMPDEST POP POP JUMP JUMPDEST PUSH1 0x1F DUP3 GT ISZERO PUSH2 0xC2E JUMPI PUSH2 0xBFF DUP2 PUSH2 0xAD9 JUMP JUMPDEST PUSH2 0xC08 DUP5 PUSH2 0xAEB JUMP JUMPDEST DUP2 ADD PUSH1 0x20 DUP6 LT ISZERO PUSH2 0xC17 JUMPI DUP2 SWAP1 POP JUMPDEST PUSH2 0xC2B PUSH2 0xC23 DUP6 PUSH2 0xAEB JUMP JUMPDEST DUP4 ADD DUP3 PUSH2 0xBCB JUMP JUMPDEST POP POP JUMPDEST POP POP POP JUMP JUMPDEST PUSH0 DUP3 DUP3 SHR SWAP1 POP SWAP3 SWAP2 POP POP JUMP JUMPDEST PUSH0 PUSH2 0xC4E PUSH0 NOT DUP5 PUSH1 0x8 MUL PUSH2 0xC33 JUMP JUMPDEST NOT DUP1 DUP4 AND SWAP2 POP POP SWAP3 SWAP2 POP POP JUMP JUMPDEST PUSH0 PUSH2 0xC66 DUP4 DUP4 PUSH2 0xC3F JUMP JUMPDEST SWAP2 POP DUP3 PUSH1 0x2 MUL DUP3 OR SWAP1 POP SWAP3 SWAP2 POP POP JUMP JUMPDEST PUSH2 0xC7F DUP3 PUSH2 0x6DA JUMP JUMPDEST PUSH8 0xFFFFFFFFFFFFFFFF DUP2 GT ISZERO PUSH2 0xC98 JUMPI PUSH2 0xC97 PUSH2 0x836 JUMP JUMPDEST JUMPDEST PUSH2 0xCA2 DUP3 SLOAD PUSH2 0x9E1 JUMP JUMPDEST PUSH2 0xCAD DUP3 DUP3 DUP6 PUSH2 0xBED JUMP JUMPDEST PUSH0 PUSH1 0x20 SWAP1 POP PUSH1 0x1F DUP4 GT PUSH1 0x1 DUP2 EQ PUSH2 0xCDE JUMPI PUSH0 DUP5 ISZERO PUSH2 0xCCC JUMPI DUP3 DUP8 ADD MLOAD SWAP1 POP JUMPDEST PUSH2 0xCD6 DUP6 DUP3 PUSH2 0xC5B JUMP JUMPDEST DUP7 SSTORE POP PUSH2 0xD3D JUMP JUMPDEST PUSH1 0x1F NOT DUP5 AND PUSH2 0xCEC DUP7 PUSH2 0xAD9 JUMP JUMPDEST PUSH0 JUMPDEST DUP3 DUP2 LT ISZERO PUSH2 0xD13 JUMPI DUP5 DUP10 ADD MLOAD DUP3 SSTORE PUSH1 0x1 DUP3 ADD SWAP2 POP PUSH1 0x20 DUP6 ADD SWAP5 POP PUSH1 0x20 DUP2 ADD SWAP1 POP PUSH2 0xCEE JUMP JUMPDEST DUP7 DUP4 LT ISZERO PUSH2 0xD30 JUMPI DUP5 DUP10 ADD MLOAD PUSH2 0xD2C PUSH1 0x1F DUP10 AND DUP3 PUSH2 0xC3F JUMP JUMPDEST DUP4 SSTORE POP JUMPDEST PUSH1 0x1 PUSH1 0x2 DUP9 MUL ADD DUP9 SSTORE POP POP POP JUMPDEST POP POP POP POP POP POP JUMP JUMPDEST PUSH32 0x5769746864726177616C20616D6F756E74206578636565647320746865206D61 PUSH0 DUP3 ADD MSTORE PUSH32 0x78696D756D206C696D69742E0000000000000000000000000000000000000000 PUSH1 0x20 DUP3 ADD MSTORE POP JUMP JUMPDEST PUSH0 PUSH2 0xD9F PUSH1 0x2C DUP4 PUSH2 0x6E4 JUMP JUMPDEST SWAP2 POP PUSH2 0xDAA DUP3 PUSH2 0xD45 JUMP JUMPDEST PUSH1 0x40 DUP3 ADD SWAP1 POP SWAP2 SWAP1 POP JUMP JUMPDEST PUSH0 PUSH1 0x20 DUP3 ADD SWAP1 POP DUP2 DUP2 SUB PUSH0 DUP4 ADD MSTORE PUSH2 0xDCC DUP2 PUSH2 0xD93 JUMP JUMPDEST SWAP1 POP SWAP2 SWAP1 POP JUMP JUMPDEST PUSH32 0x496E73756666696369656E742062616C616E63652E0000000000000000000000 PUSH0 DUP3 ADD MSTORE POP JUMP JUMPDEST PUSH0 PUSH2 0xE07 PUSH1 0x15 DUP4 PUSH2 0x6E4 JUMP JUMPDEST SWAP2 POP PUSH2 0xE12 DUP3 PUSH2 0xDD3 JUMP JUMPDEST PUSH1 0x20 DUP3 ADD SWAP1 POP SWAP2 SWAP1 POP JUMP JUMPDEST PUSH0 PUSH1 0x20 DUP3 ADD SWAP1 POP DUP2 DUP2 SUB PUSH0 DUP4 ADD MSTORE PUSH2 0xE34 DUP2 PUSH2 0xDFB JUMP JUMPDEST SWAP1 POP SWAP2 SWAP1 POP JUMP JUMPDEST PUSH0 PUSH2 0xE45 DUP3 PUSH2 0x759 JUMP JUMPDEST SWAP2 POP PUSH2 0xE50 DUP4 PUSH2 0x759 JUMP JUMPDEST SWAP3 POP DUP3 DUP3 SUB SWAP1 POP DUP2 DUP2 GT ISZERO PUSH2 0xE68 JUMPI PUSH2 0xE67 PUSH2 0xA79 JUMP JUMPDEST JUMPDEST SWAP3 SWAP2 POP POP JUMP INVALID LOG2 PUSH5 0x6970667358 0x22 SLT KECCAK256 0xAA 0xE2 0xC6 0xC4 RETURNDATASIZE PUSH3 0xFD53B5 DUP15 PUSH29 0xD45F203CEB9183A4F2A91B66ABEBE7AAAA906B59D764736F6C63430008 BYTE STOP CALLER "
				},
				"gasEstimates": {
					"creation": {
						"codeDepositCost": "749600",
						"executionCost": "784",
						"totalCost": "750384"
					},
					"external": {
						"MAX_WITHDRAWAL()": "370",
						"MIN_DEPOSIT()": "369",
						"deposit(address,uint256)": "infinite",
						"getUserProfile(address)": "infinite",
						"setUserProfile(string,address)": "infinite",
						"userProfiles(address)": "infinite",
						"withdraw(address,uint256)": "infinite"
					}
				},
				"methodIdentifiers": {
					"MAX_WITHDRAWAL()": "97ec642c",
					"MIN_DEPOSIT()": "e1e158a5",
					"deposit(address,uint256)": "47e7ef24",
					"getUserProfile(address)": "987ee156",
					"setUserProfile(string,address)": "c2da9d0d",
					"userProfiles(address)": "332d56d7",
					"withdraw(address,uint256)": "f3fef3a3"
				}
			},
			"storageLayout": {
				"storage": [
					{
						"astId": 13,
						"contract": "contracts/Bank.sol:Bank",
						"label": "userProfiles",
						"offset": 0,
						"slot": "0",
						"type": "t_mapping(t_address,t_struct(UserProfile)8_storage)"
					}
				],
				"types": {
					"t_address": {
						"encoding": "inplace",
						"label": "address",
						"numberOfBytes": "20"
					},
					"t_mapping(t_address,t_struct(UserProfile)8_storage)": {
						"encoding": "mapping",
						"key": "t_address",
						"label": "mapping(address => struct Bank.UserProfile)",
						"numberOfBytes": "32",
						"value": "t_struct(UserProfile)8_storage"
					},
					"t_string_storage": {
						"encoding": "bytes",
						"label": "string",
						"numberOfBytes": "32"
					},
					"t_struct(UserProfile)8_storage": {
						"encoding": "inplace",
						"label": "struct Bank.UserProfile",
						"members": [
							{
								"astId": 3,
								"contract": "contracts/Bank.sol:Bank",
								"label": "name",
								"offset": 0,
								"slot": "0",
								"type": "t_string_storage"
							},
							{
								"astId": 5,
								"contract": "contracts/Bank.sol:Bank",
								"label": "userAddress",
								"offset": 0,
								"slot": "1",
								"type": "t_address"
							},
							{
								"astId": 7,
								"contract": "contracts/Bank.sol:Bank",
								"label": "balance",
								"offset": 0,
								"slot": "2",
								"type": "t_uint256"
							}
						],
						"numberOfBytes": "96"
					},
					"t_uint256": {
						"encoding": "inplace",
						"label": "uint256",
						"numberOfBytes": "32"
					}
				}
			},
			"userdoc": {
				"kind": "user",
				"methods": {},
				"version": 1
			}
		}
	}
}