{
	"contracts/Eth_Wallet.sol": {
		"Eth_Wallet": {
			"abi": [
				{
					"inputs": [],
					"stateMutability": "nonpayable",
					"type": "constructor"
				},
				{
					"inputs": [],
					"name": "get_bal",
					"outputs": [
						{
							"internalType": "uint256",
							"name": "",
							"type": "uint256"
						}
					],
					"stateMutability": "view",
					"type": "function"
				},
				{
					"inputs": [],
					"name": "owner",
					"outputs": [
						{
							"internalType": "address payable",
							"name": "",
							"type": "address"
						}
					],
					"stateMutability": "view",
					"type": "function"
				},
				{
					"inputs": [
						{
							"internalType": "uint256",
							"name": "_amount",
							"type": "uint256"
						}
					],
					"name": "withdraw",
					"outputs": [],
					"stateMutability": "nonpayable",
					"type": "function"
				},
				{
					"stateMutability": "payable",
					"type": "receive"
				}
			],
			"devdoc": {
				"kind": "dev",
				"methods": {},
				"version": 1
			},
			"evm": {
				"assembly": "    /* \"contracts/Eth_Wallet.sol\":112:1159  contract Eth_Wallet... */\n  mstore(0x40, 0x80)\n    /* \"contracts/Eth_Wallet.sol\":345:406  constructor() {... */\n  callvalue\n  dup1\n  iszero\n  tag_1\n  jumpi\n  0x00\n  dup1\n  revert\ntag_1:\n  pop\n    /* \"contracts/Eth_Wallet.sol\":387:397  msg.sender */\n  caller\n    /* \"contracts/Eth_Wallet.sol\":370:375  owner */\n  0x00\n  dup1\n    /* \"contracts/Eth_Wallet.sol\":370:398  owner = payable (msg.sender) */\n  0x0100\n  exp\n  dup2\n  sload\n  dup2\n  0xffffffffffffffffffffffffffffffffffffffff\n  mul\n  not\n  and\n  swap1\n  dup4\n  0xffffffffffffffffffffffffffffffffffffffff\n  and\n  mul\n  or\n  swap1\n  sstore\n  pop\n    /* \"contracts/Eth_Wallet.sol\":112:1159  contract Eth_Wallet... */\n  dataSize(sub_0)\n  dup1\n  dataOffset(sub_0)\n  0x00\n  codecopy\n  0x00\n  return\nstop\n\nsub_0: assembly {\n        /* \"contracts/Eth_Wallet.sol\":112:1159  contract Eth_Wallet... */\n      mstore(0x40, 0x80)\n      jumpi(tag_1, lt(calldatasize, 0x04))\n      shr(0xe0, calldataload(0x00))\n      dup1\n      0x2e1a7d4d\n      eq\n      tag_3\n      jumpi\n      dup1\n      0x8da5cb5b\n      eq\n      tag_4\n      jumpi\n      dup1\n      0xb55587e3\n      eq\n      tag_5\n      jumpi\n      jump(tag_2)\n    tag_1:\n      jumpi(tag_2, calldatasize)\n      stop\n    tag_2:\n      0x00\n      dup1\n      revert\n        /* \"contracts/Eth_Wallet.sol\":590:952  function withdraw(uint _amount) external ... */\n    tag_3:\n      callvalue\n      dup1\n      iszero\n      tag_8\n      jumpi\n      0x00\n      dup1\n      revert\n    tag_8:\n      pop\n      tag_9\n      0x04\n      dup1\n      calldatasize\n      sub\n      dup2\n      add\n      swap1\n      tag_10\n      swap2\n      swap1\n      tag_11\n      jump\t// in\n    tag_10:\n      tag_12\n      jump\t// in\n    tag_9:\n      stop\n        /* \"contracts/Eth_Wallet.sol\":245:273  address payable public owner */\n    tag_4:\n      callvalue\n      dup1\n      iszero\n      tag_13\n      jumpi\n      0x00\n      dup1\n      revert\n    tag_13:\n      pop\n      tag_14\n      tag_15\n      jump\t// in\n    tag_14:\n      mload(0x40)\n      tag_16\n      swap2\n      swap1\n      tag_17\n      jump\t// in\n    tag_16:\n      mload(0x40)\n      dup1\n      swap2\n      sub\n      swap1\n      return\n        /* \"contracts/Eth_Wallet.sol\":1056:1156  function get_bal() external view returns (uint)... */\n    tag_5:\n      callvalue\n      dup1\n      iszero\n      tag_18\n      jumpi\n      0x00\n      dup1\n      revert\n    tag_18:\n      pop\n      tag_19\n      tag_20\n      jump\t// in\n    tag_19:\n      mload(0x40)\n      tag_21\n      swap2\n      swap1\n      tag_22\n      jump\t// in\n    tag_21:\n      mload(0x40)\n      dup1\n      swap2\n      sub\n      swap1\n      return\n        /* \"contracts/Eth_Wallet.sol\":590:952  function withdraw(uint _amount) external ... */\n    tag_12:\n        /* \"contracts/Eth_Wallet.sol\":753:758  owner */\n      0x00\n      dup1\n      sload\n      swap1\n      0x0100\n      exp\n      swap1\n      div\n      0xffffffffffffffffffffffffffffffffffffffff\n      and\n        /* \"contracts/Eth_Wallet.sol\":739:758  msg.sender == owner */\n      0xffffffffffffffffffffffffffffffffffffffff\n      and\n        /* \"contracts/Eth_Wallet.sol\":739:749  msg.sender */\n      caller\n        /* \"contracts/Eth_Wallet.sol\":739:758  msg.sender == owner */\n      0xffffffffffffffffffffffffffffffffffffffff\n      and\n      eq\n        /* \"contracts/Eth_Wallet.sol\":731:791  require(msg.sender == owner, \"The caller is not the owner.\") */\n      tag_24\n      jumpi\n      mload(0x40)\n      0x08c379a000000000000000000000000000000000000000000000000000000000\n      dup2\n      mstore\n      0x04\n      add\n      tag_25\n      swap1\n      tag_26\n      jump\t// in\n    tag_25:\n      mload(0x40)\n      dup1\n      swap2\n      sub\n      swap1\n      revert\n    tag_24:\n        /* \"contracts/Eth_Wallet.sol\":802:807  owner */\n      0x00\n      dup1\n      sload\n      swap1\n      0x0100\n      exp\n      swap1\n      div\n      0xffffffffffffffffffffffffffffffffffffffff\n      and\n        /* \"contracts/Eth_Wallet.sol\":802:816  owner.transfer */\n      0xffffffffffffffffffffffffffffffffffffffff\n      and\n        /* \"contracts/Eth_Wallet.sol\":802:825  owner.transfer(_amount) */\n      0x08fc\n        /* \"contracts/Eth_Wallet.sol\":817:824  _amount */\n      dup3\n        /* \"contracts/Eth_Wallet.sol\":802:825  owner.transfer(_amount) */\n      swap1\n      dup2\n      iszero\n      mul\n      swap1\n      mload(0x40)\n      0x00\n      mload(0x40)\n      dup1\n      dup4\n      sub\n      dup2\n      dup6\n      dup9\n      dup9\n      call\n      swap4\n      pop\n      pop\n      pop\n      pop\n      iszero\n      dup1\n      iszero\n      tag_28\n      jumpi\n      returndatasize\n      0x00\n      dup1\n      returndatacopy\n      revert(0x00, returndatasize)\n    tag_28:\n      pop\n        /* \"contracts/Eth_Wallet.sol\":590:952  function withdraw(uint _amount) external ... */\n      pop\n      jump\t// out\n        /* \"contracts/Eth_Wallet.sol\":245:273  address payable public owner */\n    tag_15:\n      0x00\n      dup1\n      sload\n      swap1\n      0x0100\n      exp\n      swap1\n      div\n      0xffffffffffffffffffffffffffffffffffffffff\n      and\n      dup2\n      jump\t// out\n        /* \"contracts/Eth_Wallet.sol\":1056:1156  function get_bal() external view returns (uint)... */\n    tag_20:\n        /* \"contracts/Eth_Wallet.sol\":1098:1102  uint */\n      0x00\n        /* \"contracts/Eth_Wallet.sol\":1127:1148  address(this).balance */\n      selfbalance\n        /* \"contracts/Eth_Wallet.sol\":1120:1148  return address(this).balance */\n      swap1\n      pop\n        /* \"contracts/Eth_Wallet.sol\":1056:1156  function get_bal() external view returns (uint)... */\n      swap1\n      jump\t// out\n        /* \"#utility.yul\":88:205   */\n    tag_31:\n        /* \"#utility.yul\":197:198   */\n      0x00\n        /* \"#utility.yul\":194:195   */\n      dup1\n        /* \"#utility.yul\":187:199   */\n      revert\n        /* \"#utility.yul\":334:411   */\n    tag_33:\n        /* \"#utility.yul\":371:378   */\n      0x00\n        /* \"#utility.yul\":400:405   */\n      dup2\n        /* \"#utility.yul\":389:405   */\n      swap1\n      pop\n        /* \"#utility.yul\":334:411   */\n      swap2\n      swap1\n      pop\n      jump\t// out\n        /* \"#utility.yul\":417:539   */\n    tag_34:\n        /* \"#utility.yul\":490:514   */\n      tag_49\n        /* \"#utility.yul\":508:513   */\n      dup2\n        /* \"#utility.yul\":490:514   */\n      tag_33\n      jump\t// in\n    tag_49:\n        /* \"#utility.yul\":483:488   */\n      dup2\n        /* \"#utility.yul\":480:515   */\n      eq\n        /* \"#utility.yul\":470:533   */\n      tag_50\n      jumpi\n        /* \"#utility.yul\":529:530   */\n      0x00\n        /* \"#utility.yul\":526:527   */\n      dup1\n        /* \"#utility.yul\":519:531   */\n      revert\n        /* \"#utility.yul\":470:533   */\n    tag_50:\n        /* \"#utility.yul\":417:539   */\n      pop\n      jump\t// out\n        /* \"#utility.yul\":545:684   */\n    tag_35:\n        /* \"#utility.yul\":591:596   */\n      0x00\n        /* \"#utility.yul\":629:635   */\n      dup2\n        /* \"#utility.yul\":616:636   */\n      calldataload\n        /* \"#utility.yul\":607:636   */\n      swap1\n      pop\n        /* \"#utility.yul\":645:678   */\n      tag_52\n        /* \"#utility.yul\":672:677   */\n      dup2\n        /* \"#utility.yul\":645:678   */\n      tag_34\n      jump\t// in\n    tag_52:\n        /* \"#utility.yul\":545:684   */\n      swap3\n      swap2\n      pop\n      pop\n      jump\t// out\n        /* \"#utility.yul\":690:1019   */\n    tag_11:\n        /* \"#utility.yul\":749:755   */\n      0x00\n        /* \"#utility.yul\":798:800   */\n      0x20\n        /* \"#utility.yul\":786:795   */\n      dup3\n        /* \"#utility.yul\":777:784   */\n      dup5\n        /* \"#utility.yul\":773:796   */\n      sub\n        /* \"#utility.yul\":769:801   */\n      slt\n        /* \"#utility.yul\":766:885   */\n      iszero\n      tag_54\n      jumpi\n        /* \"#utility.yul\":804:883   */\n      tag_55\n      tag_31\n      jump\t// in\n    tag_55:\n        /* \"#utility.yul\":766:885   */\n    tag_54:\n        /* \"#utility.yul\":924:925   */\n      0x00\n        /* \"#utility.yul\":949:1002   */\n      tag_56\n        /* \"#utility.yul\":994:1001   */\n      dup5\n        /* \"#utility.yul\":985:991   */\n      dup3\n        /* \"#utility.yul\":974:983   */\n      dup6\n        /* \"#utility.yul\":970:992   */\n      add\n        /* \"#utility.yul\":949:1002   */\n      tag_35\n      jump\t// in\n    tag_56:\n        /* \"#utility.yul\":939:1002   */\n      swap2\n      pop\n        /* \"#utility.yul\":895:1012   */\n      pop\n        /* \"#utility.yul\":690:1019   */\n      swap3\n      swap2\n      pop\n      pop\n      jump\t// out\n        /* \"#utility.yul\":1025:1151   */\n    tag_36:\n        /* \"#utility.yul\":1062:1069   */\n      0x00\n        /* \"#utility.yul\":1102:1144   */\n      0xffffffffffffffffffffffffffffffffffffffff\n        /* \"#utility.yul\":1095:1100   */\n      dup3\n        /* \"#utility.yul\":1091:1145   */\n      and\n        /* \"#utility.yul\":1080:1145   */\n      swap1\n      pop\n        /* \"#utility.yul\":1025:1151   */\n      swap2\n      swap1\n      pop\n      jump\t// out\n        /* \"#utility.yul\":1157:1261   */\n    tag_37:\n        /* \"#utility.yul\":1202:1209   */\n      0x00\n        /* \"#utility.yul\":1231:1255   */\n      tag_59\n        /* \"#utility.yul\":1249:1254   */\n      dup3\n        /* \"#utility.yul\":1231:1255   */\n      tag_36\n      jump\t// in\n    tag_59:\n        /* \"#utility.yul\":1220:1255   */\n      swap1\n      pop\n        /* \"#utility.yul\":1157:1261   */\n      swap2\n      swap1\n      pop\n      jump\t// out\n        /* \"#utility.yul\":1267:1409   */\n    tag_38:\n        /* \"#utility.yul\":1370:1402   */\n      tag_61\n        /* \"#utility.yul\":1396:1401   */\n      dup2\n        /* \"#utility.yul\":1370:1402   */\n      tag_37\n      jump\t// in\n    tag_61:\n        /* \"#utility.yul\":1365:1368   */\n      dup3\n        /* \"#utility.yul\":1358:1403   */\n      mstore\n        /* \"#utility.yul\":1267:1409   */\n      pop\n      pop\n      jump\t// out\n        /* \"#utility.yul\":1415:1669   */\n    tag_17:\n        /* \"#utility.yul\":1524:1528   */\n      0x00\n        /* \"#utility.yul\":1562:1564   */\n      0x20\n        /* \"#utility.yul\":1551:1560   */\n      dup3\n        /* \"#utility.yul\":1547:1565   */\n      add\n        /* \"#utility.yul\":1539:1565   */\n      swap1\n      pop\n        /* \"#utility.yul\":1575:1662   */\n      tag_63\n        /* \"#utility.yul\":1659:1660   */\n      0x00\n        /* \"#utility.yul\":1648:1657   */\n      dup4\n        /* \"#utility.yul\":1644:1661   */\n      add\n        /* \"#utility.yul\":1635:1641   */\n      dup5\n        /* \"#utility.yul\":1575:1662   */\n      tag_38\n      jump\t// in\n    tag_63:\n        /* \"#utility.yul\":1415:1669   */\n      swap3\n      swap2\n      pop\n      pop\n      jump\t// out\n        /* \"#utility.yul\":1675:1793   */\n    tag_39:\n        /* \"#utility.yul\":1762:1786   */\n      tag_65\n        /* \"#utility.yul\":1780:1785   */\n      dup2\n        /* \"#utility.yul\":1762:1786   */\n      tag_33\n      jump\t// in\n    tag_65:\n        /* \"#utility.yul\":1757:1760   */\n      dup3\n        /* \"#utility.yul\":1750:1787   */\n      mstore\n        /* \"#utility.yul\":1675:1793   */\n      pop\n      pop\n      jump\t// out\n        /* \"#utility.yul\":1799:2021   */\n    tag_22:\n        /* \"#utility.yul\":1892:1896   */\n      0x00\n        /* \"#utility.yul\":1930:1932   */\n      0x20\n        /* \"#utility.yul\":1919:1928   */\n      dup3\n        /* \"#utility.yul\":1915:1933   */\n      add\n        /* \"#utility.yul\":1907:1933   */\n      swap1\n      pop\n        /* \"#utility.yul\":1943:2014   */\n      tag_67\n        /* \"#utility.yul\":2011:2012   */\n      0x00\n        /* \"#utility.yul\":2000:2009   */\n      dup4\n        /* \"#utility.yul\":1996:2013   */\n      add\n        /* \"#utility.yul\":1987:1993   */\n      dup5\n        /* \"#utility.yul\":1943:2014   */\n      tag_39\n      jump\t// in\n    tag_67:\n        /* \"#utility.yul\":1799:2021   */\n      swap3\n      swap2\n      pop\n      pop\n      jump\t// out\n        /* \"#utility.yul\":2027:2196   */\n    tag_40:\n        /* \"#utility.yul\":2111:2122   */\n      0x00\n        /* \"#utility.yul\":2145:2151   */\n      dup3\n        /* \"#utility.yul\":2140:2143   */\n      dup3\n        /* \"#utility.yul\":2133:2152   */\n      mstore\n        /* \"#utility.yul\":2185:2189   */\n      0x20\n        /* \"#utility.yul\":2180:2183   */\n      dup3\n        /* \"#utility.yul\":2176:2190   */\n      add\n        /* \"#utility.yul\":2161:2190   */\n      swap1\n      pop\n        /* \"#utility.yul\":2027:2196   */\n      swap3\n      swap2\n      pop\n      pop\n      jump\t// out\n        /* \"#utility.yul\":2202:2380   */\n    tag_41:\n        /* \"#utility.yul\":2342:2372   */\n      0x5468652063616c6c6572206973206e6f7420746865206f776e65722e00000000\n        /* \"#utility.yul\":2338:2339   */\n      0x00\n        /* \"#utility.yul\":2330:2336   */\n      dup3\n        /* \"#utility.yul\":2326:2340   */\n      add\n        /* \"#utility.yul\":2319:2373   */\n      mstore\n        /* \"#utility.yul\":2202:2380   */\n      pop\n      jump\t// out\n        /* \"#utility.yul\":2386:2752   */\n    tag_42:\n        /* \"#utility.yul\":2528:2531   */\n      0x00\n        /* \"#utility.yul\":2549:2616   */\n      tag_71\n        /* \"#utility.yul\":2613:2615   */\n      0x1c\n        /* \"#utility.yul\":2608:2611   */\n      dup4\n        /* \"#utility.yul\":2549:2616   */\n      tag_40\n      jump\t// in\n    tag_71:\n        /* \"#utility.yul\":2542:2616   */\n      swap2\n      pop\n        /* \"#utility.yul\":2625:2718   */\n      tag_72\n        /* \"#utility.yul\":2714:2717   */\n      dup3\n        /* \"#utility.yul\":2625:2718   */\n      tag_41\n      jump\t// in\n    tag_72:\n        /* \"#utility.yul\":2743:2745   */\n      0x20\n        /* \"#utility.yul\":2738:2741   */\n      dup3\n        /* \"#utility.yul\":2734:2746   */\n      add\n        /* \"#utility.yul\":2727:2746   */\n      swap1\n      pop\n        /* \"#utility.yul\":2386:2752   */\n      swap2\n      swap1\n      pop\n      jump\t// out\n        /* \"#utility.yul\":2758:3177   */\n    tag_26:\n        /* \"#utility.yul\":2924:2928   */\n      0x00\n        /* \"#utility.yul\":2962:2964   */\n      0x20\n        /* \"#utility.yul\":2951:2960   */\n      dup3\n        /* \"#utility.yul\":2947:2965   */\n      add\n        /* \"#utility.yul\":2939:2965   */\n      swap1\n      pop\n        /* \"#utility.yul\":3011:3020   */\n      dup2\n        /* \"#utility.yul\":3005:3009   */\n      dup2\n        /* \"#utility.yul\":3001:3021   */\n      sub\n        /* \"#utility.yul\":2997:2998   */\n      0x00\n        /* \"#utility.yul\":2986:2995   */\n      dup4\n        /* \"#utility.yul\":2982:2999   */\n      add\n        /* \"#utility.yul\":2975:3022   */\n      mstore\n        /* \"#utility.yul\":3039:3170   */\n      tag_74\n        /* \"#utility.yul\":3165:3169   */\n      dup2\n        /* \"#utility.yul\":3039:3170   */\n      tag_42\n      jump\t// in\n    tag_74:\n        /* \"#utility.yul\":3031:3170   */\n      swap1\n      pop\n        /* \"#utility.yul\":2758:3177   */\n      swap2\n      swap1\n      pop\n      jump\t// out\n\n    auxdata: 0xa2646970667358221220c3e6e0b5ffef5930fb9a677e4dd0368f6e05f78403a38d0edcff72d1335f8e5764736f6c634300081a0033\n}\n",
				"bytecode": {
					"linkReferences": {},
					"object": "6080604052348015600e575f80fd5b50335f806101000a81548173ffffffffffffffffffffffffffffffffffffffff021916908373ffffffffffffffffffffffffffffffffffffffff16021790555061036b8061005b5f395ff3fe608060405260043610610037575f3560e01c80632e1a7d4d146100425780638da5cb5b1461006a578063b55587e3146100945761003e565b3661003e57005b5f80fd5b34801561004d575f80fd5b5061006860048036038101906100639190610212565b6100be565b005b348015610075575f80fd5b5061007e6101b1565b60405161008b919061027c565b60405180910390f35b34801561009f575f80fd5b506100a86101d4565b6040516100b591906102a4565b60405180910390f35b5f8054906101000a900473ffffffffffffffffffffffffffffffffffffffff1673ffffffffffffffffffffffffffffffffffffffff163373ffffffffffffffffffffffffffffffffffffffff161461014b576040517f08c379a000000000000000000000000000000000000000000000000000000000815260040161014290610317565b60405180910390fd5b5f8054906101000a900473ffffffffffffffffffffffffffffffffffffffff1673ffffffffffffffffffffffffffffffffffffffff166108fc8290811502906040515f60405180830381858888f193505050501580156101ad573d5f803e3d5ffd5b5050565b5f8054906101000a900473ffffffffffffffffffffffffffffffffffffffff1681565b5f47905090565b5f80fd5b5f819050919050565b6101f1816101df565b81146101fb575f80fd5b50565b5f8135905061020c816101e8565b92915050565b5f60208284031215610227576102266101db565b5b5f610234848285016101fe565b91505092915050565b5f73ffffffffffffffffffffffffffffffffffffffff82169050919050565b5f6102668261023d565b9050919050565b6102768161025c565b82525050565b5f60208201905061028f5f83018461026d565b92915050565b61029e816101df565b82525050565b5f6020820190506102b75f830184610295565b92915050565b5f82825260208201905092915050565b7f5468652063616c6c6572206973206e6f7420746865206f776e65722e000000005f82015250565b5f610301601c836102bd565b915061030c826102cd565b602082019050919050565b5f6020820190508181035f83015261032e816102f5565b905091905056fea2646970667358221220c3e6e0b5ffef5930fb9a677e4dd0368f6e05f78403a38d0edcff72d1335f8e5764736f6c634300081a0033",
					"opcodes": "PUSH1 0x80 PUSH1 0x40 MSTORE CALLVALUE DUP1 ISZERO PUSH1 0xE JUMPI PUSH0 DUP1 REVERT JUMPDEST POP CALLER PUSH0 DUP1 PUSH2 0x100 EXP DUP2 SLOAD DUP2 PUSH20 0xFFFFFFFFFFFFFFFFFFFFFFFFFFFFFFFFFFFFFFFF MUL NOT AND SWAP1 DUP4 PUSH20 0xFFFFFFFFFFFFFFFFFFFFFFFFFFFFFFFFFFFFFFFF AND MUL OR SWAP1 SSTORE POP PUSH2 0x36B DUP1 PUSH2 0x5B PUSH0 CODECOPY PUSH0 RETURN INVALID PUSH1 0x80 PUSH1 0x40 MSTORE PUSH1 0x4 CALLDATASIZE LT PUSH2 0x37 JUMPI PUSH0 CALLDATALOAD PUSH1 0xE0 SHR DUP1 PUSH4 0x2E1A7D4D EQ PUSH2 0x42 JUMPI DUP1 PUSH4 0x8DA5CB5B EQ PUSH2 0x6A JUMPI DUP1 PUSH4 0xB55587E3 EQ PUSH2 0x94 JUMPI PUSH2 0x3E JUMP JUMPDEST CALLDATASIZE PUSH2 0x3E JUMPI STOP JUMPDEST PUSH0 DUP1 REVERT JUMPDEST CALLVALUE DUP1 ISZERO PUSH2 0x4D JUMPI PUSH0 DUP1 REVERT JUMPDEST POP PUSH2 0x68 PUSH1 0x4 DUP1 CALLDATASIZE SUB DUP2 ADD SWAP1 PUSH2 0x63 SWAP2 SWAP1 PUSH2 0x212 JUMP JUMPDEST PUSH2 0xBE JUMP JUMPDEST STOP JUMPDEST CALLVALUE DUP1 ISZERO PUSH2 0x75 JUMPI PUSH0 DUP1 REVERT JUMPDEST POP PUSH2 0x7E PUSH2 0x1B1 JUMP JUMPDEST PUSH1 0x40 MLOAD PUSH2 0x8B SWAP2 SWAP1 PUSH2 0x27C JUMP JUMPDEST PUSH1 0x40 MLOAD DUP1 SWAP2 SUB SWAP1 RETURN JUMPDEST CALLVALUE DUP1 ISZERO PUSH2 0x9F JUMPI PUSH0 DUP1 REVERT JUMPDEST POP PUSH2 0xA8 PUSH2 0x1D4 JUMP JUMPDEST PUSH1 0x40 MLOAD PUSH2 0xB5 SWAP2 SWAP1 PUSH2 0x2A4 JUMP JUMPDEST PUSH1 0x40 MLOAD DUP1 SWAP2 SUB SWAP1 RETURN JUMPDEST PUSH0 DUP1 SLOAD SWAP1 PUSH2 0x100 EXP SWAP1 DIV PUSH20 0xFFFFFFFFFFFFFFFFFFFFFFFFFFFFFFFFFFFFFFFF AND PUSH20 0xFFFFFFFFFFFFFFFFFFFFFFFFFFFFFFFFFFFFFFFF AND CALLER PUSH20 0xFFFFFFFFFFFFFFFFFFFFFFFFFFFFFFFFFFFFFFFF AND EQ PUSH2 0x14B JUMPI PUSH1 0x40 MLOAD PUSH32 0x8C379A000000000000000000000000000000000000000000000000000000000 DUP2 MSTORE PUSH1 0x4 ADD PUSH2 0x142 SWAP1 PUSH2 0x317 JUMP JUMPDEST PUSH1 0x40 MLOAD DUP1 SWAP2 SUB SWAP1 REVERT JUMPDEST PUSH0 DUP1 SLOAD SWAP1 PUSH2 0x100 EXP SWAP1 DIV PUSH20 0xFFFFFFFFFFFFFFFFFFFFFFFFFFFFFFFFFFFFFFFF AND PUSH20 0xFFFFFFFFFFFFFFFFFFFFFFFFFFFFFFFFFFFFFFFF AND PUSH2 0x8FC DUP3 SWAP1 DUP2 ISZERO MUL SWAP1 PUSH1 0x40 MLOAD PUSH0 PUSH1 0x40 MLOAD DUP1 DUP4 SUB DUP2 DUP6 DUP9 DUP9 CALL SWAP4 POP POP POP POP ISZERO DUP1 ISZERO PUSH2 0x1AD JUMPI RETURNDATASIZE PUSH0 DUP1 RETURNDATACOPY RETURNDATASIZE PUSH0 REVERT JUMPDEST POP POP JUMP JUMPDEST PUSH0 DUP1 SLOAD SWAP1 PUSH2 0x100 EXP SWAP1 DIV PUSH20 0xFFFFFFFFFFFFFFFFFFFFFFFFFFFFFFFFFFFFFFFF AND DUP2 JUMP JUMPDEST PUSH0 SELFBALANCE SWAP1 POP SWAP1 JUMP JUMPDEST PUSH0 DUP1 REVERT JUMPDEST PUSH0 DUP2 SWAP1 POP SWAP2 SWAP1 POP JUMP JUMPDEST PUSH2 0x1F1 DUP2 PUSH2 0x1DF JUMP JUMPDEST DUP2 EQ PUSH2 0x1FB JUMPI PUSH0 DUP1 REVERT JUMPDEST POP JUMP JUMPDEST PUSH0 DUP2 CALLDATALOAD SWAP1 POP PUSH2 0x20C DUP2 PUSH2 0x1E8 JUMP JUMPDEST SWAP3 SWAP2 POP POP JUMP JUMPDEST PUSH0 PUSH1 0x20 DUP3 DUP5 SUB SLT ISZERO PUSH2 0x227 JUMPI PUSH2 0x226 PUSH2 0x1DB JUMP JUMPDEST JUMPDEST PUSH0 PUSH2 0x234 DUP5 DUP3 DUP6 ADD PUSH2 0x1FE JUMP JUMPDEST SWAP2 POP POP SWAP3 SWAP2 POP POP JUMP JUMPDEST PUSH0 PUSH20 0xFFFFFFFFFFFFFFFFFFFFFFFFFFFFFFFFFFFFFFFF DUP3 AND SWAP1 POP SWAP2 SWAP1 POP JUMP JUMPDEST PUSH0 PUSH2 0x266 DUP3 PUSH2 0x23D JUMP JUMPDEST SWAP1 POP SWAP2 SWAP1 POP JUMP JUMPDEST PUSH2 0x276 DUP2 PUSH2 0x25C JUMP JUMPDEST DUP3 MSTORE POP POP JUMP JUMPDEST PUSH0 PUSH1 0x20 DUP3 ADD SWAP1 POP PUSH2 0x28F PUSH0 DUP4 ADD DUP5 PUSH2 0x26D JUMP JUMPDEST SWAP3 SWAP2 POP POP JUMP JUMPDEST PUSH2 0x29E DUP2 PUSH2 0x1DF JUMP JUMPDEST DUP3 MSTORE POP POP JUMP JUMPDEST PUSH0 PUSH1 0x20 DUP3 ADD SWAP1 POP PUSH2 0x2B7 PUSH0 DUP4 ADD DUP5 PUSH2 0x295 JUMP JUMPDEST SWAP3 SWAP2 POP POP JUMP JUMPDEST PUSH0 DUP3 DUP3 MSTORE PUSH1 0x20 DUP3 ADD SWAP1 POP SWAP3 SWAP2 POP POP JUMP JUMPDEST PUSH32 0x5468652063616C6C6572206973206E6F7420746865206F776E65722E00000000 PUSH0 DUP3 ADD MSTORE POP JUMP JUMPDEST PUSH0 PUSH2 0x301 PUSH1 0x1C DUP4 PUSH2 0x2BD JUMP JUMPDEST SWAP2 POP PUSH2 0x30C DUP3 PUSH2 0x2CD JUMP JUMPDEST PUSH1 0x20 DUP3 ADD SWAP1 POP SWAP2 SWAP1 POP JUMP JUMPDEST PUSH0 PUSH1 0x20 DUP3 ADD SWAP1 POP DUP2 DUP2 SUB PUSH0 DUP4 ADD MSTORE PUSH2 0x32E DUP2 PUSH2 0x2F5 JUMP JUMPDEST SWAP1 POP SWAP2 SWAP1 POP JUMP INVALID LOG2 PUSH5 0x6970667358 0x22 SLT KECCAK256 0xC3 0xE6 0xE0 0xB5 SELFDESTRUCT 0xEF MSIZE ADDRESS 0xFB SWAP11 PUSH8 0x7E4DD0368F6E05F7 DUP5 SUB LOG3 DUP14 0xE 0xDC SELFDESTRUCT PUSH19 0xD1335F8E5764736F6C634300081A0033000000 "
				},
				"gasEstimates": {
					"creation": {
						"codeDepositCost": "175000",
						"executionCost": "24483",
						"totalCost": "199483"
					},
					"external": {
						"get_bal()": "356",
						"owner()": "2505",
						"withdraw(uint256)": "infinite"
					}
				},
				"methodIdentifiers": {
					"get_bal()": "b55587e3",
					"owner()": "8da5cb5b",
					"withdraw(uint256)": "2e1a7d4d"
				}
			},
			"storageLayout": {
				"storage": [
					{
						"astId": 3,
						"contract": "contracts/Eth_Wallet.sol:Eth_Wallet",
						"label": "owner",
						"offset": 0,
						"slot": "0",
						"type": "t_address_payable"
					}
				],
				"types": {
					"t_address_payable": {
						"encoding": "inplace",
						"label": "address payable",
						"numberOfBytes": "20"
					}
				}
			},
			"userdoc": {
				"kind": "user",
				"methods": {},
				"version": 1
			}
		}
	}
}